{
	"contracts_rename/FlashLoan.sol": {
		"FlashLoan": {
			"abi": [
				{
					"inputs": [
						{
							"internalType": "contract ISwapRouter",
							"name": "_swapRouter",
							"type": "address"
						},
						{
							"internalType": "address",
							"name": "_factory",
							"type": "address"
						},
						{
							"internalType": "address",
							"name": "_WETH9",
							"type": "address"
						}
					],
					"stateMutability": "nonpayable",
					"type": "constructor"
				},
				{
					"inputs": [],
					"name": "WETH9",
					"outputs": [
						{
							"internalType": "address",
							"name": "",
							"type": "address"
						}
					],
					"stateMutability": "view",
					"type": "function"
				},
				{
					"inputs": [],
					"name": "factory",
					"outputs": [
						{
							"internalType": "address",
							"name": "",
							"type": "address"
						}
					],
					"stateMutability": "view",
					"type": "function"
				},
				{
					"inputs": [
						{
							"internalType": "address",
							"name": "token0",
							"type": "address"
						},
						{
							"internalType": "address",
							"name": "token1",
							"type": "address"
						},
						{
							"internalType": "uint24",
							"name": "fee1",
							"type": "uint24"
						},
						{
							"internalType": "uint256",
							"name": "amount0",
							"type": "uint256"
						},
						{
							"internalType": "uint256",
							"name": "amount1",
							"type": "uint256"
						},
						{
							"internalType": "uint24",
							"name": "fee2",
							"type": "uint24"
						},
						{
							"internalType": "uint24",
							"name": "fee3",
							"type": "uint24"
						}
					],
					"name": "initFlash",
					"outputs": [],
					"stateMutability": "nonpayable",
					"type": "function"
				},
				{
					"inputs": [],
					"name": "refundETH",
					"outputs": [],
					"stateMutability": "payable",
					"type": "function"
				},
				{
					"inputs": [],
					"name": "swapRouter",
					"outputs": [
						{
							"internalType": "contract ISwapRouter",
							"name": "",
							"type": "address"
						}
					],
					"stateMutability": "view",
					"type": "function"
				},
				{
					"inputs": [
						{
							"internalType": "address",
							"name": "token",
							"type": "address"
						},
						{
							"internalType": "uint256",
							"name": "amountMinimum",
							"type": "uint256"
						},
						{
							"internalType": "address",
							"name": "recipient",
							"type": "address"
						}
					],
					"name": "sweepToken",
					"outputs": [],
					"stateMutability": "payable",
					"type": "function"
				},
				{
					"inputs": [
						{
							"internalType": "uint256",
							"name": "fee0",
							"type": "uint256"
						},
						{
							"internalType": "uint256",
							"name": "fee1",
							"type": "uint256"
						},
						{
							"internalType": "bytes",
							"name": "data",
							"type": "bytes"
						}
					],
					"name": "uniswapV3FlashCallback",
					"outputs": [],
					"stateMutability": "nonpayable",
					"type": "function"
				},
				{
					"inputs": [
						{
							"internalType": "uint256",
							"name": "amountMinimum",
							"type": "uint256"
						},
						{
							"internalType": "address",
							"name": "recipient",
							"type": "address"
						}
					],
					"name": "unwrapWETH9",
					"outputs": [],
					"stateMutability": "payable",
					"type": "function"
				},
				{
					"stateMutability": "payable",
					"type": "receive"
				}
			],
			"devdoc": {
				"kind": "dev",
				"methods": {
					"refundETH()": {
						"details": "Useful for bundling with mint or increase liquidity that uses ether, or exact output swaps that use ether for the input amount"
					},
					"sweepToken(address,uint256,address)": {
						"details": "The amountMinimum parameter prevents malicious contracts from stealing the token from users",
						"params": {
							"amountMinimum": "The minimum amount of token required for a transfer",
							"recipient": "The destination address of the token",
							"token": "The contract address of the token which will be transferred to `recipient`"
						}
					},
					"uniswapV3FlashCallback(uint256,uint256,bytes)": {
						"details": "fails if the flash is not profitable, meaning the amountOut from the flash is less than the amount borrowed",
						"params": {
							"data": "The data needed in the callback passed as FlashCallbackData from `initFlash`",
							"fee0": "The fee from calling flash for token0",
							"fee1": "The fee from calling flash for token1"
						}
					},
					"unwrapWETH9(uint256,address)": {
						"details": "The amountMinimum parameter prevents malicious contracts from stealing WETH9 from users.",
						"params": {
							"amountMinimum": "The minimum amount of WETH9 to unwrap",
							"recipient": "The address receiving ETH"
						}
					}
				},
				"title": "Flash contract implementation",
				"version": 1
			},
			"evm": {
				"assembly": "    /* \"contracts_rename/FlashLoan.sol\":563:6980  contract FlashLoan is IUniswapV3FlashCallback, PeripheryImmutableState, PeripheryPayments {... */\n  mstore(0x40, 0xe0)\n    /* \"contracts_rename/FlashLoan.sol\":1392:1582  constructor(... */\n  callvalue\n  dup1\n  iszero\n  tag_1\n  jumpi\n  0x00\n  dup1\n  revert\ntag_1:\n  pop\n  mload(0x40)\n  sub(codesize, bytecodeSize)\n  dup1\n  bytecodeSize\n  dup4\n  codecopy\n  dup2\n  dup2\n  add\n  0x40\n  mstore\n  dup2\n  add\n  swap1\n  tag_2\n  swap2\n  swap1\n  tag_3\n  jump\t// in\ntag_2:\n    /* \"contracts_rename/FlashLoan.sol\":1521:1529  _factory */\n  dup2\n    /* \"contracts_rename/FlashLoan.sol\":1531:1537  _WETH9 */\n  dup2\n    /* \"contracts_rename/interfaces/PeripheryImmutableState.sol\":537:545  _factory */\n  dup2\n    /* \"contracts_rename/interfaces/PeripheryImmutableState.sol\":527:545  factory = _factory */\n  0xffffffffffffffffffffffffffffffffffffffff\n  and\n  0x80\n  dup2\n  0xffffffffffffffffffffffffffffffffffffffff\n  and\n  dup2\n  mstore\n  pop\n  pop\n    /* \"contracts_rename/interfaces/PeripheryImmutableState.sol\":564:570  _WETH9 */\n  dup1\n    /* \"contracts_rename/interfaces/PeripheryImmutableState.sol\":556:570  WETH9 = _WETH9 */\n  0xffffffffffffffffffffffffffffffffffffffff\n  and\n  0xa0\n  dup2\n  0xffffffffffffffffffffffffffffffffffffffff\n  and\n  dup2\n  mstore\n  pop\n  pop\n    /* \"contracts_rename/interfaces/PeripheryImmutableState.sol\":470:578  constructor(address _factory, address _WETH9) {... */\n  pop\n  pop\n    /* \"contracts_rename/FlashLoan.sol\":1563:1574  _swapRouter */\n  dup3\n    /* \"contracts_rename/FlashLoan.sol\":1550:1574  swapRouter = _swapRouter */\n  0xffffffffffffffffffffffffffffffffffffffff\n  and\n  0xc0\n  dup2\n  0xffffffffffffffffffffffffffffffffffffffff\n  and\n  dup2\n  mstore\n  pop\n  pop\n    /* \"contracts_rename/FlashLoan.sol\":1392:1582  constructor(... */\n  pop\n  pop\n  pop\n    /* \"contracts_rename/FlashLoan.sol\":563:6980  contract FlashLoan is IUniswapV3FlashCallback, PeripheryImmutableState, PeripheryPayments {... */\n  jump(tag_8)\n    /* \"#utility.yul\":88:205   */\ntag_10:\n    /* \"#utility.yul\":197:198   */\n  0x00\n    /* \"#utility.yul\":194:195   */\n  dup1\n    /* \"#utility.yul\":187:199   */\n  revert\n    /* \"#utility.yul\":334:460   */\ntag_12:\n    /* \"#utility.yul\":371:378   */\n  0x00\n    /* \"#utility.yul\":411:453   */\n  0xffffffffffffffffffffffffffffffffffffffff\n    /* \"#utility.yul\":404:409   */\n  dup3\n    /* \"#utility.yul\":400:454   */\n  and\n    /* \"#utility.yul\":389:454   */\n  swap1\n  pop\n    /* \"#utility.yul\":334:460   */\n  swap2\n  swap1\n  pop\n  jump\t// out\n    /* \"#utility.yul\":466:562   */\ntag_13:\n    /* \"#utility.yul\":503:510   */\n  0x00\n    /* \"#utility.yul\":532:556   */\n  tag_25\n    /* \"#utility.yul\":550:555   */\n  dup3\n    /* \"#utility.yul\":532:556   */\n  tag_12\n  jump\t// in\ntag_25:\n    /* \"#utility.yul\":521:556   */\n  swap1\n  pop\n    /* \"#utility.yul\":466:562   */\n  swap2\n  swap1\n  pop\n  jump\t// out\n    /* \"#utility.yul\":568:684   */\ntag_14:\n    /* \"#utility.yul\":625:632   */\n  0x00\n    /* \"#utility.yul\":654:678   */\n  tag_27\n    /* \"#utility.yul\":672:677   */\n  dup3\n    /* \"#utility.yul\":654:678   */\n  tag_13\n  jump\t// in\ntag_27:\n    /* \"#utility.yul\":643:678   */\n  swap1\n  pop\n    /* \"#utility.yul\":568:684   */\n  swap2\n  swap1\n  pop\n  jump\t// out\n    /* \"#utility.yul\":690:852   */\ntag_15:\n    /* \"#utility.yul\":783:827   */\n  tag_29\n    /* \"#utility.yul\":821:826   */\n  dup2\n    /* \"#utility.yul\":783:827   */\n  tag_14\n  jump\t// in\ntag_29:\n    /* \"#utility.yul\":776:781   */\n  dup2\n    /* \"#utility.yul\":773:828   */\n  eq\n    /* \"#utility.yul\":763:846   */\n  tag_30\n  jumpi\n    /* \"#utility.yul\":842:843   */\n  0x00\n    /* \"#utility.yul\":839:840   */\n  dup1\n    /* \"#utility.yul\":832:844   */\n  revert\n    /* \"#utility.yul\":763:846   */\ntag_30:\n    /* \"#utility.yul\":690:852   */\n  pop\n  jump\t// out\n    /* \"#utility.yul\":858:1041   */\ntag_16:\n    /* \"#utility.yul\":935:940   */\n  0x00\n    /* \"#utility.yul\":966:972   */\n  dup2\n    /* \"#utility.yul\":960:973   */\n  mload\n    /* \"#utility.yul\":951:973   */\n  swap1\n  pop\n    /* \"#utility.yul\":982:1035   */\n  tag_32\n    /* \"#utility.yul\":1029:1034   */\n  dup2\n    /* \"#utility.yul\":982:1035   */\n  tag_15\n  jump\t// in\ntag_32:\n    /* \"#utility.yul\":858:1041   */\n  swap3\n  swap2\n  pop\n  pop\n  jump\t// out\n    /* \"#utility.yul\":1047:1169   */\ntag_17:\n    /* \"#utility.yul\":1120:1144   */\n  tag_34\n    /* \"#utility.yul\":1138:1143   */\n  dup2\n    /* \"#utility.yul\":1120:1144   */\n  tag_13\n  jump\t// in\ntag_34:\n    /* \"#utility.yul\":1113:1118   */\n  dup2\n    /* \"#utility.yul\":1110:1145   */\n  eq\n    /* \"#utility.yul\":1100:1163   */\n  tag_35\n  jumpi\n    /* \"#utility.yul\":1159:1160   */\n  0x00\n    /* \"#utility.yul\":1156:1157   */\n  dup1\n    /* \"#utility.yul\":1149:1161   */\n  revert\n    /* \"#utility.yul\":1100:1163   */\ntag_35:\n    /* \"#utility.yul\":1047:1169   */\n  pop\n  jump\t// out\n    /* \"#utility.yul\":1175:1318   */\ntag_18:\n    /* \"#utility.yul\":1232:1237   */\n  0x00\n    /* \"#utility.yul\":1263:1269   */\n  dup2\n    /* \"#utility.yul\":1257:1270   */\n  mload\n    /* \"#utility.yul\":1248:1270   */\n  swap1\n  pop\n    /* \"#utility.yul\":1279:1312   */\n  tag_37\n    /* \"#utility.yul\":1306:1311   */\n  dup2\n    /* \"#utility.yul\":1279:1312   */\n  tag_17\n  jump\t// in\ntag_37:\n    /* \"#utility.yul\":1175:1318   */\n  swap3\n  swap2\n  pop\n  pop\n  jump\t// out\n    /* \"#utility.yul\":1324:2027   */\ntag_3:\n    /* \"#utility.yul\":1432:1438   */\n  0x00\n    /* \"#utility.yul\":1440:1446   */\n  dup1\n    /* \"#utility.yul\":1448:1454   */\n  0x00\n    /* \"#utility.yul\":1497:1499   */\n  0x60\n    /* \"#utility.yul\":1485:1494   */\n  dup5\n    /* \"#utility.yul\":1476:1483   */\n  dup7\n    /* \"#utility.yul\":1472:1495   */\n  sub\n    /* \"#utility.yul\":1468:1500   */\n  slt\n    /* \"#utility.yul\":1465:1584   */\n  iszero\n  tag_39\n  jumpi\n    /* \"#utility.yul\":1503:1582   */\n  tag_40\n  tag_10\n  jump\t// in\ntag_40:\n    /* \"#utility.yul\":1465:1584   */\ntag_39:\n    /* \"#utility.yul\":1623:1624   */\n  0x00\n    /* \"#utility.yul\":1648:1732   */\n  tag_41\n    /* \"#utility.yul\":1724:1731   */\n  dup7\n    /* \"#utility.yul\":1715:1721   */\n  dup3\n    /* \"#utility.yul\":1704:1713   */\n  dup8\n    /* \"#utility.yul\":1700:1722   */\n  add\n    /* \"#utility.yul\":1648:1732   */\n  tag_16\n  jump\t// in\ntag_41:\n    /* \"#utility.yul\":1638:1732   */\n  swap4\n  pop\n    /* \"#utility.yul\":1594:1742   */\n  pop\n    /* \"#utility.yul\":1781:1783   */\n  0x20\n    /* \"#utility.yul\":1807:1871   */\n  tag_42\n    /* \"#utility.yul\":1863:1870   */\n  dup7\n    /* \"#utility.yul\":1854:1860   */\n  dup3\n    /* \"#utility.yul\":1843:1852   */\n  dup8\n    /* \"#utility.yul\":1839:1861   */\n  add\n    /* \"#utility.yul\":1807:1871   */\n  tag_18\n  jump\t// in\ntag_42:\n    /* \"#utility.yul\":1797:1871   */\n  swap3\n  pop\n    /* \"#utility.yul\":1752:1881   */\n  pop\n    /* \"#utility.yul\":1920:1922   */\n  0x40\n    /* \"#utility.yul\":1946:2010   */\n  tag_43\n    /* \"#utility.yul\":2002:2009   */\n  dup7\n    /* \"#utility.yul\":1993:1999   */\n  dup3\n    /* \"#utility.yul\":1982:1991   */\n  dup8\n    /* \"#utility.yul\":1978:2000   */\n  add\n    /* \"#utility.yul\":1946:2010   */\n  tag_18\n  jump\t// in\ntag_43:\n    /* \"#utility.yul\":1936:2010   */\n  swap2\n  pop\n    /* \"#utility.yul\":1891:2020   */\n  pop\n    /* \"#utility.yul\":1324:2027   */\n  swap3\n  pop\n  swap3\n  pop\n  swap3\n  jump\t// out\n    /* \"contracts_rename/FlashLoan.sol\":563:6980  contract FlashLoan is IUniswapV3FlashCallback, PeripheryImmutableState, PeripheryPayments {... */\ntag_8:\n  mload(0x80)\n  mload(0xa0)\n  mload(0xc0)\n  codecopy(0x00, dataOffset(sub_0), dataSize(sub_0))\n  0x00\n  assignImmutable(\"0xa0eca6753fe875977fae7412373db297f3c521f0c3974df73aec87123c16e827\")\n  0x00\n  assignImmutable(\"0x535ebbacc766b9aec6eaef74a72c1c73399b3f83af81812ea51294501adf4ccf\")\n  0x00\n  assignImmutable(\"0xca38719a2a201dc5ea81fbb3263fbdc427c0061a109dbff8c83ff2e8b01f39f7\")\n  return(0x00, dataSize(sub_0))\nstop\n\nsub_0: assembly {\n        /* \"contracts_rename/FlashLoan.sol\":563:6980  contract FlashLoan is IUniswapV3FlashCallback, PeripheryImmutableState, PeripheryPayments {... */\n      mstore(0x40, 0x80)\n      jumpi(tag_1, lt(calldatasize, 0x04))\n      shr(0xe0, calldataload(0x00))\n      dup1\n      0xc31c9c07\n      gt\n      tag_11\n      jumpi\n      dup1\n      0xc31c9c07\n      eq\n      tag_7\n      jumpi\n      dup1\n      0xc45a0155\n      eq\n      tag_8\n      jumpi\n      dup1\n      0xdf2ab5bb\n      eq\n      tag_9\n      jumpi\n      dup1\n      0xe9cbafb0\n      eq\n      tag_10\n      jumpi\n      jump(tag_2)\n    tag_11:\n      dup1\n      0x12210e8a\n      eq\n      tag_3\n      jumpi\n      dup1\n      0x49404b7c\n      eq\n      tag_4\n      jumpi\n      dup1\n      0x4aa4a4fc\n      eq\n      tag_5\n      jumpi\n      dup1\n      0x833263e6\n      eq\n      tag_6\n      jumpi\n      jump(tag_2)\n    tag_1:\n      jumpi(tag_2, calldatasize)\n      stop\n    tag_2:\n      0x00\n      dup1\n      revert\n        /* \"contracts_rename/interfaces/PeripheryPayments.sol\":1377:1545  function refundETH() external payable override {... */\n    tag_3:\n      tag_14\n      tag_15\n      jump\t// in\n    tag_14:\n      stop\n        /* \"contracts_rename/interfaces/PeripheryPayments.sol\":458:869  function unwrapWETH9(uint256 amountMinimum, address recipient) public payable override {... */\n    tag_4:\n      tag_16\n      0x04\n      dup1\n      calldatasize\n      sub\n      dup2\n      add\n      swap1\n      tag_17\n      swap2\n      swap1\n      tag_18\n      jump\t// in\n    tag_17:\n      tag_19\n      jump\t// in\n    tag_16:\n      stop\n        /* \"contracts_rename/interfaces/PeripheryImmutableState.sol\":422:461  address public immutable override WETH9 */\n    tag_5:\n      callvalue\n      dup1\n      iszero\n      tag_20\n      jumpi\n      0x00\n      dup1\n      revert\n    tag_20:\n      pop\n      tag_21\n      tag_22\n      jump\t// in\n    tag_21:\n      mload(0x40)\n      tag_23\n      swap2\n      swap1\n      tag_24\n      jump\t// in\n    tag_23:\n      mload(0x40)\n      dup1\n      swap2\n      sub\n      swap1\n      return\n        /* \"contracts_rename/FlashLoan.sol\":5870:6977  function initFlash(address token0,... */\n    tag_6:\n      callvalue\n      dup1\n      iszero\n      tag_25\n      jumpi\n      0x00\n      dup1\n      revert\n    tag_25:\n      pop\n      tag_26\n      0x04\n      dup1\n      calldatasize\n      sub\n      dup2\n      add\n      swap1\n      tag_27\n      swap2\n      swap1\n      tag_28\n      jump\t// in\n    tag_27:\n      tag_29\n      jump\t// in\n    tag_26:\n      stop\n        /* \"contracts_rename/FlashLoan.sol\":739:778  ISwapRouter public immutable swapRouter */\n    tag_7:\n      callvalue\n      dup1\n      iszero\n      tag_30\n      jumpi\n      0x00\n      dup1\n      revert\n    tag_30:\n      pop\n      tag_31\n      tag_32\n      jump\t// in\n    tag_31:\n      mload(0x40)\n      tag_33\n      swap2\n      swap1\n      tag_34\n      jump\t// in\n    tag_33:\n      mload(0x40)\n      dup1\n      swap2\n      sub\n      swap1\n      return\n        /* \"contracts_rename/interfaces/PeripheryImmutableState.sol\":328:369  address public immutable override factory */\n    tag_8:\n      callvalue\n      dup1\n      iszero\n      tag_35\n      jumpi\n      0x00\n      dup1\n      revert\n    tag_35:\n      pop\n      tag_36\n      tag_37\n      jump\t// in\n    tag_36:\n      mload(0x40)\n      tag_38\n      swap2\n      swap1\n      tag_24\n      jump\t// in\n    tag_38:\n      mload(0x40)\n      dup1\n      swap2\n      sub\n      swap1\n      return\n        /* \"contracts_rename/interfaces/PeripheryPayments.sol\":917:1329  function sweepToken(... */\n    tag_9:\n      tag_39\n      0x04\n      dup1\n      calldatasize\n      sub\n      dup2\n      add\n      swap1\n      tag_40\n      swap2\n      swap1\n      tag_41\n      jump\t// in\n    tag_40:\n      tag_42\n      jump\t// in\n    tag_39:\n      stop\n        /* \"contracts_rename/FlashLoan.sol\":1987:5181  function uniswapV3FlashCallback(... */\n    tag_10:\n      callvalue\n      dup1\n      iszero\n      tag_43\n      jumpi\n      0x00\n      dup1\n      revert\n    tag_43:\n      pop\n      tag_44\n      0x04\n      dup1\n      calldatasize\n      sub\n      dup2\n      add\n      swap1\n      tag_45\n      swap2\n      swap1\n      tag_46\n      jump\t// in\n    tag_45:\n      tag_47\n      jump\t// in\n    tag_44:\n      stop\n        /* \"contracts_rename/interfaces/PeripheryPayments.sol\":1377:1545  function refundETH() external payable override {... */\n    tag_15:\n        /* \"contracts_rename/interfaces/PeripheryPayments.sol\":1463:1464  0 */\n      0x00\n        /* \"contracts_rename/interfaces/PeripheryPayments.sol\":1439:1460  address(this).balance */\n      selfbalance\n        /* \"contracts_rename/interfaces/PeripheryPayments.sol\":1439:1464  address(this).balance > 0 */\n      gt\n        /* \"contracts_rename/interfaces/PeripheryPayments.sol\":1435:1537  if (address(this).balance > 0) CustomTransferHelper.safeTransferETH(msg.sender, address(this).balance) */\n      iszero\n      tag_49\n      jumpi\n        /* \"contracts_rename/interfaces/PeripheryPayments.sol\":1466:1537  CustomTransferHelper.safeTransferETH(msg.sender, address(this).balance) */\n      tag_50\n        /* \"contracts_rename/interfaces/PeripheryPayments.sol\":1503:1513  msg.sender */\n      caller\n        /* \"contracts_rename/interfaces/PeripheryPayments.sol\":1515:1536  address(this).balance */\n      selfbalance\n        /* \"contracts_rename/interfaces/PeripheryPayments.sol\":1466:1502  CustomTransferHelper.safeTransferETH */\n      tag_51\n        /* \"contracts_rename/interfaces/PeripheryPayments.sol\":1466:1537  CustomTransferHelper.safeTransferETH(msg.sender, address(this).balance) */\n      jump\t// in\n    tag_50:\n        /* \"contracts_rename/interfaces/PeripheryPayments.sol\":1435:1537  if (address(this).balance > 0) CustomTransferHelper.safeTransferETH(msg.sender, address(this).balance) */\n    tag_49:\n        /* \"contracts_rename/interfaces/PeripheryPayments.sol\":1377:1545  function refundETH() external payable override {... */\n      jump\t// out\n        /* \"contracts_rename/interfaces/PeripheryPayments.sol\":458:869  function unwrapWETH9(uint256 amountMinimum, address recipient) public payable override {... */\n    tag_19:\n        /* \"contracts_rename/interfaces/PeripheryPayments.sol\":556:576  uint256 balanceWETH9 */\n      0x00\n        /* \"contracts_rename/interfaces/PeripheryPayments.sol\":586:591  WETH9 */\n      immutable(\"0x535ebbacc766b9aec6eaef74a72c1c73399b3f83af81812ea51294501adf4ccf\")\n        /* \"contracts_rename/interfaces/PeripheryPayments.sol\":579:602  IWETH9(WETH9).balanceOf */\n      0xffffffffffffffffffffffffffffffffffffffff\n      and\n      0x70a08231\n        /* \"contracts_rename/interfaces/PeripheryPayments.sol\":611:615  this */\n      address\n        /* \"contracts_rename/interfaces/PeripheryPayments.sol\":579:617  IWETH9(WETH9).balanceOf(address(this)) */\n      mload(0x40)\n      dup3\n      0xffffffff\n      and\n      0xe0\n      shl\n      dup2\n      mstore\n      0x04\n      add\n      tag_53\n      swap2\n      swap1\n      tag_24\n      jump\t// in\n    tag_53:\n      0x20\n      mload(0x40)\n      dup1\n      dup4\n      sub\n      dup2\n      dup7\n      gas\n      staticcall\n      iszero\n      dup1\n      iszero\n      tag_55\n      jumpi\n      returndatasize\n      0x00\n      dup1\n      returndatacopy\n      revert(0x00, returndatasize)\n    tag_55:\n      pop\n      pop\n      pop\n      pop\n      mload(0x40)\n      returndatasize\n      not(0x1f)\n      0x1f\n      dup3\n      add\n      and\n      dup3\n      add\n      dup1\n      0x40\n      mstore\n      pop\n      dup2\n      add\n      swap1\n      tag_56\n      swap2\n      swap1\n      tag_57\n      jump\t// in\n    tag_56:\n        /* \"contracts_rename/interfaces/PeripheryPayments.sol\":556:617  uint256 balanceWETH9 = IWETH9(WETH9).balanceOf(address(this)) */\n      swap1\n      pop\n        /* \"contracts_rename/interfaces/PeripheryPayments.sol\":652:665  amountMinimum */\n      dup3\n        /* \"contracts_rename/interfaces/PeripheryPayments.sol\":636:648  balanceWETH9 */\n      dup2\n        /* \"contracts_rename/interfaces/PeripheryPayments.sol\":636:665  balanceWETH9 >= amountMinimum */\n      lt\n      iszero\n        /* \"contracts_rename/interfaces/PeripheryPayments.sol\":628:688  require(balanceWETH9 >= amountMinimum, 'Insufficient WETH9') */\n      tag_58\n      jumpi\n      mload(0x40)\n      0x08c379a000000000000000000000000000000000000000000000000000000000\n      dup2\n      mstore\n      0x04\n      add\n      tag_59\n      swap1\n      tag_60\n      jump\t// in\n    tag_59:\n      mload(0x40)\n      dup1\n      swap2\n      sub\n      swap1\n      revert\n    tag_58:\n        /* \"contracts_rename/interfaces/PeripheryPayments.sol\":720:721  0 */\n      0x00\n        /* \"contracts_rename/interfaces/PeripheryPayments.sol\":705:717  balanceWETH9 */\n      dup2\n        /* \"contracts_rename/interfaces/PeripheryPayments.sol\":705:721  balanceWETH9 > 0 */\n      gt\n        /* \"contracts_rename/interfaces/PeripheryPayments.sol\":701:862  if (balanceWETH9 > 0) {... */\n      iszero\n      tag_61\n      jumpi\n        /* \"contracts_rename/interfaces/PeripheryPayments.sol\":745:750  WETH9 */\n      immutable(\"0x535ebbacc766b9aec6eaef74a72c1c73399b3f83af81812ea51294501adf4ccf\")\n        /* \"contracts_rename/interfaces/PeripheryPayments.sol\":738:760  IWETH9(WETH9).withdraw */\n      0xffffffffffffffffffffffffffffffffffffffff\n      and\n      0x2e1a7d4d\n        /* \"contracts_rename/interfaces/PeripheryPayments.sol\":761:773  balanceWETH9 */\n      dup3\n        /* \"contracts_rename/interfaces/PeripheryPayments.sol\":738:774  IWETH9(WETH9).withdraw(balanceWETH9) */\n      mload(0x40)\n      dup3\n      0xffffffff\n      and\n      0xe0\n      shl\n      dup2\n      mstore\n      0x04\n      add\n      tag_62\n      swap2\n      swap1\n      tag_63\n      jump\t// in\n    tag_62:\n      0x00\n      mload(0x40)\n      dup1\n      dup4\n      sub\n      dup2\n      0x00\n      dup8\n      dup1\n      extcodesize\n      iszero\n      dup1\n      iszero\n      tag_64\n      jumpi\n      0x00\n      dup1\n      revert\n    tag_64:\n      pop\n      gas\n      call\n      iszero\n      dup1\n      iszero\n      tag_66\n      jumpi\n      returndatasize\n      0x00\n      dup1\n      returndatacopy\n      revert(0x00, returndatasize)\n    tag_66:\n      pop\n      pop\n      pop\n      pop\n        /* \"contracts_rename/interfaces/PeripheryPayments.sol\":789:850  CustomTransferHelper.safeTransferETH(recipient, balanceWETH9) */\n      tag_67\n        /* \"contracts_rename/interfaces/PeripheryPayments.sol\":826:835  recipient */\n      dup3\n        /* \"contracts_rename/interfaces/PeripheryPayments.sol\":837:849  balanceWETH9 */\n      dup3\n        /* \"contracts_rename/interfaces/PeripheryPayments.sol\":789:825  CustomTransferHelper.safeTransferETH */\n      tag_51\n        /* \"contracts_rename/interfaces/PeripheryPayments.sol\":789:850  CustomTransferHelper.safeTransferETH(recipient, balanceWETH9) */\n      jump\t// in\n    tag_67:\n        /* \"contracts_rename/interfaces/PeripheryPayments.sol\":701:862  if (balanceWETH9 > 0) {... */\n    tag_61:\n        /* \"contracts_rename/interfaces/PeripheryPayments.sol\":545:869  {... */\n      pop\n        /* \"contracts_rename/interfaces/PeripheryPayments.sol\":458:869  function unwrapWETH9(uint256 amountMinimum, address recipient) public payable override {... */\n      pop\n      pop\n      jump\t// out\n        /* \"contracts_rename/interfaces/PeripheryImmutableState.sol\":422:461  address public immutable override WETH9 */\n    tag_22:\n      immutable(\"0x535ebbacc766b9aec6eaef74a72c1c73399b3f83af81812ea51294501adf4ccf\")\n      dup2\n      jump\t// out\n        /* \"contracts_rename/FlashLoan.sol\":5870:6977  function initFlash(address token0,... */\n    tag_29:\n        /* \"contracts_rename/FlashLoan.sol\":6068:6102  PoolAddress.PoolKey memory poolKey */\n      0x00\n        /* \"contracts_rename/FlashLoan.sol\":6118:6182  PoolAddress.PoolKey({token0: token0, token1: token1, fee: fee1}) */\n      mload(0x40)\n      dup1\n      0x60\n      add\n      0x40\n      mstore\n      dup1\n        /* \"contracts_rename/FlashLoan.sol\":6147:6153  token0 */\n      dup10\n        /* \"contracts_rename/FlashLoan.sol\":6118:6182  PoolAddress.PoolKey({token0: token0, token1: token1, fee: fee1}) */\n      0xffffffffffffffffffffffffffffffffffffffff\n      and\n      dup2\n      mstore\n      0x20\n      add\n        /* \"contracts_rename/FlashLoan.sol\":6163:6169  token1 */\n      dup9\n        /* \"contracts_rename/FlashLoan.sol\":6118:6182  PoolAddress.PoolKey({token0: token0, token1: token1, fee: fee1}) */\n      0xffffffffffffffffffffffffffffffffffffffff\n      and\n      dup2\n      mstore\n      0x20\n      add\n        /* \"contracts_rename/FlashLoan.sol\":6176:6180  fee1 */\n      dup8\n        /* \"contracts_rename/FlashLoan.sol\":6118:6182  PoolAddress.PoolKey({token0: token0, token1: token1, fee: fee1}) */\n      0xffffff\n      and\n      dup2\n      mstore\n      pop\n        /* \"contracts_rename/FlashLoan.sol\":6068:6182  PoolAddress.PoolKey memory poolKey =... */\n      swap1\n      pop\n        /* \"contracts_rename/FlashLoan.sol\":6193:6212  IUniswapV3Pool pool */\n      0x00\n        /* \"contracts_rename/FlashLoan.sol\":6230:6274  PoolAddress.computeAddress(factory, poolKey) */\n      tag_69\n        /* \"contracts_rename/FlashLoan.sol\":6257:6264  factory */\n      immutable(\"0xca38719a2a201dc5ea81fbb3263fbdc427c0061a109dbff8c83ff2e8b01f39f7\")\n        /* \"contracts_rename/FlashLoan.sol\":6266:6273  poolKey */\n      dup4\n        /* \"contracts_rename/FlashLoan.sol\":6230:6256  PoolAddress.computeAddress */\n      tag_70\n        /* \"contracts_rename/FlashLoan.sol\":6230:6274  PoolAddress.computeAddress(factory, poolKey) */\n      jump\t// in\n    tag_69:\n        /* \"contracts_rename/FlashLoan.sol\":6193:6275  IUniswapV3Pool pool = IUniswapV3Pool(PoolAddress.computeAddress(factory, poolKey)) */\n      swap1\n      pop\n        /* \"contracts_rename/FlashLoan.sol\":6548:6552  pool */\n      dup1\n        /* \"contracts_rename/FlashLoan.sol\":6548:6558  pool.flash */\n      0xffffffffffffffffffffffffffffffffffffffff\n      and\n      0x490e6cbc\n        /* \"contracts_rename/FlashLoan.sol\":6581:6585  this */\n      address\n        /* \"contracts_rename/FlashLoan.sol\":6601:6608  amount0 */\n      dup9\n        /* \"contracts_rename/FlashLoan.sol\":6623:6630  amount1 */\n      dup9\n        /* \"contracts_rename/FlashLoan.sol\":6674:6943  FlashCallbackData({... */\n      mload(0x40)\n      dup1\n      0xc0\n      add\n      0x40\n      mstore\n      dup1\n        /* \"contracts_rename/FlashLoan.sol\":6724:6731  amount0 */\n      dup13\n        /* \"contracts_rename/FlashLoan.sol\":6674:6943  FlashCallbackData({... */\n      dup2\n      mstore\n      0x20\n      add\n        /* \"contracts_rename/FlashLoan.sol\":6763:6770  amount1 */\n      dup12\n        /* \"contracts_rename/FlashLoan.sol\":6674:6943  FlashCallbackData({... */\n      dup2\n      mstore\n      0x20\n      add\n        /* \"contracts_rename/FlashLoan.sol\":6800:6810  msg.sender */\n      caller\n        /* \"contracts_rename/FlashLoan.sol\":6674:6943  FlashCallbackData({... */\n      0xffffffffffffffffffffffffffffffffffffffff\n      and\n      dup2\n      mstore\n      0x20\n      add\n        /* \"contracts_rename/FlashLoan.sol\":6842:6849  poolKey */\n      dup9\n        /* \"contracts_rename/FlashLoan.sol\":6674:6943  FlashCallbackData({... */\n      dup2\n      mstore\n      0x20\n      add\n        /* \"contracts_rename/FlashLoan.sol\":6882:6886  fee2 */\n      dup11\n        /* \"contracts_rename/FlashLoan.sol\":6674:6943  FlashCallbackData({... */\n      0xffffff\n      and\n      dup2\n      mstore\n      0x20\n      add\n        /* \"contracts_rename/FlashLoan.sol\":6919:6923  fee3 */\n      dup10\n        /* \"contracts_rename/FlashLoan.sol\":6674:6943  FlashCallbackData({... */\n      0xffffff\n      and\n      dup2\n      mstore\n      pop\n        /* \"contracts_rename/FlashLoan.sol\":6645:6958  abi.encode(... */\n      add(0x20, mload(0x40))\n      tag_71\n      swap2\n      swap1\n      tag_72\n      jump\t// in\n    tag_71:\n      mload(0x40)\n      0x20\n      dup2\n      dup4\n      sub\n      sub\n      dup2\n      mstore\n      swap1\n      0x40\n      mstore\n        /* \"contracts_rename/FlashLoan.sol\":6548:6969  pool.flash(... */\n      mload(0x40)\n      dup6\n      0xffffffff\n      and\n      0xe0\n      shl\n      dup2\n      mstore\n      0x04\n      add\n      tag_73\n      swap5\n      swap4\n      swap3\n      swap2\n      swap1\n      tag_74\n      jump\t// in\n    tag_73:\n      0x00\n      mload(0x40)\n      dup1\n      dup4\n      sub\n      dup2\n      0x00\n      dup8\n      dup1\n      extcodesize\n      iszero\n      dup1\n      iszero\n      tag_75\n      jumpi\n      0x00\n      dup1\n      revert\n    tag_75:\n      pop\n      gas\n      call\n      iszero\n      dup1\n      iszero\n      tag_77\n      jumpi\n      returndatasize\n      0x00\n      dup1\n      returndatacopy\n      revert(0x00, returndatasize)\n    tag_77:\n      pop\n      pop\n      pop\n      pop\n        /* \"contracts_rename/FlashLoan.sol\":6057:6977  {... */\n      pop\n      pop\n        /* \"contracts_rename/FlashLoan.sol\":5870:6977  function initFlash(address token0,... */\n      pop\n      pop\n      pop\n      pop\n      pop\n      pop\n      pop\n      jump\t// out\n        /* \"contracts_rename/FlashLoan.sol\":739:778  ISwapRouter public immutable swapRouter */\n    tag_32:\n      immutable(\"0xa0eca6753fe875977fae7412373db297f3c521f0c3974df73aec87123c16e827\")\n      dup2\n      jump\t// out\n        /* \"contracts_rename/interfaces/PeripheryImmutableState.sol\":328:369  address public immutable override factory */\n    tag_37:\n      immutable(\"0xca38719a2a201dc5ea81fbb3263fbdc427c0061a109dbff8c83ff2e8b01f39f7\")\n      dup2\n      jump\t// out\n        /* \"contracts_rename/interfaces/PeripheryPayments.sol\":917:1329  function sweepToken(... */\n    tag_42:\n        /* \"contracts_rename/interfaces/PeripheryPayments.sol\":1063:1083  uint256 balanceToken */\n      0x00\n        /* \"contracts_rename/interfaces/PeripheryPayments.sol\":1093:1098  token */\n      dup4\n        /* \"contracts_rename/interfaces/PeripheryPayments.sol\":1086:1109  IERC20(token).balanceOf */\n      0xffffffffffffffffffffffffffffffffffffffff\n      and\n      0x70a08231\n        /* \"contracts_rename/interfaces/PeripheryPayments.sol\":1118:1122  this */\n      address\n        /* \"contracts_rename/interfaces/PeripheryPayments.sol\":1086:1124  IERC20(token).balanceOf(address(this)) */\n      mload(0x40)\n      dup3\n      0xffffffff\n      and\n      0xe0\n      shl\n      dup2\n      mstore\n      0x04\n      add\n      tag_79\n      swap2\n      swap1\n      tag_24\n      jump\t// in\n    tag_79:\n      0x20\n      mload(0x40)\n      dup1\n      dup4\n      sub\n      dup2\n      dup7\n      gas\n      staticcall\n      iszero\n      dup1\n      iszero\n      tag_81\n      jumpi\n      returndatasize\n      0x00\n      dup1\n      returndatacopy\n      revert(0x00, returndatasize)\n    tag_81:\n      pop\n      pop\n      pop\n      pop\n      mload(0x40)\n      returndatasize\n      not(0x1f)\n      0x1f\n      dup3\n      add\n      and\n      dup3\n      add\n      dup1\n      0x40\n      mstore\n      pop\n      dup2\n      add\n      swap1\n      tag_82\n      swap2\n      swap1\n      tag_57\n      jump\t// in\n    tag_82:\n        /* \"contracts_rename/interfaces/PeripheryPayments.sol\":1063:1124  uint256 balanceToken = IERC20(token).balanceOf(address(this)) */\n      swap1\n      pop\n        /* \"contracts_rename/interfaces/PeripheryPayments.sol\":1159:1172  amountMinimum */\n      dup3\n        /* \"contracts_rename/interfaces/PeripheryPayments.sol\":1143:1155  balanceToken */\n      dup2\n        /* \"contracts_rename/interfaces/PeripheryPayments.sol\":1143:1172  balanceToken >= amountMinimum */\n      lt\n      iszero\n        /* \"contracts_rename/interfaces/PeripheryPayments.sol\":1135:1195  require(balanceToken >= amountMinimum, 'Insufficient token') */\n      tag_83\n      jumpi\n      mload(0x40)\n      0x08c379a000000000000000000000000000000000000000000000000000000000\n      dup2\n      mstore\n      0x04\n      add\n      tag_84\n      swap1\n      tag_85\n      jump\t// in\n    tag_84:\n      mload(0x40)\n      dup1\n      swap2\n      sub\n      swap1\n      revert\n    tag_83:\n        /* \"contracts_rename/interfaces/PeripheryPayments.sol\":1227:1228  0 */\n      0x00\n        /* \"contracts_rename/interfaces/PeripheryPayments.sol\":1212:1224  balanceToken */\n      dup2\n        /* \"contracts_rename/interfaces/PeripheryPayments.sol\":1212:1228  balanceToken > 0 */\n      gt\n        /* \"contracts_rename/interfaces/PeripheryPayments.sol\":1208:1322  if (balanceToken > 0) {... */\n      iszero\n      tag_86\n      jumpi\n        /* \"contracts_rename/interfaces/PeripheryPayments.sol\":1245:1310  CustomTransferHelper.safeTransfer(token, recipient, balanceToken) */\n      tag_87\n        /* \"contracts_rename/interfaces/PeripheryPayments.sol\":1279:1284  token */\n      dup5\n        /* \"contracts_rename/interfaces/PeripheryPayments.sol\":1286:1295  recipient */\n      dup4\n        /* \"contracts_rename/interfaces/PeripheryPayments.sol\":1297:1309  balanceToken */\n      dup4\n        /* \"contracts_rename/interfaces/PeripheryPayments.sol\":1245:1278  CustomTransferHelper.safeTransfer */\n      tag_88\n        /* \"contracts_rename/interfaces/PeripheryPayments.sol\":1245:1310  CustomTransferHelper.safeTransfer(token, recipient, balanceToken) */\n      jump\t// in\n    tag_87:\n        /* \"contracts_rename/interfaces/PeripheryPayments.sol\":1208:1322  if (balanceToken > 0) {... */\n    tag_86:\n        /* \"contracts_rename/interfaces/PeripheryPayments.sol\":1052:1329  {... */\n      pop\n        /* \"contracts_rename/interfaces/PeripheryPayments.sol\":917:1329  function sweepToken(... */\n      pop\n      pop\n      pop\n      jump\t// out\n        /* \"contracts_rename/FlashLoan.sol\":1987:5181  function uniswapV3FlashCallback(... */\n    tag_47:\n        /* \"contracts_rename/FlashLoan.sol\":2131:2163  FlashCallbackData memory decoded */\n      0x00\n        /* \"contracts_rename/FlashLoan.sol\":2177:2181  data */\n      dup3\n      dup3\n        /* \"contracts_rename/FlashLoan.sol\":2166:2203  abi.decode(data, (FlashCallbackData)) */\n      dup2\n      add\n      swap1\n      tag_90\n      swap2\n      swap1\n      tag_91\n      jump\t// in\n    tag_90:\n        /* \"contracts_rename/FlashLoan.sol\":2131:2203  FlashCallbackData memory decoded = abi.decode(data, (FlashCallbackData)) */\n      swap1\n      pop\n        /* \"contracts_rename/FlashLoan.sol\":2214:2273  CallbackValidation.verifyCallback(factory, decoded.poolKey) */\n      tag_92\n        /* \"contracts_rename/FlashLoan.sol\":2248:2255  factory */\n      immutable(\"0xca38719a2a201dc5ea81fbb3263fbdc427c0061a109dbff8c83ff2e8b01f39f7\")\n        /* \"contracts_rename/FlashLoan.sol\":2257:2264  decoded */\n      dup3\n        /* \"contracts_rename/FlashLoan.sol\":2257:2272  decoded.poolKey */\n      0x60\n      add\n      mload\n        /* \"contracts_rename/FlashLoan.sol\":2214:2247  CallbackValidation.verifyCallback */\n      tag_93\n        /* \"contracts_rename/FlashLoan.sol\":2214:2273  CallbackValidation.verifyCallback(factory, decoded.poolKey) */\n      jump\t// in\n    tag_92:\n      pop\n        /* \"contracts_rename/FlashLoan.sol\":2286:2300  address token0 */\n      0x00\n        /* \"contracts_rename/FlashLoan.sol\":2303:2310  decoded */\n      dup2\n        /* \"contracts_rename/FlashLoan.sol\":2303:2318  decoded.poolKey */\n      0x60\n      add\n      mload\n        /* \"contracts_rename/FlashLoan.sol\":2303:2325  decoded.poolKey.token0 */\n      0x00\n      add\n      mload\n        /* \"contracts_rename/FlashLoan.sol\":2286:2325  address token0 = decoded.poolKey.token0 */\n      swap1\n      pop\n        /* \"contracts_rename/FlashLoan.sol\":2336:2350  address token1 */\n      0x00\n        /* \"contracts_rename/FlashLoan.sol\":2353:2360  decoded */\n      dup3\n        /* \"contracts_rename/FlashLoan.sol\":2353:2368  decoded.poolKey */\n      0x60\n      add\n      mload\n        /* \"contracts_rename/FlashLoan.sol\":2353:2375  decoded.poolKey.token1 */\n      0x20\n      add\n      mload\n        /* \"contracts_rename/FlashLoan.sol\":2336:2375  address token1 = decoded.poolKey.token1 */\n      swap1\n      pop\n        /* \"contracts_rename/FlashLoan.sol\":2388:2466  CustomTransferHelper.safeApprove(token0, address(swapRouter), decoded.amount0) */\n      tag_94\n        /* \"contracts_rename/FlashLoan.sol\":2421:2427  token0 */\n      dup3\n        /* \"contracts_rename/FlashLoan.sol\":2437:2447  swapRouter */\n      immutable(\"0xa0eca6753fe875977fae7412373db297f3c521f0c3974df73aec87123c16e827\")\n        /* \"contracts_rename/FlashLoan.sol\":2450:2457  decoded */\n      dup6\n        /* \"contracts_rename/FlashLoan.sol\":2450:2465  decoded.amount0 */\n      0x00\n      add\n      mload\n        /* \"contracts_rename/FlashLoan.sol\":2388:2420  CustomTransferHelper.safeApprove */\n      tag_95\n        /* \"contracts_rename/FlashLoan.sol\":2388:2466  CustomTransferHelper.safeApprove(token0, address(swapRouter), decoded.amount0) */\n      jump\t// in\n    tag_94:\n        /* \"contracts_rename/FlashLoan.sol\":2477:2555  CustomTransferHelper.safeApprove(token1, address(swapRouter), decoded.amount1) */\n      tag_96\n        /* \"contracts_rename/FlashLoan.sol\":2510:2516  token1 */\n      dup2\n        /* \"contracts_rename/FlashLoan.sol\":2526:2536  swapRouter */\n      immutable(\"0xa0eca6753fe875977fae7412373db297f3c521f0c3974df73aec87123c16e827\")\n        /* \"contracts_rename/FlashLoan.sol\":2539:2546  decoded */\n      dup6\n        /* \"contracts_rename/FlashLoan.sol\":2539:2554  decoded.amount1 */\n      0x20\n      add\n      mload\n        /* \"contracts_rename/FlashLoan.sol\":2477:2509  CustomTransferHelper.safeApprove */\n      tag_95\n        /* \"contracts_rename/FlashLoan.sol\":2477:2555  CustomTransferHelper.safeApprove(token1, address(swapRouter), decoded.amount1) */\n      jump\t// in\n    tag_96:\n        /* \"contracts_rename/FlashLoan.sol\":2659:2677  uint256 amount1Min */\n      0x00\n        /* \"contracts_rename/FlashLoan.sol\":2680:2721  LowGasSafeMath.add(decoded.amount1, fee1) */\n      tag_97\n        /* \"contracts_rename/FlashLoan.sol\":2699:2706  decoded */\n      dup5\n        /* \"contracts_rename/FlashLoan.sol\":2699:2714  decoded.amount1 */\n      0x20\n      add\n      mload\n        /* \"contracts_rename/FlashLoan.sol\":2716:2720  fee1 */\n      dup9\n        /* \"contracts_rename/FlashLoan.sol\":2680:2698  LowGasSafeMath.add */\n      tag_98\n        /* \"contracts_rename/FlashLoan.sol\":2680:2721  LowGasSafeMath.add(decoded.amount1, fee1) */\n      jump\t// in\n    tag_97:\n        /* \"contracts_rename/FlashLoan.sol\":2659:2721  uint256 amount1Min = LowGasSafeMath.add(decoded.amount1, fee1) */\n      swap1\n      pop\n        /* \"contracts_rename/FlashLoan.sol\":2732:2750  uint256 amount0Min */\n      0x00\n        /* \"contracts_rename/FlashLoan.sol\":2753:2794  LowGasSafeMath.add(decoded.amount0, fee0) */\n      tag_99\n        /* \"contracts_rename/FlashLoan.sol\":2772:2779  decoded */\n      dup6\n        /* \"contracts_rename/FlashLoan.sol\":2772:2787  decoded.amount0 */\n      0x00\n      add\n      mload\n        /* \"contracts_rename/FlashLoan.sol\":2789:2793  fee0 */\n      dup11\n        /* \"contracts_rename/FlashLoan.sol\":2753:2771  LowGasSafeMath.add */\n      tag_98\n        /* \"contracts_rename/FlashLoan.sol\":2753:2794  LowGasSafeMath.add(decoded.amount0, fee0) */\n      jump\t// in\n    tag_99:\n        /* \"contracts_rename/FlashLoan.sol\":2732:2794  uint256 amount0Min = LowGasSafeMath.add(decoded.amount0, fee0) */\n      swap1\n      pop\n        /* \"contracts_rename/FlashLoan.sol\":2887:2905  uint256 amountOut0 */\n      0x00\n        /* \"contracts_rename/FlashLoan.sol\":2921:2931  swapRouter */\n      immutable(\"0xa0eca6753fe875977fae7412373db297f3c521f0c3974df73aec87123c16e827\")\n        /* \"contracts_rename/FlashLoan.sol\":2921:2948  swapRouter.exactInputSingle */\n      0xffffffffffffffffffffffffffffffffffffffff\n      and\n      0x414bf389\n        /* \"contracts_rename/FlashLoan.sol\":2967:3380  ISwapRouter.ExactInputSingleParams({... */\n      mload(0x40)\n      dup1\n      0x0100\n      add\n      0x40\n      mstore\n      dup1\n        /* \"contracts_rename/FlashLoan.sol\":3034:3040  token1 */\n      dup8\n        /* \"contracts_rename/FlashLoan.sol\":2967:3380  ISwapRouter.ExactInputSingleParams({... */\n      0xffffffffffffffffffffffffffffffffffffffff\n      and\n      dup2\n      mstore\n      0x20\n      add\n        /* \"contracts_rename/FlashLoan.sol\":3073:3079  token0 */\n      dup9\n        /* \"contracts_rename/FlashLoan.sol\":2967:3380  ISwapRouter.ExactInputSingleParams({... */\n      0xffffffffffffffffffffffffffffffffffffffff\n      and\n      dup2\n      mstore\n      0x20\n      add\n        /* \"contracts_rename/FlashLoan.sol\":3107:3114  decoded */\n      dup10\n        /* \"contracts_rename/FlashLoan.sol\":3107:3123  decoded.poolFee2 */\n      0x80\n      add\n      mload\n        /* \"contracts_rename/FlashLoan.sol\":2967:3380  ISwapRouter.ExactInputSingleParams({... */\n      0xffffff\n      and\n      dup2\n      mstore\n      0x20\n      add\n        /* \"contracts_rename/FlashLoan.sol\":3165:3169  this */\n      address\n        /* \"contracts_rename/FlashLoan.sol\":2967:3380  ISwapRouter.ExactInputSingleParams({... */\n      0xffffffffffffffffffffffffffffffffffffffff\n      and\n      dup2\n      mstore\n      0x20\n      add\n        /* \"contracts_rename/FlashLoan.sol\":3203:3218  block.timestamp */\n      timestamp\n        /* \"contracts_rename/FlashLoan.sol\":2967:3380  ISwapRouter.ExactInputSingleParams({... */\n      dup2\n      mstore\n      0x20\n      add\n        /* \"contracts_rename/FlashLoan.sol\":3251:3258  decoded */\n      dup10\n        /* \"contracts_rename/FlashLoan.sol\":3251:3266  decoded.amount1 */\n      0x20\n      add\n      mload\n        /* \"contracts_rename/FlashLoan.sol\":2967:3380  ISwapRouter.ExactInputSingleParams({... */\n      dup2\n      mstore\n      0x20\n      add\n        /* \"contracts_rename/FlashLoan.sol\":3307:3317  amount0Min */\n      dup6\n        /* \"contracts_rename/FlashLoan.sol\":2967:3380  ISwapRouter.ExactInputSingleParams({... */\n      dup2\n      mstore\n      0x20\n      add\n        /* \"contracts_rename/FlashLoan.sol\":3359:3360  0 */\n      0x00\n        /* \"contracts_rename/FlashLoan.sol\":2967:3380  ISwapRouter.ExactInputSingleParams({... */\n      0xffffffffffffffffffffffffffffffffffffffff\n      and\n      dup2\n      mstore\n      pop\n        /* \"contracts_rename/FlashLoan.sol\":2921:3395  swapRouter.exactInputSingle(... */\n      mload(0x40)\n      dup3\n      0xffffffff\n      and\n      0xe0\n      shl\n      dup2\n      mstore\n      0x04\n      add\n      tag_100\n      swap2\n      swap1\n      tag_101\n      jump\t// in\n    tag_100:\n      0x20\n      mload(0x40)\n      dup1\n      dup4\n      sub\n      dup2\n      0x00\n      dup8\n      gas\n      call\n      iszero\n      dup1\n      iszero\n      tag_103\n      jumpi\n      returndatasize\n      0x00\n      dup1\n      returndatacopy\n      revert(0x00, returndatasize)\n    tag_103:\n      pop\n      pop\n      pop\n      pop\n      mload(0x40)\n      returndatasize\n      not(0x1f)\n      0x1f\n      dup3\n      add\n      and\n      dup3\n      add\n      dup1\n      0x40\n      mstore\n      pop\n      dup2\n      add\n      swap1\n      tag_104\n      swap2\n      swap1\n      tag_57\n      jump\t// in\n    tag_104:\n        /* \"contracts_rename/FlashLoan.sol\":2887:3395  uint256 amountOut0 =... */\n      swap1\n      pop\n        /* \"contracts_rename/FlashLoan.sol\":3489:3507  uint256 amountOut1 */\n      0x00\n        /* \"contracts_rename/FlashLoan.sol\":3523:3533  swapRouter */\n      immutable(\"0xa0eca6753fe875977fae7412373db297f3c521f0c3974df73aec87123c16e827\")\n        /* \"contracts_rename/FlashLoan.sol\":3523:3550  swapRouter.exactInputSingle */\n      0xffffffffffffffffffffffffffffffffffffffff\n      and\n      0x414bf389\n        /* \"contracts_rename/FlashLoan.sol\":3569:3982  ISwapRouter.ExactInputSingleParams({... */\n      mload(0x40)\n      dup1\n      0x0100\n      add\n      0x40\n      mstore\n      dup1\n        /* \"contracts_rename/FlashLoan.sol\":3636:3642  token0 */\n      dup10\n        /* \"contracts_rename/FlashLoan.sol\":3569:3982  ISwapRouter.ExactInputSingleParams({... */\n      0xffffffffffffffffffffffffffffffffffffffff\n      and\n      dup2\n      mstore\n      0x20\n      add\n        /* \"contracts_rename/FlashLoan.sol\":3675:3681  token1 */\n      dup9\n        /* \"contracts_rename/FlashLoan.sol\":3569:3982  ISwapRouter.ExactInputSingleParams({... */\n      0xffffffffffffffffffffffffffffffffffffffff\n      and\n      dup2\n      mstore\n      0x20\n      add\n        /* \"contracts_rename/FlashLoan.sol\":3709:3716  decoded */\n      dup11\n        /* \"contracts_rename/FlashLoan.sol\":3709:3725  decoded.poolFee3 */\n      0xa0\n      add\n      mload\n        /* \"contracts_rename/FlashLoan.sol\":3569:3982  ISwapRouter.ExactInputSingleParams({... */\n      0xffffff\n      and\n      dup2\n      mstore\n      0x20\n      add\n        /* \"contracts_rename/FlashLoan.sol\":3767:3771  this */\n      address\n        /* \"contracts_rename/FlashLoan.sol\":3569:3982  ISwapRouter.ExactInputSingleParams({... */\n      0xffffffffffffffffffffffffffffffffffffffff\n      and\n      dup2\n      mstore\n      0x20\n      add\n        /* \"contracts_rename/FlashLoan.sol\":3805:3820  block.timestamp */\n      timestamp\n        /* \"contracts_rename/FlashLoan.sol\":3569:3982  ISwapRouter.ExactInputSingleParams({... */\n      dup2\n      mstore\n      0x20\n      add\n        /* \"contracts_rename/FlashLoan.sol\":3853:3860  decoded */\n      dup11\n        /* \"contracts_rename/FlashLoan.sol\":3853:3868  decoded.amount0 */\n      0x00\n      add\n      mload\n        /* \"contracts_rename/FlashLoan.sol\":3569:3982  ISwapRouter.ExactInputSingleParams({... */\n      dup2\n      mstore\n      0x20\n      add\n        /* \"contracts_rename/FlashLoan.sol\":3909:3919  amount1Min */\n      dup8\n        /* \"contracts_rename/FlashLoan.sol\":3569:3982  ISwapRouter.ExactInputSingleParams({... */\n      dup2\n      mstore\n      0x20\n      add\n        /* \"contracts_rename/FlashLoan.sol\":3961:3962  0 */\n      0x00\n        /* \"contracts_rename/FlashLoan.sol\":3569:3982  ISwapRouter.ExactInputSingleParams({... */\n      0xffffffffffffffffffffffffffffffffffffffff\n      and\n      dup2\n      mstore\n      pop\n        /* \"contracts_rename/FlashLoan.sol\":3523:3997  swapRouter.exactInputSingle(... */\n      mload(0x40)\n      dup3\n      0xffffffff\n      and\n      0xe0\n      shl\n      dup2\n      mstore\n      0x04\n      add\n      tag_105\n      swap2\n      swap1\n      tag_101\n      jump\t// in\n    tag_105:\n      0x20\n      mload(0x40)\n      dup1\n      dup4\n      sub\n      dup2\n      0x00\n      dup8\n      gas\n      call\n      iszero\n      dup1\n      iszero\n      tag_107\n      jumpi\n      returndatasize\n      0x00\n      dup1\n      returndatacopy\n      revert(0x00, returndatasize)\n    tag_107:\n      pop\n      pop\n      pop\n      pop\n      mload(0x40)\n      returndatasize\n      not(0x1f)\n      0x1f\n      dup3\n      add\n      and\n      dup3\n      add\n      dup1\n      0x40\n      mstore\n      pop\n      dup2\n      add\n      swap1\n      tag_108\n      swap2\n      swap1\n      tag_57\n      jump\t// in\n    tag_108:\n        /* \"contracts_rename/FlashLoan.sol\":3489:3997  uint256 amountOut1 =... */\n      swap1\n      pop\n        /* \"contracts_rename/FlashLoan.sol\":4113:4132  uint256 amount0Owed */\n      0x00\n        /* \"contracts_rename/FlashLoan.sol\":4135:4176  LowGasSafeMath.add(decoded.amount0, fee0) */\n      tag_109\n        /* \"contracts_rename/FlashLoan.sol\":4154:4161  decoded */\n      dup9\n        /* \"contracts_rename/FlashLoan.sol\":4154:4169  decoded.amount0 */\n      0x00\n      add\n      mload\n        /* \"contracts_rename/FlashLoan.sol\":4171:4175  fee0 */\n      dup14\n        /* \"contracts_rename/FlashLoan.sol\":4135:4153  LowGasSafeMath.add */\n      tag_98\n        /* \"contracts_rename/FlashLoan.sol\":4135:4176  LowGasSafeMath.add(decoded.amount0, fee0) */\n      jump\t// in\n    tag_109:\n        /* \"contracts_rename/FlashLoan.sol\":4113:4176  uint256 amount0Owed = LowGasSafeMath.add(decoded.amount0, fee0) */\n      swap1\n      pop\n        /* \"contracts_rename/FlashLoan.sol\":4187:4206  uint256 amount1Owed */\n      0x00\n        /* \"contracts_rename/FlashLoan.sol\":4209:4250  LowGasSafeMath.add(decoded.amount1, fee1) */\n      tag_110\n        /* \"contracts_rename/FlashLoan.sol\":4228:4235  decoded */\n      dup10\n        /* \"contracts_rename/FlashLoan.sol\":4228:4243  decoded.amount1 */\n      0x20\n      add\n      mload\n        /* \"contracts_rename/FlashLoan.sol\":4245:4249  fee1 */\n      dup14\n        /* \"contracts_rename/FlashLoan.sol\":4209:4227  LowGasSafeMath.add */\n      tag_98\n        /* \"contracts_rename/FlashLoan.sol\":4209:4250  LowGasSafeMath.add(decoded.amount1, fee1) */\n      jump\t// in\n    tag_110:\n        /* \"contracts_rename/FlashLoan.sol\":4187:4250  uint256 amount1Owed = LowGasSafeMath.add(decoded.amount1, fee1) */\n      swap1\n      pop\n        /* \"contracts_rename/FlashLoan.sol\":4263:4331  CustomTransferHelper.safeApprove(token0, address(this), amount0Owed) */\n      tag_111\n        /* \"contracts_rename/FlashLoan.sol\":4296:4302  token0 */\n      dup9\n        /* \"contracts_rename/FlashLoan.sol\":4312:4316  this */\n      address\n        /* \"contracts_rename/FlashLoan.sol\":4319:4330  amount0Owed */\n      dup5\n        /* \"contracts_rename/FlashLoan.sol\":4263:4295  CustomTransferHelper.safeApprove */\n      tag_95\n        /* \"contracts_rename/FlashLoan.sol\":4263:4331  CustomTransferHelper.safeApprove(token0, address(this), amount0Owed) */\n      jump\t// in\n    tag_111:\n        /* \"contracts_rename/FlashLoan.sol\":4342:4410  CustomTransferHelper.safeApprove(token1, address(this), amount1Owed) */\n      tag_112\n        /* \"contracts_rename/FlashLoan.sol\":4375:4381  token1 */\n      dup8\n        /* \"contracts_rename/FlashLoan.sol\":4391:4395  this */\n      address\n        /* \"contracts_rename/FlashLoan.sol\":4398:4409  amount1Owed */\n      dup4\n        /* \"contracts_rename/FlashLoan.sol\":4342:4374  CustomTransferHelper.safeApprove */\n      tag_95\n        /* \"contracts_rename/FlashLoan.sol\":4342:4410  CustomTransferHelper.safeApprove(token1, address(this), amount1Owed) */\n      jump\t// in\n    tag_112:\n        /* \"contracts_rename/FlashLoan.sol\":4441:4442  0 */\n      0x00\n        /* \"contracts_rename/FlashLoan.sol\":4427:4438  amount0Owed */\n      dup3\n        /* \"contracts_rename/FlashLoan.sol\":4427:4442  amount0Owed > 0 */\n      gt\n        /* \"contracts_rename/FlashLoan.sol\":4423:4495  if (amount0Owed > 0) pay(token0, address(this), msg.sender, amount0Owed) */\n      iszero\n      tag_113\n      jumpi\n        /* \"contracts_rename/FlashLoan.sol\":4444:4495  pay(token0, address(this), msg.sender, amount0Owed) */\n      tag_114\n        /* \"contracts_rename/FlashLoan.sol\":4448:4454  token0 */\n      dup9\n        /* \"contracts_rename/FlashLoan.sol\":4464:4468  this */\n      address\n        /* \"contracts_rename/FlashLoan.sol\":4471:4481  msg.sender */\n      caller\n        /* \"contracts_rename/FlashLoan.sol\":4483:4494  amount0Owed */\n      dup6\n        /* \"contracts_rename/FlashLoan.sol\":4444:4447  pay */\n      tag_115\n        /* \"contracts_rename/FlashLoan.sol\":4444:4495  pay(token0, address(this), msg.sender, amount0Owed) */\n      jump\t// in\n    tag_114:\n        /* \"contracts_rename/FlashLoan.sol\":4423:4495  if (amount0Owed > 0) pay(token0, address(this), msg.sender, amount0Owed) */\n    tag_113:\n        /* \"contracts_rename/FlashLoan.sol\":4524:4525  0 */\n      0x00\n        /* \"contracts_rename/FlashLoan.sol\":4510:4521  amount1Owed */\n      dup2\n        /* \"contracts_rename/FlashLoan.sol\":4510:4525  amount1Owed > 0 */\n      gt\n        /* \"contracts_rename/FlashLoan.sol\":4506:4578  if (amount1Owed > 0) pay(token1, address(this), msg.sender, amount1Owed) */\n      iszero\n      tag_116\n      jumpi\n        /* \"contracts_rename/FlashLoan.sol\":4527:4578  pay(token1, address(this), msg.sender, amount1Owed) */\n      tag_117\n        /* \"contracts_rename/FlashLoan.sol\":4531:4537  token1 */\n      dup8\n        /* \"contracts_rename/FlashLoan.sol\":4547:4551  this */\n      address\n        /* \"contracts_rename/FlashLoan.sol\":4554:4564  msg.sender */\n      caller\n        /* \"contracts_rename/FlashLoan.sol\":4566:4577  amount1Owed */\n      dup5\n        /* \"contracts_rename/FlashLoan.sol\":4527:4530  pay */\n      tag_115\n        /* \"contracts_rename/FlashLoan.sol\":4527:4578  pay(token1, address(this), msg.sender, amount1Owed) */\n      jump\t// in\n    tag_117:\n        /* \"contracts_rename/FlashLoan.sol\":4506:4578  if (amount1Owed > 0) pay(token1, address(this), msg.sender, amount1Owed) */\n    tag_116:\n        /* \"contracts_rename/FlashLoan.sol\":4655:4666  amount0Owed */\n      dup2\n        /* \"contracts_rename/FlashLoan.sol\":4642:4652  amountOut0 */\n      dup5\n        /* \"contracts_rename/FlashLoan.sol\":4642:4666  amountOut0 > amount0Owed */\n      gt\n        /* \"contracts_rename/FlashLoan.sol\":4638:4902  if (amountOut0 > amount0Owed) {... */\n      iszero\n      tag_118\n      jumpi\n        /* \"contracts_rename/FlashLoan.sol\":4683:4698  uint256 profit0 */\n      0x00\n        /* \"contracts_rename/FlashLoan.sol\":4701:4744  LowGasSafeMath.sub(amountOut0, amount0Owed) */\n      tag_119\n        /* \"contracts_rename/FlashLoan.sol\":4720:4730  amountOut0 */\n      dup6\n        /* \"contracts_rename/FlashLoan.sol\":4732:4743  amount0Owed */\n      dup5\n        /* \"contracts_rename/FlashLoan.sol\":4701:4719  LowGasSafeMath.sub */\n      tag_120\n        /* \"contracts_rename/FlashLoan.sol\":4701:4744  LowGasSafeMath.sub(amountOut0, amount0Owed) */\n      jump\t// in\n    tag_119:\n        /* \"contracts_rename/FlashLoan.sol\":4683:4744  uint256 profit0 = LowGasSafeMath.sub(amountOut0, amount0Owed) */\n      swap1\n      pop\n        /* \"contracts_rename/FlashLoan.sol\":4761:4825  CustomTransferHelper.safeApprove(token0, address(this), profit0) */\n      tag_121\n        /* \"contracts_rename/FlashLoan.sol\":4794:4800  token0 */\n      dup10\n        /* \"contracts_rename/FlashLoan.sol\":4810:4814  this */\n      address\n        /* \"contracts_rename/FlashLoan.sol\":4817:4824  profit0 */\n      dup4\n        /* \"contracts_rename/FlashLoan.sol\":4761:4793  CustomTransferHelper.safeApprove */\n      tag_95\n        /* \"contracts_rename/FlashLoan.sol\":4761:4825  CustomTransferHelper.safeApprove(token0, address(this), profit0) */\n      jump\t// in\n    tag_121:\n        /* \"contracts_rename/FlashLoan.sol\":4840:4890  pay(token0, address(this), decoded.payer, profit0) */\n      tag_122\n        /* \"contracts_rename/FlashLoan.sol\":4844:4850  token0 */\n      dup10\n        /* \"contracts_rename/FlashLoan.sol\":4860:4864  this */\n      address\n        /* \"contracts_rename/FlashLoan.sol\":4867:4874  decoded */\n      dup13\n        /* \"contracts_rename/FlashLoan.sol\":4867:4880  decoded.payer */\n      0x40\n      add\n      mload\n        /* \"contracts_rename/FlashLoan.sol\":4882:4889  profit0 */\n      dup5\n        /* \"contracts_rename/FlashLoan.sol\":4840:4843  pay */\n      tag_115\n        /* \"contracts_rename/FlashLoan.sol\":4840:4890  pay(token0, address(this), decoded.payer, profit0) */\n      jump\t// in\n    tag_122:\n        /* \"contracts_rename/FlashLoan.sol\":4668:4902  {... */\n      pop\n        /* \"contracts_rename/FlashLoan.sol\":4638:4902  if (amountOut0 > amount0Owed) {... */\n    tag_118:\n        /* \"contracts_rename/FlashLoan.sol\":4929:4940  amount1Owed */\n      dup1\n        /* \"contracts_rename/FlashLoan.sol\":4916:4926  amountOut1 */\n      dup4\n        /* \"contracts_rename/FlashLoan.sol\":4916:4940  amountOut1 > amount1Owed */\n      gt\n        /* \"contracts_rename/FlashLoan.sol\":4912:5174  if (amountOut1 > amount1Owed) {... */\n      iszero\n      tag_123\n      jumpi\n        /* \"contracts_rename/FlashLoan.sol\":4957:4972  uint256 profit1 */\n      0x00\n        /* \"contracts_rename/FlashLoan.sol\":4975:5018  LowGasSafeMath.sub(amountOut1, amount1Owed) */\n      tag_124\n        /* \"contracts_rename/FlashLoan.sol\":4994:5004  amountOut1 */\n      dup5\n        /* \"contracts_rename/FlashLoan.sol\":5006:5017  amount1Owed */\n      dup4\n        /* \"contracts_rename/FlashLoan.sol\":4975:4993  LowGasSafeMath.sub */\n      tag_120\n        /* \"contracts_rename/FlashLoan.sol\":4975:5018  LowGasSafeMath.sub(amountOut1, amount1Owed) */\n      jump\t// in\n    tag_124:\n        /* \"contracts_rename/FlashLoan.sol\":4957:5018  uint256 profit1 = LowGasSafeMath.sub(amountOut1, amount1Owed) */\n      swap1\n      pop\n        /* \"contracts_rename/FlashLoan.sol\":5033:5097  CustomTransferHelper.safeApprove(token0, address(this), profit1) */\n      tag_125\n        /* \"contracts_rename/FlashLoan.sol\":5066:5072  token0 */\n      dup10\n        /* \"contracts_rename/FlashLoan.sol\":5082:5086  this */\n      address\n        /* \"contracts_rename/FlashLoan.sol\":5089:5096  profit1 */\n      dup4\n        /* \"contracts_rename/FlashLoan.sol\":5033:5065  CustomTransferHelper.safeApprove */\n      tag_95\n        /* \"contracts_rename/FlashLoan.sol\":5033:5097  CustomTransferHelper.safeApprove(token0, address(this), profit1) */\n      jump\t// in\n    tag_125:\n        /* \"contracts_rename/FlashLoan.sol\":5112:5162  pay(token1, address(this), decoded.payer, profit1) */\n      tag_126\n        /* \"contracts_rename/FlashLoan.sol\":5116:5122  token1 */\n      dup9\n        /* \"contracts_rename/FlashLoan.sol\":5132:5136  this */\n      address\n        /* \"contracts_rename/FlashLoan.sol\":5139:5146  decoded */\n      dup13\n        /* \"contracts_rename/FlashLoan.sol\":5139:5152  decoded.payer */\n      0x40\n      add\n      mload\n        /* \"contracts_rename/FlashLoan.sol\":5154:5161  profit1 */\n      dup5\n        /* \"contracts_rename/FlashLoan.sol\":5112:5115  pay */\n      tag_115\n        /* \"contracts_rename/FlashLoan.sol\":5112:5162  pay(token1, address(this), decoded.payer, profit1) */\n      jump\t// in\n    tag_126:\n        /* \"contracts_rename/FlashLoan.sol\":4942:5174  {... */\n      pop\n        /* \"contracts_rename/FlashLoan.sol\":4912:5174  if (amountOut1 > amount1Owed) {... */\n    tag_123:\n        /* \"contracts_rename/FlashLoan.sol\":2120:5181  {... */\n      pop\n      pop\n      pop\n      pop\n      pop\n      pop\n      pop\n      pop\n      pop\n        /* \"contracts_rename/FlashLoan.sol\":1987:5181  function uniswapV3FlashCallback(... */\n      pop\n      pop\n      pop\n      pop\n      jump\t// out\n        /* \"contracts_rename/interfaces/CustomCustomTransferHelper.sol\":2431:2599  function safeTransferETH(address to, uint256 value) internal {... */\n    tag_51:\n        /* \"contracts_rename/interfaces/CustomCustomTransferHelper.sol\":2504:2516  bool success */\n      0x00\n        /* \"contracts_rename/interfaces/CustomCustomTransferHelper.sol\":2522:2524  to */\n      dup3\n        /* \"contracts_rename/interfaces/CustomCustomTransferHelper.sol\":2522:2529  to.call */\n      0xffffffffffffffffffffffffffffffffffffffff\n      and\n        /* \"contracts_rename/interfaces/CustomCustomTransferHelper.sol\":2537:2542  value */\n      dup3\n        /* \"contracts_rename/interfaces/CustomCustomTransferHelper.sol\":2554:2555  0 */\n      0x00\n        /* \"contracts_rename/interfaces/CustomCustomTransferHelper.sol\":2544:2556  new bytes(0) */\n      0xffffffffffffffff\n      dup2\n      gt\n      iszero\n      tag_128\n      jumpi\n      tag_129\n      tag_130\n      jump\t// in\n    tag_129:\n    tag_128:\n      mload(0x40)\n      swap1\n      dup1\n      dup3\n      mstore\n      dup1\n      0x1f\n      add\n      not(0x1f)\n      and\n      0x20\n      add\n      dup3\n      add\n      0x40\n      mstore\n      dup1\n      iszero\n      tag_131\n      jumpi\n      dup2\n      0x20\n      add\n      0x01\n      dup3\n      mul\n      dup1\n      calldatasize\n      dup4\n      calldatacopy\n      dup1\n      dup3\n      add\n      swap2\n      pop\n      pop\n      swap1\n      pop\n    tag_131:\n      pop\n        /* \"contracts_rename/interfaces/CustomCustomTransferHelper.sol\":2522:2557  to.call{value: value}(new bytes(0)) */\n      mload(0x40)\n      tag_132\n      swap2\n      swap1\n      tag_133\n      jump\t// in\n    tag_132:\n      0x00\n      mload(0x40)\n      dup1\n      dup4\n      sub\n      dup2\n      dup6\n      dup8\n      gas\n      call\n      swap3\n      pop\n      pop\n      pop\n      returndatasize\n      dup1\n      0x00\n      dup2\n      eq\n      tag_136\n      jumpi\n      mload(0x40)\n      swap2\n      pop\n      and(add(returndatasize, 0x3f), not(0x1f))\n      dup3\n      add\n      0x40\n      mstore\n      returndatasize\n      dup3\n      mstore\n      returndatasize\n      0x00\n      0x20\n      dup5\n      add\n      returndatacopy\n      jump(tag_135)\n    tag_136:\n      0x60\n      swap2\n      pop\n    tag_135:\n      pop\n        /* \"contracts_rename/interfaces/CustomCustomTransferHelper.sol\":2503:2557  (bool success, ) = to.call{value: value}(new bytes(0)) */\n      pop\n      swap1\n      pop\n        /* \"contracts_rename/interfaces/CustomCustomTransferHelper.sol\":2576:2583  success */\n      dup1\n        /* \"contracts_rename/interfaces/CustomCustomTransferHelper.sol\":2568:2591  require(success, 'STE') */\n      tag_137\n      jumpi\n      mload(0x40)\n      0x08c379a000000000000000000000000000000000000000000000000000000000\n      dup2\n      mstore\n      0x04\n      add\n      tag_138\n      swap1\n      tag_139\n      jump\t// in\n    tag_138:\n      mload(0x40)\n      dup1\n      swap2\n      sub\n      swap1\n      revert\n    tag_137:\n        /* \"contracts_rename/interfaces/CustomCustomTransferHelper.sol\":2492:2599  {... */\n      pop\n        /* \"contracts_rename/interfaces/CustomCustomTransferHelper.sol\":2431:2599  function safeTransferETH(address to, uint256 value) internal {... */\n      pop\n      pop\n      jump\t// out\n        /* \"contracts_rename/libraries/PoolAddress.sol\":1334:1707  function computeAddress(address factory, PoolKey memory key) internal pure returns (address pool) {... */\n    tag_70:\n        /* \"contracts_rename/libraries/PoolAddress.sol\":1418:1430  address pool */\n      0x00\n        /* \"contracts_rename/libraries/PoolAddress.sol\":1460:1463  key */\n      dup2\n        /* \"contracts_rename/libraries/PoolAddress.sol\":1460:1470  key.token1 */\n      0x20\n      add\n      mload\n        /* \"contracts_rename/libraries/PoolAddress.sol\":1447:1470  key.token0 < key.token1 */\n      0xffffffffffffffffffffffffffffffffffffffff\n      and\n        /* \"contracts_rename/libraries/PoolAddress.sol\":1447:1450  key */\n      dup3\n        /* \"contracts_rename/libraries/PoolAddress.sol\":1447:1457  key.token0 */\n      0x00\n      add\n      mload\n        /* \"contracts_rename/libraries/PoolAddress.sol\":1447:1470  key.token0 < key.token1 */\n      0xffffffffffffffffffffffffffffffffffffffff\n      and\n      lt\n        /* \"contracts_rename/libraries/PoolAddress.sol\":1439:1471  require(key.token0 < key.token1) */\n      tag_141\n      jumpi\n      0x00\n      dup1\n      revert\n    tag_141:\n        /* \"contracts_rename/libraries/PoolAddress.sol\":1478:1490  bytes32 hash */\n      0x00\n        /* \"contracts_rename/libraries/PoolAddress.sol\":1548:1555  factory */\n      dup4\n        /* \"contracts_rename/libraries/PoolAddress.sol\":1587:1590  key */\n      dup4\n        /* \"contracts_rename/libraries/PoolAddress.sol\":1587:1597  key.token0 */\n      0x00\n      add\n      mload\n        /* \"contracts_rename/libraries/PoolAddress.sol\":1599:1602  key */\n      dup5\n        /* \"contracts_rename/libraries/PoolAddress.sol\":1599:1609  key.token1 */\n      0x20\n      add\n      mload\n        /* \"contracts_rename/libraries/PoolAddress.sol\":1611:1614  key */\n      dup6\n        /* \"contracts_rename/libraries/PoolAddress.sol\":1611:1618  key.fee */\n      0x40\n      add\n      mload\n        /* \"contracts_rename/libraries/PoolAddress.sol\":1576:1619  abi.encode(key.token0, key.token1, key.fee) */\n      add(0x20, mload(0x40))\n      tag_142\n      swap4\n      swap3\n      swap2\n      swap1\n      tag_143\n      jump\t// in\n    tag_142:\n      mload(0x40)\n      0x20\n      dup2\n      dup4\n      sub\n      sub\n      dup2\n      mstore\n      swap1\n      0x40\n      mstore\n        /* \"contracts_rename/libraries/PoolAddress.sol\":1566:1620  keccak256(abi.encode(key.token0, key.token1, key.fee)) */\n      dup1\n      mload\n      swap1\n      0x20\n      add\n      keccak256\n        /* \"contracts_rename/libraries/PoolAddress.sol\":244:310  0xe34f199b19b2b4f47f68442619d555527d244f78a3297ea89325f843f87b8b54 */\n      0xe34f199b19b2b4f47f68442619d555527d244f78a3297ea89325f843f87b8b54\n        /* \"contracts_rename/libraries/PoolAddress.sol\":1631:1650  POOL_INIT_CODE_HASH */\n      0x00\n      shl\n        /* \"contracts_rename/libraries/PoolAddress.sol\":1503:1657  abi.encodePacked(... */\n      add(0x20, mload(0x40))\n      tag_144\n      swap4\n      swap3\n      swap2\n      swap1\n      tag_145\n      jump\t// in\n    tag_144:\n      mload(0x40)\n      0x20\n      dup2\n      dup4\n      sub\n      sub\n      dup2\n      mstore\n      swap1\n      0x40\n      mstore\n        /* \"contracts_rename/libraries/PoolAddress.sol\":1493:1658  keccak256(abi.encodePacked(... */\n      dup1\n      mload\n      swap1\n      0x20\n      add\n      keccak256\n        /* \"contracts_rename/libraries/PoolAddress.sol\":1478:1658  bytes32 hash = keccak256(abi.encodePacked(... */\n      swap1\n      pop\n        /* \"contracts_rename/libraries/PoolAddress.sol\":1696:1700  hash */\n      dup1\n        /* \"contracts_rename/libraries/PoolAddress.sol\":1688:1701  uint256(hash) */\n      0x00\n      shr\n        /* \"contracts_rename/libraries/PoolAddress.sol\":1665:1703  pool = address(uint160(uint256(hash))) */\n      swap2\n      pop\n        /* \"contracts_rename/libraries/PoolAddress.sol\":1432:1707  {... */\n      pop\n        /* \"contracts_rename/libraries/PoolAddress.sol\":1334:1707  function computeAddress(address factory, PoolKey memory key) internal pure returns (address pool) {... */\n      swap3\n      swap2\n      pop\n      pop\n      jump\t// out\n        /* \"contracts_rename/interfaces/CustomCustomTransferHelper.sol\":1245:1561  function safeTransfer(... */\n    tag_88:\n        /* \"contracts_rename/interfaces/CustomCustomTransferHelper.sol\":1364:1376  bool success */\n      0x00\n        /* \"contracts_rename/interfaces/CustomCustomTransferHelper.sol\":1378:1395  bytes memory data */\n      dup1\n        /* \"contracts_rename/interfaces/CustomCustomTransferHelper.sol\":1399:1404  token */\n      dup5\n        /* \"contracts_rename/interfaces/CustomCustomTransferHelper.sol\":1399:1409  token.call */\n      0xffffffffffffffffffffffffffffffffffffffff\n      and\n        /* \"contracts_rename/interfaces/CustomCustomTransferHelper.sol\":1433:1457  IERC20.transfer.selector */\n      shl(0xe0, 0xa9059cbb)\n        /* \"contracts_rename/interfaces/CustomCustomTransferHelper.sol\":1459:1461  to */\n      dup6\n        /* \"contracts_rename/interfaces/CustomCustomTransferHelper.sol\":1463:1468  value */\n      dup6\n        /* \"contracts_rename/interfaces/CustomCustomTransferHelper.sol\":1410:1469  abi.encodeWithSelector(IERC20.transfer.selector, to, value) */\n      add(0x24, mload(0x40))\n      tag_147\n      swap3\n      swap2\n      swap1\n      tag_148\n      jump\t// in\n    tag_147:\n      mload(0x40)\n      0x20\n      dup2\n      dup4\n      sub\n      sub\n      dup2\n      mstore\n      swap1\n      0x40\n      mstore\n      swap1\n      not(0xffffffffffffffffffffffffffffffffffffffffffffffffffffffff)\n      and\n      0x20\n      dup3\n      add\n      dup1\n      mload\n      0xffffffffffffffffffffffffffffffffffffffffffffffffffffffff\n      dup4\n      dup2\n      dup4\n      and\n      or\n      dup4\n      mstore\n      pop\n      pop\n      pop\n      pop\n        /* \"contracts_rename/interfaces/CustomCustomTransferHelper.sol\":1399:1470  token.call(abi.encodeWithSelector(IERC20.transfer.selector, to, value)) */\n      mload(0x40)\n      tag_149\n      swap2\n      swap1\n      tag_133\n      jump\t// in\n    tag_149:\n      0x00\n      mload(0x40)\n      dup1\n      dup4\n      sub\n      dup2\n      0x00\n      dup7\n      gas\n      call\n      swap2\n      pop\n      pop\n      returndatasize\n      dup1\n      0x00\n      dup2\n      eq\n      tag_152\n      jumpi\n      mload(0x40)\n      swap2\n      pop\n      and(add(returndatasize, 0x3f), not(0x1f))\n      dup3\n      add\n      0x40\n      mstore\n      returndatasize\n      dup3\n      mstore\n      returndatasize\n      0x00\n      0x20\n      dup5\n      add\n      returndatacopy\n      jump(tag_151)\n    tag_152:\n      0x60\n      swap2\n      pop\n    tag_151:\n      pop\n        /* \"contracts_rename/interfaces/CustomCustomTransferHelper.sol\":1363:1470  (bool success, bytes memory data) = token.call(abi.encodeWithSelector(IERC20.transfer.selector, to, value)) */\n      swap2\n      pop\n      swap2\n      pop\n        /* \"contracts_rename/interfaces/CustomCustomTransferHelper.sol\":1489:1496  success */\n      dup2\n        /* \"contracts_rename/interfaces/CustomCustomTransferHelper.sol\":1489:1546  success && (data.length == 0 || abi.decode(data, (bool))) */\n      dup1\n      iszero\n      tag_153\n      jumpi\n      pop\n        /* \"contracts_rename/interfaces/CustomCustomTransferHelper.sol\":1516:1517  0 */\n      0x00\n        /* \"contracts_rename/interfaces/CustomCustomTransferHelper.sol\":1501:1505  data */\n      dup2\n        /* \"contracts_rename/interfaces/CustomCustomTransferHelper.sol\":1501:1512  data.length */\n      mload\n        /* \"contracts_rename/interfaces/CustomCustomTransferHelper.sol\":1501:1517  data.length == 0 */\n      eq\n        /* \"contracts_rename/interfaces/CustomCustomTransferHelper.sol\":1501:1545  data.length == 0 || abi.decode(data, (bool)) */\n      dup1\n      tag_154\n      jumpi\n      pop\n        /* \"contracts_rename/interfaces/CustomCustomTransferHelper.sol\":1532:1536  data */\n      dup1\n        /* \"contracts_rename/interfaces/CustomCustomTransferHelper.sol\":1521:1545  abi.decode(data, (bool)) */\n      dup1\n      0x20\n      add\n      swap1\n      mload\n      dup2\n      add\n      swap1\n      tag_155\n      swap2\n      swap1\n      tag_156\n      jump\t// in\n    tag_155:\n        /* \"contracts_rename/interfaces/CustomCustomTransferHelper.sol\":1501:1545  data.length == 0 || abi.decode(data, (bool)) */\n    tag_154:\n        /* \"contracts_rename/interfaces/CustomCustomTransferHelper.sol\":1489:1546  success && (data.length == 0 || abi.decode(data, (bool))) */\n    tag_153:\n        /* \"contracts_rename/interfaces/CustomCustomTransferHelper.sol\":1481:1553  require(success && (data.length == 0 || abi.decode(data, (bool))), 'ST') */\n      tag_157\n      jumpi\n      mload(0x40)\n      0x08c379a000000000000000000000000000000000000000000000000000000000\n      dup2\n      mstore\n      0x04\n      add\n      tag_158\n      swap1\n      tag_159\n      jump\t// in\n    tag_158:\n      mload(0x40)\n      dup1\n      swap2\n      sub\n      swap1\n      revert\n    tag_157:\n        /* \"contracts_rename/interfaces/CustomCustomTransferHelper.sol\":1352:1561  {... */\n      pop\n      pop\n        /* \"contracts_rename/interfaces/CustomCustomTransferHelper.sol\":1245:1561  function safeTransfer(... */\n      pop\n      pop\n      pop\n      jump\t// out\n        /* \"contracts_rename/libraries/CallbackValidation.sol\":1218:1504  function verifyCallback(address factory, PoolAddress.PoolKey memory poolKey)... */\n    tag_93:\n        /* \"contracts_rename/libraries/CallbackValidation.sol\":1345:1364  IUniswapV3Pool pool */\n      0x00\n        /* \"contracts_rename/libraries/CallbackValidation.sol\":1404:1448  PoolAddress.computeAddress(factory, poolKey) */\n      tag_161\n        /* \"contracts_rename/libraries/CallbackValidation.sol\":1431:1438  factory */\n      dup4\n        /* \"contracts_rename/libraries/CallbackValidation.sol\":1440:1447  poolKey */\n      dup4\n        /* \"contracts_rename/libraries/CallbackValidation.sol\":1404:1430  PoolAddress.computeAddress */\n      tag_70\n        /* \"contracts_rename/libraries/CallbackValidation.sol\":1404:1448  PoolAddress.computeAddress(factory, poolKey) */\n      jump\t// in\n    tag_161:\n        /* \"contracts_rename/libraries/CallbackValidation.sol\":1382:1449  pool = IUniswapV3Pool(PoolAddress.computeAddress(factory, poolKey)) */\n      swap1\n      pop\n        /* \"contracts_rename/libraries/CallbackValidation.sol\":1490:1494  pool */\n      dup1\n        /* \"contracts_rename/libraries/CallbackValidation.sol\":1468:1495  msg.sender == address(pool) */\n      0xffffffffffffffffffffffffffffffffffffffff\n      and\n        /* \"contracts_rename/libraries/CallbackValidation.sol\":1468:1478  msg.sender */\n      caller\n        /* \"contracts_rename/libraries/CallbackValidation.sol\":1468:1495  msg.sender == address(pool) */\n      0xffffffffffffffffffffffffffffffffffffffff\n      and\n      eq\n        /* \"contracts_rename/libraries/CallbackValidation.sol\":1460:1496  require(msg.sender == address(pool)) */\n      tag_162\n      jumpi\n      0x00\n      dup1\n      revert\n    tag_162:\n        /* \"contracts_rename/libraries/CallbackValidation.sol\":1218:1504  function verifyCallback(address factory, PoolAddress.PoolKey memory poolKey)... */\n      swap3\n      swap2\n      pop\n      pop\n      jump\t// out\n        /* \"contracts_rename/interfaces/CustomCustomTransferHelper.sol\":1921:2235  function safeApprove(... */\n    tag_95:\n        /* \"contracts_rename/interfaces/CustomCustomTransferHelper.sol\":2039:2051  bool success */\n      0x00\n        /* \"contracts_rename/interfaces/CustomCustomTransferHelper.sol\":2053:2070  bytes memory data */\n      dup1\n        /* \"contracts_rename/interfaces/CustomCustomTransferHelper.sol\":2074:2079  token */\n      dup5\n        /* \"contracts_rename/interfaces/CustomCustomTransferHelper.sol\":2074:2084  token.call */\n      0xffffffffffffffffffffffffffffffffffffffff\n      and\n        /* \"contracts_rename/interfaces/CustomCustomTransferHelper.sol\":2108:2131  IERC20.approve.selector */\n      shl(0xe0, 0x095ea7b3)\n        /* \"contracts_rename/interfaces/CustomCustomTransferHelper.sol\":2133:2135  to */\n      dup6\n        /* \"contracts_rename/interfaces/CustomCustomTransferHelper.sol\":2137:2142  value */\n      dup6\n        /* \"contracts_rename/interfaces/CustomCustomTransferHelper.sol\":2085:2143  abi.encodeWithSelector(IERC20.approve.selector, to, value) */\n      add(0x24, mload(0x40))\n      tag_164\n      swap3\n      swap2\n      swap1\n      tag_148\n      jump\t// in\n    tag_164:\n      mload(0x40)\n      0x20\n      dup2\n      dup4\n      sub\n      sub\n      dup2\n      mstore\n      swap1\n      0x40\n      mstore\n      swap1\n      not(0xffffffffffffffffffffffffffffffffffffffffffffffffffffffff)\n      and\n      0x20\n      dup3\n      add\n      dup1\n      mload\n      0xffffffffffffffffffffffffffffffffffffffffffffffffffffffff\n      dup4\n      dup2\n      dup4\n      and\n      or\n      dup4\n      mstore\n      pop\n      pop\n      pop\n      pop\n        /* \"contracts_rename/interfaces/CustomCustomTransferHelper.sol\":2074:2144  token.call(abi.encodeWithSelector(IERC20.approve.selector, to, value)) */\n      mload(0x40)\n      tag_165\n      swap2\n      swap1\n      tag_133\n      jump\t// in\n    tag_165:\n      0x00\n      mload(0x40)\n      dup1\n      dup4\n      sub\n      dup2\n      0x00\n      dup7\n      gas\n      call\n      swap2\n      pop\n      pop\n      returndatasize\n      dup1\n      0x00\n      dup2\n      eq\n      tag_168\n      jumpi\n      mload(0x40)\n      swap2\n      pop\n      and(add(returndatasize, 0x3f), not(0x1f))\n      dup3\n      add\n      0x40\n      mstore\n      returndatasize\n      dup3\n      mstore\n      returndatasize\n      0x00\n      0x20\n      dup5\n      add\n      returndatacopy\n      jump(tag_167)\n    tag_168:\n      0x60\n      swap2\n      pop\n    tag_167:\n      pop\n        /* \"contracts_rename/interfaces/CustomCustomTransferHelper.sol\":2038:2144  (bool success, bytes memory data) = token.call(abi.encodeWithSelector(IERC20.approve.selector, to, value)) */\n      swap2\n      pop\n      swap2\n      pop\n        /* \"contracts_rename/interfaces/CustomCustomTransferHelper.sol\":2163:2170  success */\n      dup2\n        /* \"contracts_rename/interfaces/CustomCustomTransferHelper.sol\":2163:2220  success && (data.length == 0 || abi.decode(data, (bool))) */\n      dup1\n      iszero\n      tag_169\n      jumpi\n      pop\n        /* \"contracts_rename/interfaces/CustomCustomTransferHelper.sol\":2190:2191  0 */\n      0x00\n        /* \"contracts_rename/interfaces/CustomCustomTransferHelper.sol\":2175:2179  data */\n      dup2\n        /* \"contracts_rename/interfaces/CustomCustomTransferHelper.sol\":2175:2186  data.length */\n      mload\n        /* \"contracts_rename/interfaces/CustomCustomTransferHelper.sol\":2175:2191  data.length == 0 */\n      eq\n        /* \"contracts_rename/interfaces/CustomCustomTransferHelper.sol\":2175:2219  data.length == 0 || abi.decode(data, (bool)) */\n      dup1\n      tag_170\n      jumpi\n      pop\n        /* \"contracts_rename/interfaces/CustomCustomTransferHelper.sol\":2206:2210  data */\n      dup1\n        /* \"contracts_rename/interfaces/CustomCustomTransferHelper.sol\":2195:2219  abi.decode(data, (bool)) */\n      dup1\n      0x20\n      add\n      swap1\n      mload\n      dup2\n      add\n      swap1\n      tag_171\n      swap2\n      swap1\n      tag_156\n      jump\t// in\n    tag_171:\n        /* \"contracts_rename/interfaces/CustomCustomTransferHelper.sol\":2175:2219  data.length == 0 || abi.decode(data, (bool)) */\n    tag_170:\n        /* \"contracts_rename/interfaces/CustomCustomTransferHelper.sol\":2163:2220  success && (data.length == 0 || abi.decode(data, (bool))) */\n    tag_169:\n        /* \"contracts_rename/interfaces/CustomCustomTransferHelper.sol\":2155:2227  require(success && (data.length == 0 || abi.decode(data, (bool))), 'SA') */\n      tag_172\n      jumpi\n      mload(0x40)\n      0x08c379a000000000000000000000000000000000000000000000000000000000\n      dup2\n      mstore\n      0x04\n      add\n      tag_173\n      swap1\n      tag_174\n      jump\t// in\n    tag_173:\n      mload(0x40)\n      dup1\n      swap2\n      sub\n      swap1\n      revert\n    tag_172:\n        /* \"contracts_rename/interfaces/CustomCustomTransferHelper.sol\":2027:2235  {... */\n      pop\n      pop\n        /* \"contracts_rename/interfaces/CustomCustomTransferHelper.sol\":1921:2235  function safeApprove(... */\n      pop\n      pop\n      pop\n      jump\t// out\n        /* \"@uniswap/v3-core/contracts/libraries/LowGasSafeMath.sol\":435:546  function add(uint256 x, uint256 y) internal pure returns (uint256 z) {... */\n    tag_98:\n        /* \"@uniswap/v3-core/contracts/libraries/LowGasSafeMath.sol\":493:502  uint256 z */\n      0x00\n        /* \"@uniswap/v3-core/contracts/libraries/LowGasSafeMath.sol\":537:538  x */\n      dup3\n        /* \"@uniswap/v3-core/contracts/libraries/LowGasSafeMath.sol\":531:532  y */\n      dup3\n        /* \"@uniswap/v3-core/contracts/libraries/LowGasSafeMath.sol\":527:528  x */\n      dup5\n        /* \"@uniswap/v3-core/contracts/libraries/LowGasSafeMath.sol\":527:532  x + y */\n      tag_176\n      swap2\n      swap1\n      tag_177\n      jump\t// in\n    tag_176:\n        /* \"@uniswap/v3-core/contracts/libraries/LowGasSafeMath.sol\":523:532  z = x + y */\n      swap2\n      pop\n      dup2\n        /* \"@uniswap/v3-core/contracts/libraries/LowGasSafeMath.sol\":522:538  (z = x + y) >= x */\n      lt\n      iszero\n        /* \"@uniswap/v3-core/contracts/libraries/LowGasSafeMath.sol\":514:539  require((z = x + y) >= x) */\n      tag_178\n      jumpi\n      0x00\n      dup1\n      revert\n    tag_178:\n        /* \"@uniswap/v3-core/contracts/libraries/LowGasSafeMath.sol\":435:546  function add(uint256 x, uint256 y) internal pure returns (uint256 z) {... */\n      swap3\n      swap2\n      pop\n      pop\n      jump\t// out\n        /* \"contracts_rename/interfaces/PeripheryPayments.sol\":1742:2470  function pay(... */\n    tag_115:\n        /* \"contracts_rename/interfaces/PeripheryPayments.sol\":1895:1900  WETH9 */\n      immutable(\"0x535ebbacc766b9aec6eaef74a72c1c73399b3f83af81812ea51294501adf4ccf\")\n        /* \"contracts_rename/interfaces/PeripheryPayments.sol\":1886:1900  token == WETH9 */\n      0xffffffffffffffffffffffffffffffffffffffff\n      and\n        /* \"contracts_rename/interfaces/PeripheryPayments.sol\":1886:1891  token */\n      dup5\n        /* \"contracts_rename/interfaces/PeripheryPayments.sol\":1886:1900  token == WETH9 */\n      0xffffffffffffffffffffffffffffffffffffffff\n      and\n      eq\n        /* \"contracts_rename/interfaces/PeripheryPayments.sol\":1886:1934  token == WETH9 && address(this).balance >= value */\n      dup1\n      iszero\n      tag_180\n      jumpi\n      pop\n        /* \"contracts_rename/interfaces/PeripheryPayments.sol\":1929:1934  value */\n      dup1\n        /* \"contracts_rename/interfaces/PeripheryPayments.sol\":1904:1925  address(this).balance */\n      selfbalance\n        /* \"contracts_rename/interfaces/PeripheryPayments.sol\":1904:1934  address(this).balance >= value */\n      lt\n      iszero\n        /* \"contracts_rename/interfaces/PeripheryPayments.sol\":1886:1934  token == WETH9 && address(this).balance >= value */\n    tag_180:\n        /* \"contracts_rename/interfaces/PeripheryPayments.sol\":1882:2463  if (token == WETH9 && address(this).balance >= value) {... */\n      iszero\n      tag_181\n      jumpi\n        /* \"contracts_rename/interfaces/PeripheryPayments.sol\":1989:1994  WETH9 */\n      immutable(\"0x535ebbacc766b9aec6eaef74a72c1c73399b3f83af81812ea51294501adf4ccf\")\n        /* \"contracts_rename/interfaces/PeripheryPayments.sol\":1982:2003  IWETH9(WETH9).deposit */\n      0xffffffffffffffffffffffffffffffffffffffff\n      and\n      0xd0e30db0\n        /* \"contracts_rename/interfaces/PeripheryPayments.sol\":2011:2016  value */\n      dup3\n        /* \"contracts_rename/interfaces/PeripheryPayments.sol\":1982:2019  IWETH9(WETH9).deposit{value: value}() */\n      mload(0x40)\n      dup3\n      0xffffffff\n      and\n      0xe0\n      shl\n      dup2\n      mstore\n      0x04\n      add\n      0x00\n      mload(0x40)\n      dup1\n      dup4\n      sub\n      dup2\n      dup6\n      dup9\n      dup1\n      extcodesize\n      iszero\n      dup1\n      iszero\n      tag_182\n      jumpi\n      0x00\n      dup1\n      revert\n    tag_182:\n      pop\n      gas\n      call\n      iszero\n      dup1\n      iszero\n      tag_184\n      jumpi\n      returndatasize\n      0x00\n      dup1\n      returndatacopy\n      revert(0x00, returndatasize)\n    tag_184:\n      pop\n      pop\n      pop\n      pop\n      pop\n        /* \"contracts_rename/interfaces/PeripheryPayments.sol\":2076:2081  WETH9 */\n      immutable(\"0x535ebbacc766b9aec6eaef74a72c1c73399b3f83af81812ea51294501adf4ccf\")\n        /* \"contracts_rename/interfaces/PeripheryPayments.sol\":2069:2091  IWETH9(WETH9).transfer */\n      0xffffffffffffffffffffffffffffffffffffffff\n      and\n      0xa9059cbb\n        /* \"contracts_rename/interfaces/PeripheryPayments.sol\":2092:2101  recipient */\n      dup4\n        /* \"contracts_rename/interfaces/PeripheryPayments.sol\":2103:2108  value */\n      dup4\n        /* \"contracts_rename/interfaces/PeripheryPayments.sol\":2069:2109  IWETH9(WETH9).transfer(recipient, value) */\n      mload(0x40)\n      dup4\n      0xffffffff\n      and\n      0xe0\n      shl\n      dup2\n      mstore\n      0x04\n      add\n      tag_185\n      swap3\n      swap2\n      swap1\n      tag_148\n      jump\t// in\n    tag_185:\n      0x20\n      mload(0x40)\n      dup1\n      dup4\n      sub\n      dup2\n      0x00\n      dup8\n      gas\n      call\n      iszero\n      dup1\n      iszero\n      tag_187\n      jumpi\n      returndatasize\n      0x00\n      dup1\n      returndatacopy\n      revert(0x00, returndatasize)\n    tag_187:\n      pop\n      pop\n      pop\n      pop\n      mload(0x40)\n      returndatasize\n      not(0x1f)\n      0x1f\n      dup3\n      add\n      and\n      dup3\n      add\n      dup1\n      0x40\n      mstore\n      pop\n      dup2\n      add\n      swap1\n      tag_188\n      swap2\n      swap1\n      tag_156\n      jump\t// in\n    tag_188:\n      pop\n        /* \"contracts_rename/interfaces/PeripheryPayments.sol\":1882:2463  if (token == WETH9 && address(this).balance >= value) {... */\n      jump(tag_189)\n    tag_181:\n        /* \"contracts_rename/interfaces/PeripheryPayments.sol\":2148:2152  this */\n      address\n        /* \"contracts_rename/interfaces/PeripheryPayments.sol\":2131:2153  payer == address(this) */\n      0xffffffffffffffffffffffffffffffffffffffff\n      and\n        /* \"contracts_rename/interfaces/PeripheryPayments.sol\":2131:2136  payer */\n      dup4\n        /* \"contracts_rename/interfaces/PeripheryPayments.sol\":2131:2153  payer == address(this) */\n      0xffffffffffffffffffffffffffffffffffffffff\n      and\n      sub\n        /* \"contracts_rename/interfaces/PeripheryPayments.sol\":2127:2463  if (payer == address(this)) {... */\n      tag_190\n      jumpi\n        /* \"contracts_rename/interfaces/PeripheryPayments.sol\":2262:2320  CustomTransferHelper.safeTransfer(token, recipient, value) */\n      tag_191\n        /* \"contracts_rename/interfaces/PeripheryPayments.sol\":2296:2301  token */\n      dup5\n        /* \"contracts_rename/interfaces/PeripheryPayments.sol\":2303:2312  recipient */\n      dup4\n        /* \"contracts_rename/interfaces/PeripheryPayments.sol\":2314:2319  value */\n      dup4\n        /* \"contracts_rename/interfaces/PeripheryPayments.sol\":2262:2295  CustomTransferHelper.safeTransfer */\n      tag_88\n        /* \"contracts_rename/interfaces/PeripheryPayments.sol\":2262:2320  CustomTransferHelper.safeTransfer(token, recipient, value) */\n      jump\t// in\n    tag_191:\n        /* \"contracts_rename/interfaces/PeripheryPayments.sol\":2127:2463  if (payer == address(this)) {... */\n      jump(tag_192)\n    tag_190:\n        /* \"contracts_rename/interfaces/PeripheryPayments.sol\":2382:2451  CustomTransferHelper.safeTransferFrom(token, payer, recipient, value) */\n      tag_193\n        /* \"contracts_rename/interfaces/PeripheryPayments.sol\":2420:2425  token */\n      dup5\n        /* \"contracts_rename/interfaces/PeripheryPayments.sol\":2427:2432  payer */\n      dup5\n        /* \"contracts_rename/interfaces/PeripheryPayments.sol\":2434:2443  recipient */\n      dup5\n        /* \"contracts_rename/interfaces/PeripheryPayments.sol\":2445:2450  value */\n      dup5\n        /* \"contracts_rename/interfaces/PeripheryPayments.sol\":2382:2419  CustomTransferHelper.safeTransferFrom */\n      tag_194\n        /* \"contracts_rename/interfaces/PeripheryPayments.sol\":2382:2451  CustomTransferHelper.safeTransferFrom(token, payer, recipient, value) */\n      jump\t// in\n    tag_193:\n        /* \"contracts_rename/interfaces/PeripheryPayments.sol\":2127:2463  if (payer == address(this)) {... */\n    tag_192:\n        /* \"contracts_rename/interfaces/PeripheryPayments.sol\":1882:2463  if (token == WETH9 && address(this).balance >= value) {... */\n    tag_189:\n        /* \"contracts_rename/interfaces/PeripheryPayments.sol\":1742:2470  function pay(... */\n      pop\n      pop\n      pop\n      pop\n      jump\t// out\n        /* \"@uniswap/v3-core/contracts/libraries/LowGasSafeMath.sol\":710:821  function sub(uint256 x, uint256 y) internal pure returns (uint256 z) {... */\n    tag_120:\n        /* \"@uniswap/v3-core/contracts/libraries/LowGasSafeMath.sol\":768:777  uint256 z */\n      0x00\n        /* \"@uniswap/v3-core/contracts/libraries/LowGasSafeMath.sol\":812:813  x */\n      dup3\n        /* \"@uniswap/v3-core/contracts/libraries/LowGasSafeMath.sol\":806:807  y */\n      dup3\n        /* \"@uniswap/v3-core/contracts/libraries/LowGasSafeMath.sol\":802:803  x */\n      dup5\n        /* \"@uniswap/v3-core/contracts/libraries/LowGasSafeMath.sol\":802:807  x - y */\n      tag_196\n      swap2\n      swap1\n      tag_197\n      jump\t// in\n    tag_196:\n        /* \"@uniswap/v3-core/contracts/libraries/LowGasSafeMath.sol\":798:807  z = x - y */\n      swap2\n      pop\n      dup2\n        /* \"@uniswap/v3-core/contracts/libraries/LowGasSafeMath.sol\":797:813  (z = x - y) <= x */\n      gt\n      iszero\n        /* \"@uniswap/v3-core/contracts/libraries/LowGasSafeMath.sol\":789:814  require((z = x - y) <= x) */\n      tag_198\n      jumpi\n      0x00\n      dup1\n      revert\n    tag_198:\n        /* \"@uniswap/v3-core/contracts/libraries/LowGasSafeMath.sol\":710:821  function sub(uint256 x, uint256 y) internal pure returns (uint256 z) {... */\n      swap3\n      swap2\n      pop\n      pop\n      jump\t// out\n        /* \"contracts_rename/interfaces/CustomCustomTransferHelper.sol\":579:946  function safeTransferFrom(... */\n    tag_194:\n        /* \"contracts_rename/interfaces/CustomCustomTransferHelper.sol\":725:737  bool success */\n      0x00\n        /* \"contracts_rename/interfaces/CustomCustomTransferHelper.sol\":739:756  bytes memory data */\n      dup1\n        /* \"contracts_rename/interfaces/CustomCustomTransferHelper.sol\":773:778  token */\n      dup6\n        /* \"contracts_rename/interfaces/CustomCustomTransferHelper.sol\":773:783  token.call */\n      0xffffffffffffffffffffffffffffffffffffffff\n      and\n        /* \"contracts_rename/interfaces/CustomCustomTransferHelper.sol\":807:835  IERC20.transferFrom.selector */\n      shl(0xe0, 0x23b872dd)\n        /* \"contracts_rename/interfaces/CustomCustomTransferHelper.sol\":837:841  from */\n      dup7\n        /* \"contracts_rename/interfaces/CustomCustomTransferHelper.sol\":843:845  to */\n      dup7\n        /* \"contracts_rename/interfaces/CustomCustomTransferHelper.sol\":847:852  value */\n      dup7\n        /* \"contracts_rename/interfaces/CustomCustomTransferHelper.sol\":784:853  abi.encodeWithSelector(IERC20.transferFrom.selector, from, to, value) */\n      add(0x24, mload(0x40))\n      tag_200\n      swap4\n      swap3\n      swap2\n      swap1\n      tag_201\n      jump\t// in\n    tag_200:\n      mload(0x40)\n      0x20\n      dup2\n      dup4\n      sub\n      sub\n      dup2\n      mstore\n      swap1\n      0x40\n      mstore\n      swap1\n      not(0xffffffffffffffffffffffffffffffffffffffffffffffffffffffff)\n      and\n      0x20\n      dup3\n      add\n      dup1\n      mload\n      0xffffffffffffffffffffffffffffffffffffffffffffffffffffffff\n      dup4\n      dup2\n      dup4\n      and\n      or\n      dup4\n      mstore\n      pop\n      pop\n      pop\n      pop\n        /* \"contracts_rename/interfaces/CustomCustomTransferHelper.sol\":773:854  token.call(abi.encodeWithSelector(IERC20.transferFrom.selector, from, to, value)) */\n      mload(0x40)\n      tag_202\n      swap2\n      swap1\n      tag_133\n      jump\t// in\n    tag_202:\n      0x00\n      mload(0x40)\n      dup1\n      dup4\n      sub\n      dup2\n      0x00\n      dup7\n      gas\n      call\n      swap2\n      pop\n      pop\n      returndatasize\n      dup1\n      0x00\n      dup2\n      eq\n      tag_205\n      jumpi\n      mload(0x40)\n      swap2\n      pop\n      and(add(returndatasize, 0x3f), not(0x1f))\n      dup3\n      add\n      0x40\n      mstore\n      returndatasize\n      dup3\n      mstore\n      returndatasize\n      0x00\n      0x20\n      dup5\n      add\n      returndatacopy\n      jump(tag_204)\n    tag_205:\n      0x60\n      swap2\n      pop\n    tag_204:\n      pop\n        /* \"contracts_rename/interfaces/CustomCustomTransferHelper.sol\":724:854  (bool success, bytes memory data) =... */\n      swap2\n      pop\n      swap2\n      pop\n        /* \"contracts_rename/interfaces/CustomCustomTransferHelper.sol\":873:880  success */\n      dup2\n        /* \"contracts_rename/interfaces/CustomCustomTransferHelper.sol\":873:930  success && (data.length == 0 || abi.decode(data, (bool))) */\n      dup1\n      iszero\n      tag_206\n      jumpi\n      pop\n        /* \"contracts_rename/interfaces/CustomCustomTransferHelper.sol\":900:901  0 */\n      0x00\n        /* \"contracts_rename/interfaces/CustomCustomTransferHelper.sol\":885:889  data */\n      dup2\n        /* \"contracts_rename/interfaces/CustomCustomTransferHelper.sol\":885:896  data.length */\n      mload\n        /* \"contracts_rename/interfaces/CustomCustomTransferHelper.sol\":885:901  data.length == 0 */\n      eq\n        /* \"contracts_rename/interfaces/CustomCustomTransferHelper.sol\":885:929  data.length == 0 || abi.decode(data, (bool)) */\n      dup1\n      tag_207\n      jumpi\n      pop\n        /* \"contracts_rename/interfaces/CustomCustomTransferHelper.sol\":916:920  data */\n      dup1\n        /* \"contracts_rename/interfaces/CustomCustomTransferHelper.sol\":905:929  abi.decode(data, (bool)) */\n      dup1\n      0x20\n      add\n      swap1\n      mload\n      dup2\n      add\n      swap1\n      tag_208\n      swap2\n      swap1\n      tag_156\n      jump\t// in\n    tag_208:\n        /* \"contracts_rename/interfaces/CustomCustomTransferHelper.sol\":885:929  data.length == 0 || abi.decode(data, (bool)) */\n    tag_207:\n        /* \"contracts_rename/interfaces/CustomCustomTransferHelper.sol\":873:930  success && (data.length == 0 || abi.decode(data, (bool))) */\n    tag_206:\n        /* \"contracts_rename/interfaces/CustomCustomTransferHelper.sol\":865:938  require(success && (data.length == 0 || abi.decode(data, (bool))), 'STF') */\n      tag_209\n      jumpi\n      mload(0x40)\n      0x08c379a000000000000000000000000000000000000000000000000000000000\n      dup2\n      mstore\n      0x04\n      add\n      tag_210\n      swap1\n      tag_211\n      jump\t// in\n    tag_210:\n      mload(0x40)\n      dup1\n      swap2\n      sub\n      swap1\n      revert\n    tag_209:\n        /* \"contracts_rename/interfaces/CustomCustomTransferHelper.sol\":713:946  {... */\n      pop\n      pop\n        /* \"contracts_rename/interfaces/CustomCustomTransferHelper.sol\":579:946  function safeTransferFrom(... */\n      pop\n      pop\n      pop\n      pop\n      jump\t// out\n        /* \"#utility.yul\":7:82   */\n    tag_212:\n        /* \"#utility.yul\":40:46   */\n      0x00\n        /* \"#utility.yul\":73:75   */\n      0x40\n        /* \"#utility.yul\":67:76   */\n      mload\n        /* \"#utility.yul\":57:76   */\n      swap1\n      pop\n        /* \"#utility.yul\":7:82   */\n      swap1\n      jump\t// out\n        /* \"#utility.yul\":88:205   */\n    tag_213:\n        /* \"#utility.yul\":197:198   */\n      0x00\n        /* \"#utility.yul\":194:195   */\n      dup1\n        /* \"#utility.yul\":187:199   */\n      revert\n        /* \"#utility.yul\":211:328   */\n    tag_214:\n        /* \"#utility.yul\":320:321   */\n      0x00\n        /* \"#utility.yul\":317:318   */\n      dup1\n        /* \"#utility.yul\":310:322   */\n      revert\n        /* \"#utility.yul\":334:411   */\n    tag_215:\n        /* \"#utility.yul\":371:378   */\n      0x00\n        /* \"#utility.yul\":400:405   */\n      dup2\n        /* \"#utility.yul\":389:405   */\n      swap1\n      pop\n        /* \"#utility.yul\":334:411   */\n      swap2\n      swap1\n      pop\n      jump\t// out\n        /* \"#utility.yul\":417:539   */\n    tag_216:\n        /* \"#utility.yul\":490:514   */\n      tag_291\n        /* \"#utility.yul\":508:513   */\n      dup2\n        /* \"#utility.yul\":490:514   */\n      tag_215\n      jump\t// in\n    tag_291:\n        /* \"#utility.yul\":483:488   */\n      dup2\n        /* \"#utility.yul\":480:515   */\n      eq\n        /* \"#utility.yul\":470:533   */\n      tag_292\n      jumpi\n        /* \"#utility.yul\":529:530   */\n      0x00\n        /* \"#utility.yul\":526:527   */\n      dup1\n        /* \"#utility.yul\":519:531   */\n      revert\n        /* \"#utility.yul\":470:533   */\n    tag_292:\n        /* \"#utility.yul\":417:539   */\n      pop\n      jump\t// out\n        /* \"#utility.yul\":545:684   */\n    tag_217:\n        /* \"#utility.yul\":591:596   */\n      0x00\n        /* \"#utility.yul\":629:635   */\n      dup2\n        /* \"#utility.yul\":616:636   */\n      calldataload\n        /* \"#utility.yul\":607:636   */\n      swap1\n      pop\n        /* \"#utility.yul\":645:678   */\n      tag_294\n        /* \"#utility.yul\":672:677   */\n      dup2\n        /* \"#utility.yul\":645:678   */\n      tag_216\n      jump\t// in\n    tag_294:\n        /* \"#utility.yul\":545:684   */\n      swap3\n      swap2\n      pop\n      pop\n      jump\t// out\n        /* \"#utility.yul\":690:816   */\n    tag_218:\n        /* \"#utility.yul\":727:734   */\n      0x00\n        /* \"#utility.yul\":767:809   */\n      0xffffffffffffffffffffffffffffffffffffffff\n        /* \"#utility.yul\":760:765   */\n      dup3\n        /* \"#utility.yul\":756:810   */\n      and\n        /* \"#utility.yul\":745:810   */\n      swap1\n      pop\n        /* \"#utility.yul\":690:816   */\n      swap2\n      swap1\n      pop\n      jump\t// out\n        /* \"#utility.yul\":822:918   */\n    tag_219:\n        /* \"#utility.yul\":859:866   */\n      0x00\n        /* \"#utility.yul\":888:912   */\n      tag_297\n        /* \"#utility.yul\":906:911   */\n      dup3\n        /* \"#utility.yul\":888:912   */\n      tag_218\n      jump\t// in\n    tag_297:\n        /* \"#utility.yul\":877:912   */\n      swap1\n      pop\n        /* \"#utility.yul\":822:918   */\n      swap2\n      swap1\n      pop\n      jump\t// out\n        /* \"#utility.yul\":924:1046   */\n    tag_220:\n        /* \"#utility.yul\":997:1021   */\n      tag_299\n        /* \"#utility.yul\":1015:1020   */\n      dup2\n        /* \"#utility.yul\":997:1021   */\n      tag_219\n      jump\t// in\n    tag_299:\n        /* \"#utility.yul\":990:995   */\n      dup2\n        /* \"#utility.yul\":987:1022   */\n      eq\n        /* \"#utility.yul\":977:1040   */\n      tag_300\n      jumpi\n        /* \"#utility.yul\":1036:1037   */\n      0x00\n        /* \"#utility.yul\":1033:1034   */\n      dup1\n        /* \"#utility.yul\":1026:1038   */\n      revert\n        /* \"#utility.yul\":977:1040   */\n    tag_300:\n        /* \"#utility.yul\":924:1046   */\n      pop\n      jump\t// out\n        /* \"#utility.yul\":1052:1191   */\n    tag_221:\n        /* \"#utility.yul\":1098:1103   */\n      0x00\n        /* \"#utility.yul\":1136:1142   */\n      dup2\n        /* \"#utility.yul\":1123:1143   */\n      calldataload\n        /* \"#utility.yul\":1114:1143   */\n      swap1\n      pop\n        /* \"#utility.yul\":1152:1185   */\n      tag_302\n        /* \"#utility.yul\":1179:1184   */\n      dup2\n        /* \"#utility.yul\":1152:1185   */\n      tag_220\n      jump\t// in\n    tag_302:\n        /* \"#utility.yul\":1052:1191   */\n      swap3\n      swap2\n      pop\n      pop\n      jump\t// out\n        /* \"#utility.yul\":1197:1671   */\n    tag_18:\n        /* \"#utility.yul\":1265:1271   */\n      0x00\n        /* \"#utility.yul\":1273:1279   */\n      dup1\n        /* \"#utility.yul\":1322:1324   */\n      0x40\n        /* \"#utility.yul\":1310:1319   */\n      dup4\n        /* \"#utility.yul\":1301:1308   */\n      dup6\n        /* \"#utility.yul\":1297:1320   */\n      sub\n        /* \"#utility.yul\":1293:1325   */\n      slt\n        /* \"#utility.yul\":1290:1409   */\n      iszero\n      tag_304\n      jumpi\n        /* \"#utility.yul\":1328:1407   */\n      tag_305\n      tag_213\n      jump\t// in\n    tag_305:\n        /* \"#utility.yul\":1290:1409   */\n    tag_304:\n        /* \"#utility.yul\":1448:1449   */\n      0x00\n        /* \"#utility.yul\":1473:1526   */\n      tag_306\n        /* \"#utility.yul\":1518:1525   */\n      dup6\n        /* \"#utility.yul\":1509:1515   */\n      dup3\n        /* \"#utility.yul\":1498:1507   */\n      dup7\n        /* \"#utility.yul\":1494:1516   */\n      add\n        /* \"#utility.yul\":1473:1526   */\n      tag_217\n      jump\t// in\n    tag_306:\n        /* \"#utility.yul\":1463:1526   */\n      swap3\n      pop\n        /* \"#utility.yul\":1419:1536   */\n      pop\n        /* \"#utility.yul\":1575:1577   */\n      0x20\n        /* \"#utility.yul\":1601:1654   */\n      tag_307\n        /* \"#utility.yul\":1646:1653   */\n      dup6\n        /* \"#utility.yul\":1637:1643   */\n      dup3\n        /* \"#utility.yul\":1626:1635   */\n      dup7\n        /* \"#utility.yul\":1622:1644   */\n      add\n        /* \"#utility.yul\":1601:1654   */\n      tag_221\n      jump\t// in\n    tag_307:\n        /* \"#utility.yul\":1591:1654   */\n      swap2\n      pop\n        /* \"#utility.yul\":1546:1664   */\n      pop\n        /* \"#utility.yul\":1197:1671   */\n      swap3\n      pop\n      swap3\n      swap1\n      pop\n      jump\t// out\n        /* \"#utility.yul\":1677:1795   */\n    tag_222:\n        /* \"#utility.yul\":1764:1788   */\n      tag_309\n        /* \"#utility.yul\":1782:1787   */\n      dup2\n        /* \"#utility.yul\":1764:1788   */\n      tag_219\n      jump\t// in\n    tag_309:\n        /* \"#utility.yul\":1759:1762   */\n      dup3\n        /* \"#utility.yul\":1752:1789   */\n      mstore\n        /* \"#utility.yul\":1677:1795   */\n      pop\n      pop\n      jump\t// out\n        /* \"#utility.yul\":1801:2023   */\n    tag_24:\n        /* \"#utility.yul\":1894:1898   */\n      0x00\n        /* \"#utility.yul\":1932:1934   */\n      0x20\n        /* \"#utility.yul\":1921:1930   */\n      dup3\n        /* \"#utility.yul\":1917:1935   */\n      add\n        /* \"#utility.yul\":1909:1935   */\n      swap1\n      pop\n        /* \"#utility.yul\":1945:2016   */\n      tag_311\n        /* \"#utility.yul\":2013:2014   */\n      0x00\n        /* \"#utility.yul\":2002:2011   */\n      dup4\n        /* \"#utility.yul\":1998:2015   */\n      add\n        /* \"#utility.yul\":1989:1995   */\n      dup5\n        /* \"#utility.yul\":1945:2016   */\n      tag_222\n      jump\t// in\n    tag_311:\n        /* \"#utility.yul\":1801:2023   */\n      swap3\n      swap2\n      pop\n      pop\n      jump\t// out\n        /* \"#utility.yul\":2029:2120   */\n    tag_223:\n        /* \"#utility.yul\":2065:2072   */\n      0x00\n        /* \"#utility.yul\":2105:2113   */\n      0xffffff\n        /* \"#utility.yul\":2098:2103   */\n      dup3\n        /* \"#utility.yul\":2094:2114   */\n      and\n        /* \"#utility.yul\":2083:2114   */\n      swap1\n      pop\n        /* \"#utility.yul\":2029:2120   */\n      swap2\n      swap1\n      pop\n      jump\t// out\n        /* \"#utility.yul\":2126:2246   */\n    tag_224:\n        /* \"#utility.yul\":2198:2221   */\n      tag_314\n        /* \"#utility.yul\":2215:2220   */\n      dup2\n        /* \"#utility.yul\":2198:2221   */\n      tag_223\n      jump\t// in\n    tag_314:\n        /* \"#utility.yul\":2191:2196   */\n      dup2\n        /* \"#utility.yul\":2188:2222   */\n      eq\n        /* \"#utility.yul\":2178:2240   */\n      tag_315\n      jumpi\n        /* \"#utility.yul\":2236:2237   */\n      0x00\n        /* \"#utility.yul\":2233:2234   */\n      dup1\n        /* \"#utility.yul\":2226:2238   */\n      revert\n        /* \"#utility.yul\":2178:2240   */\n    tag_315:\n        /* \"#utility.yul\":2126:2246   */\n      pop\n      jump\t// out\n        /* \"#utility.yul\":2252:2389   */\n    tag_225:\n        /* \"#utility.yul\":2297:2302   */\n      0x00\n        /* \"#utility.yul\":2335:2341   */\n      dup2\n        /* \"#utility.yul\":2322:2342   */\n      calldataload\n        /* \"#utility.yul\":2313:2342   */\n      swap1\n      pop\n        /* \"#utility.yul\":2351:2383   */\n      tag_317\n        /* \"#utility.yul\":2377:2382   */\n      dup2\n        /* \"#utility.yul\":2351:2383   */\n      tag_224\n      jump\t// in\n    tag_317:\n        /* \"#utility.yul\":2252:2389   */\n      swap3\n      swap2\n      pop\n      pop\n      jump\t// out\n        /* \"#utility.yul\":2395:3592   */\n    tag_28:\n        /* \"#utility.yul\":2505:2511   */\n      0x00\n        /* \"#utility.yul\":2513:2519   */\n      dup1\n        /* \"#utility.yul\":2521:2527   */\n      0x00\n        /* \"#utility.yul\":2529:2535   */\n      dup1\n        /* \"#utility.yul\":2537:2543   */\n      0x00\n        /* \"#utility.yul\":2545:2551   */\n      dup1\n        /* \"#utility.yul\":2553:2559   */\n      0x00\n        /* \"#utility.yul\":2602:2605   */\n      0xe0\n        /* \"#utility.yul\":2590:2599   */\n      dup9\n        /* \"#utility.yul\":2581:2588   */\n      dup11\n        /* \"#utility.yul\":2577:2600   */\n      sub\n        /* \"#utility.yul\":2573:2606   */\n      slt\n        /* \"#utility.yul\":2570:2690   */\n      iszero\n      tag_319\n      jumpi\n        /* \"#utility.yul\":2609:2688   */\n      tag_320\n      tag_213\n      jump\t// in\n    tag_320:\n        /* \"#utility.yul\":2570:2690   */\n    tag_319:\n        /* \"#utility.yul\":2729:2730   */\n      0x00\n        /* \"#utility.yul\":2754:2807   */\n      tag_321\n        /* \"#utility.yul\":2799:2806   */\n      dup11\n        /* \"#utility.yul\":2790:2796   */\n      dup3\n        /* \"#utility.yul\":2779:2788   */\n      dup12\n        /* \"#utility.yul\":2775:2797   */\n      add\n        /* \"#utility.yul\":2754:2807   */\n      tag_221\n      jump\t// in\n    tag_321:\n        /* \"#utility.yul\":2744:2807   */\n      swap8\n      pop\n        /* \"#utility.yul\":2700:2817   */\n      pop\n        /* \"#utility.yul\":2856:2858   */\n      0x20\n        /* \"#utility.yul\":2882:2935   */\n      tag_322\n        /* \"#utility.yul\":2927:2934   */\n      dup11\n        /* \"#utility.yul\":2918:2924   */\n      dup3\n        /* \"#utility.yul\":2907:2916   */\n      dup12\n        /* \"#utility.yul\":2903:2925   */\n      add\n        /* \"#utility.yul\":2882:2935   */\n      tag_221\n      jump\t// in\n    tag_322:\n        /* \"#utility.yul\":2872:2935   */\n      swap7\n      pop\n        /* \"#utility.yul\":2827:2945   */\n      pop\n        /* \"#utility.yul\":2984:2986   */\n      0x40\n        /* \"#utility.yul\":3010:3062   */\n      tag_323\n        /* \"#utility.yul\":3054:3061   */\n      dup11\n        /* \"#utility.yul\":3045:3051   */\n      dup3\n        /* \"#utility.yul\":3034:3043   */\n      dup12\n        /* \"#utility.yul\":3030:3052   */\n      add\n        /* \"#utility.yul\":3010:3062   */\n      tag_225\n      jump\t// in\n    tag_323:\n        /* \"#utility.yul\":3000:3062   */\n      swap6\n      pop\n        /* \"#utility.yul\":2955:3072   */\n      pop\n        /* \"#utility.yul\":3111:3113   */\n      0x60\n        /* \"#utility.yul\":3137:3190   */\n      tag_324\n        /* \"#utility.yul\":3182:3189   */\n      dup11\n        /* \"#utility.yul\":3173:3179   */\n      dup3\n        /* \"#utility.yul\":3162:3171   */\n      dup12\n        /* \"#utility.yul\":3158:3180   */\n      add\n        /* \"#utility.yul\":3137:3190   */\n      tag_217\n      jump\t// in\n    tag_324:\n        /* \"#utility.yul\":3127:3190   */\n      swap5\n      pop\n        /* \"#utility.yul\":3082:3200   */\n      pop\n        /* \"#utility.yul\":3239:3242   */\n      0x80\n        /* \"#utility.yul\":3266:3319   */\n      tag_325\n        /* \"#utility.yul\":3311:3318   */\n      dup11\n        /* \"#utility.yul\":3302:3308   */\n      dup3\n        /* \"#utility.yul\":3291:3300   */\n      dup12\n        /* \"#utility.yul\":3287:3309   */\n      add\n        /* \"#utility.yul\":3266:3319   */\n      tag_217\n      jump\t// in\n    tag_325:\n        /* \"#utility.yul\":3256:3319   */\n      swap4\n      pop\n        /* \"#utility.yul\":3210:3329   */\n      pop\n        /* \"#utility.yul\":3368:3371   */\n      0xa0\n        /* \"#utility.yul\":3395:3447   */\n      tag_326\n        /* \"#utility.yul\":3439:3446   */\n      dup11\n        /* \"#utility.yul\":3430:3436   */\n      dup3\n        /* \"#utility.yul\":3419:3428   */\n      dup12\n        /* \"#utility.yul\":3415:3437   */\n      add\n        /* \"#utility.yul\":3395:3447   */\n      tag_225\n      jump\t// in\n    tag_326:\n        /* \"#utility.yul\":3385:3447   */\n      swap3\n      pop\n        /* \"#utility.yul\":3339:3457   */\n      pop\n        /* \"#utility.yul\":3496:3499   */\n      0xc0\n        /* \"#utility.yul\":3523:3575   */\n      tag_327\n        /* \"#utility.yul\":3567:3574   */\n      dup11\n        /* \"#utility.yul\":3558:3564   */\n      dup3\n        /* \"#utility.yul\":3547:3556   */\n      dup12\n        /* \"#utility.yul\":3543:3565   */\n      add\n        /* \"#utility.yul\":3523:3575   */\n      tag_225\n      jump\t// in\n    tag_327:\n        /* \"#utility.yul\":3513:3575   */\n      swap2\n      pop\n        /* \"#utility.yul\":3467:3585   */\n      pop\n        /* \"#utility.yul\":2395:3592   */\n      swap3\n      swap6\n      swap9\n      swap2\n      swap5\n      swap8\n      pop\n      swap3\n      swap6\n      pop\n      jump\t// out\n        /* \"#utility.yul\":3598:3658   */\n    tag_226:\n        /* \"#utility.yul\":3626:3629   */\n      0x00\n        /* \"#utility.yul\":3647:3652   */\n      dup2\n        /* \"#utility.yul\":3640:3652   */\n      swap1\n      pop\n        /* \"#utility.yul\":3598:3658   */\n      swap2\n      swap1\n      pop\n      jump\t// out\n        /* \"#utility.yul\":3664:3806   */\n    tag_227:\n        /* \"#utility.yul\":3714:3723   */\n      0x00\n        /* \"#utility.yul\":3747:3800   */\n      tag_330\n        /* \"#utility.yul\":3765:3799   */\n      tag_331\n        /* \"#utility.yul\":3774:3798   */\n      tag_332\n        /* \"#utility.yul\":3792:3797   */\n      dup5\n        /* \"#utility.yul\":3774:3798   */\n      tag_218\n      jump\t// in\n    tag_332:\n        /* \"#utility.yul\":3765:3799   */\n      tag_226\n      jump\t// in\n    tag_331:\n        /* \"#utility.yul\":3747:3800   */\n      tag_218\n      jump\t// in\n    tag_330:\n        /* \"#utility.yul\":3734:3800   */\n      swap1\n      pop\n        /* \"#utility.yul\":3664:3806   */\n      swap2\n      swap1\n      pop\n      jump\t// out\n        /* \"#utility.yul\":3812:3938   */\n    tag_228:\n        /* \"#utility.yul\":3862:3871   */\n      0x00\n        /* \"#utility.yul\":3895:3932   */\n      tag_334\n        /* \"#utility.yul\":3926:3931   */\n      dup3\n        /* \"#utility.yul\":3895:3932   */\n      tag_227\n      jump\t// in\n    tag_334:\n        /* \"#utility.yul\":3882:3932   */\n      swap1\n      pop\n        /* \"#utility.yul\":3812:3938   */\n      swap2\n      swap1\n      pop\n      jump\t// out\n        /* \"#utility.yul\":3944:4090   */\n    tag_229:\n        /* \"#utility.yul\":4014:4023   */\n      0x00\n        /* \"#utility.yul\":4047:4084   */\n      tag_336\n        /* \"#utility.yul\":4078:4083   */\n      dup3\n        /* \"#utility.yul\":4047:4084   */\n      tag_228\n      jump\t// in\n    tag_336:\n        /* \"#utility.yul\":4034:4084   */\n      swap1\n      pop\n        /* \"#utility.yul\":3944:4090   */\n      swap2\n      swap1\n      pop\n      jump\t// out\n        /* \"#utility.yul\":4096:4267   */\n    tag_230:\n        /* \"#utility.yul\":4203:4260   */\n      tag_338\n        /* \"#utility.yul\":4254:4259   */\n      dup2\n        /* \"#utility.yul\":4203:4260   */\n      tag_229\n      jump\t// in\n    tag_338:\n        /* \"#utility.yul\":4198:4201   */\n      dup3\n        /* \"#utility.yul\":4191:4261   */\n      mstore\n        /* \"#utility.yul\":4096:4267   */\n      pop\n      pop\n      jump\t// out\n        /* \"#utility.yul\":4273:4535   */\n    tag_34:\n        /* \"#utility.yul\":4386:4390   */\n      0x00\n        /* \"#utility.yul\":4424:4426   */\n      0x20\n        /* \"#utility.yul\":4413:4422   */\n      dup3\n        /* \"#utility.yul\":4409:4427   */\n      add\n        /* \"#utility.yul\":4401:4427   */\n      swap1\n      pop\n        /* \"#utility.yul\":4437:4528   */\n      tag_340\n        /* \"#utility.yul\":4525:4526   */\n      0x00\n        /* \"#utility.yul\":4514:4523   */\n      dup4\n        /* \"#utility.yul\":4510:4527   */\n      add\n        /* \"#utility.yul\":4501:4507   */\n      dup5\n        /* \"#utility.yul\":4437:4528   */\n      tag_230\n      jump\t// in\n    tag_340:\n        /* \"#utility.yul\":4273:4535   */\n      swap3\n      swap2\n      pop\n      pop\n      jump\t// out\n        /* \"#utility.yul\":4541:5160   */\n    tag_41:\n        /* \"#utility.yul\":4618:4624   */\n      0x00\n        /* \"#utility.yul\":4626:4632   */\n      dup1\n        /* \"#utility.yul\":4634:4640   */\n      0x00\n        /* \"#utility.yul\":4683:4685   */\n      0x60\n        /* \"#utility.yul\":4671:4680   */\n      dup5\n        /* \"#utility.yul\":4662:4669   */\n      dup7\n        /* \"#utility.yul\":4658:4681   */\n      sub\n        /* \"#utility.yul\":4654:4686   */\n      slt\n        /* \"#utility.yul\":4651:4770   */\n      iszero\n      tag_342\n      jumpi\n        /* \"#utility.yul\":4689:4768   */\n      tag_343\n      tag_213\n      jump\t// in\n    tag_343:\n        /* \"#utility.yul\":4651:4770   */\n    tag_342:\n        /* \"#utility.yul\":4809:4810   */\n      0x00\n        /* \"#utility.yul\":4834:4887   */\n      tag_344\n        /* \"#utility.yul\":4879:4886   */\n      dup7\n        /* \"#utility.yul\":4870:4876   */\n      dup3\n        /* \"#utility.yul\":4859:4868   */\n      dup8\n        /* \"#utility.yul\":4855:4877   */\n      add\n        /* \"#utility.yul\":4834:4887   */\n      tag_221\n      jump\t// in\n    tag_344:\n        /* \"#utility.yul\":4824:4887   */\n      swap4\n      pop\n        /* \"#utility.yul\":4780:4897   */\n      pop\n        /* \"#utility.yul\":4936:4938   */\n      0x20\n        /* \"#utility.yul\":4962:5015   */\n      tag_345\n        /* \"#utility.yul\":5007:5014   */\n      dup7\n        /* \"#utility.yul\":4998:5004   */\n      dup3\n        /* \"#utility.yul\":4987:4996   */\n      dup8\n        /* \"#utility.yul\":4983:5005   */\n      add\n        /* \"#utility.yul\":4962:5015   */\n      tag_217\n      jump\t// in\n    tag_345:\n        /* \"#utility.yul\":4952:5015   */\n      swap3\n      pop\n        /* \"#utility.yul\":4907:5025   */\n      pop\n        /* \"#utility.yul\":5064:5066   */\n      0x40\n        /* \"#utility.yul\":5090:5143   */\n      tag_346\n        /* \"#utility.yul\":5135:5142   */\n      dup7\n        /* \"#utility.yul\":5126:5132   */\n      dup3\n        /* \"#utility.yul\":5115:5124   */\n      dup8\n        /* \"#utility.yul\":5111:5133   */\n      add\n        /* \"#utility.yul\":5090:5143   */\n      tag_221\n      jump\t// in\n    tag_346:\n        /* \"#utility.yul\":5080:5143   */\n      swap2\n      pop\n        /* \"#utility.yul\":5035:5153   */\n      pop\n        /* \"#utility.yul\":4541:5160   */\n      swap3\n      pop\n      swap3\n      pop\n      swap3\n      jump\t// out\n        /* \"#utility.yul\":5166:5283   */\n    tag_231:\n        /* \"#utility.yul\":5275:5276   */\n      0x00\n        /* \"#utility.yul\":5272:5273   */\n      dup1\n        /* \"#utility.yul\":5265:5277   */\n      revert\n        /* \"#utility.yul\":5289:5406   */\n    tag_232:\n        /* \"#utility.yul\":5398:5399   */\n      0x00\n        /* \"#utility.yul\":5395:5396   */\n      dup1\n        /* \"#utility.yul\":5388:5400   */\n      revert\n        /* \"#utility.yul\":5412:5529   */\n    tag_233:\n        /* \"#utility.yul\":5521:5522   */\n      0x00\n        /* \"#utility.yul\":5518:5519   */\n      dup1\n        /* \"#utility.yul\":5511:5523   */\n      revert\n        /* \"#utility.yul\":5548:6100   */\n    tag_234:\n        /* \"#utility.yul\":5605:5613   */\n      0x00\n        /* \"#utility.yul\":5615:5621   */\n      dup1\n        /* \"#utility.yul\":5665:5668   */\n      dup4\n        /* \"#utility.yul\":5658:5662   */\n      0x1f\n        /* \"#utility.yul\":5650:5656   */\n      dup5\n        /* \"#utility.yul\":5646:5663   */\n      add\n        /* \"#utility.yul\":5642:5669   */\n      slt\n        /* \"#utility.yul\":5632:5754   */\n      tag_351\n      jumpi\n        /* \"#utility.yul\":5673:5752   */\n      tag_352\n      tag_231\n      jump\t// in\n    tag_352:\n        /* \"#utility.yul\":5632:5754   */\n    tag_351:\n        /* \"#utility.yul\":5786:5792   */\n      dup3\n        /* \"#utility.yul\":5773:5793   */\n      calldataload\n        /* \"#utility.yul\":5763:5793   */\n      swap1\n      pop\n        /* \"#utility.yul\":5816:5834   */\n      0xffffffffffffffff\n        /* \"#utility.yul\":5808:5814   */\n      dup2\n        /* \"#utility.yul\":5805:5835   */\n      gt\n        /* \"#utility.yul\":5802:5919   */\n      iszero\n      tag_353\n      jumpi\n        /* \"#utility.yul\":5838:5917   */\n      tag_354\n      tag_232\n      jump\t// in\n    tag_354:\n        /* \"#utility.yul\":5802:5919   */\n    tag_353:\n        /* \"#utility.yul\":5952:5956   */\n      0x20\n        /* \"#utility.yul\":5944:5950   */\n      dup4\n        /* \"#utility.yul\":5940:5957   */\n      add\n        /* \"#utility.yul\":5928:5957   */\n      swap2\n      pop\n        /* \"#utility.yul\":6006:6009   */\n      dup4\n        /* \"#utility.yul\":5998:6002   */\n      0x01\n        /* \"#utility.yul\":5990:5996   */\n      dup3\n        /* \"#utility.yul\":5986:6003   */\n      mul\n        /* \"#utility.yul\":5976:5984   */\n      dup4\n        /* \"#utility.yul\":5972:6004   */\n      add\n        /* \"#utility.yul\":5969:6010   */\n      gt\n        /* \"#utility.yul\":5966:6094   */\n      iszero\n      tag_355\n      jumpi\n        /* \"#utility.yul\":6013:6092   */\n      tag_356\n      tag_233\n      jump\t// in\n    tag_356:\n        /* \"#utility.yul\":5966:6094   */\n    tag_355:\n        /* \"#utility.yul\":5548:6100   */\n      swap3\n      pop\n      swap3\n      swap1\n      pop\n      jump\t// out\n        /* \"#utility.yul\":6106:6923   */\n    tag_46:\n        /* \"#utility.yul\":6194:6200   */\n      0x00\n        /* \"#utility.yul\":6202:6208   */\n      dup1\n        /* \"#utility.yul\":6210:6216   */\n      0x00\n        /* \"#utility.yul\":6218:6224   */\n      dup1\n        /* \"#utility.yul\":6267:6269   */\n      0x60\n        /* \"#utility.yul\":6255:6264   */\n      dup6\n        /* \"#utility.yul\":6246:6253   */\n      dup8\n        /* \"#utility.yul\":6242:6265   */\n      sub\n        /* \"#utility.yul\":6238:6270   */\n      slt\n        /* \"#utility.yul\":6235:6354   */\n      iszero\n      tag_358\n      jumpi\n        /* \"#utility.yul\":6273:6352   */\n      tag_359\n      tag_213\n      jump\t// in\n    tag_359:\n        /* \"#utility.yul\":6235:6354   */\n    tag_358:\n        /* \"#utility.yul\":6393:6394   */\n      0x00\n        /* \"#utility.yul\":6418:6471   */\n      tag_360\n        /* \"#utility.yul\":6463:6470   */\n      dup8\n        /* \"#utility.yul\":6454:6460   */\n      dup3\n        /* \"#utility.yul\":6443:6452   */\n      dup9\n        /* \"#utility.yul\":6439:6461   */\n      add\n        /* \"#utility.yul\":6418:6471   */\n      tag_217\n      jump\t// in\n    tag_360:\n        /* \"#utility.yul\":6408:6471   */\n      swap5\n      pop\n        /* \"#utility.yul\":6364:6481   */\n      pop\n        /* \"#utility.yul\":6520:6522   */\n      0x20\n        /* \"#utility.yul\":6546:6599   */\n      tag_361\n        /* \"#utility.yul\":6591:6598   */\n      dup8\n        /* \"#utility.yul\":6582:6588   */\n      dup3\n        /* \"#utility.yul\":6571:6580   */\n      dup9\n        /* \"#utility.yul\":6567:6589   */\n      add\n        /* \"#utility.yul\":6546:6599   */\n      tag_217\n      jump\t// in\n    tag_361:\n        /* \"#utility.yul\":6536:6599   */\n      swap4\n      pop\n        /* \"#utility.yul\":6491:6609   */\n      pop\n        /* \"#utility.yul\":6676:6678   */\n      0x40\n        /* \"#utility.yul\":6665:6674   */\n      dup6\n        /* \"#utility.yul\":6661:6679   */\n      add\n        /* \"#utility.yul\":6648:6680   */\n      calldataload\n        /* \"#utility.yul\":6707:6725   */\n      0xffffffffffffffff\n        /* \"#utility.yul\":6699:6705   */\n      dup2\n        /* \"#utility.yul\":6696:6726   */\n      gt\n        /* \"#utility.yul\":6693:6810   */\n      iszero\n      tag_362\n      jumpi\n        /* \"#utility.yul\":6729:6808   */\n      tag_363\n      tag_214\n      jump\t// in\n    tag_363:\n        /* \"#utility.yul\":6693:6810   */\n    tag_362:\n        /* \"#utility.yul\":6842:6906   */\n      tag_364\n        /* \"#utility.yul\":6898:6905   */\n      dup8\n        /* \"#utility.yul\":6889:6895   */\n      dup3\n        /* \"#utility.yul\":6878:6887   */\n      dup9\n        /* \"#utility.yul\":6874:6896   */\n      add\n        /* \"#utility.yul\":6842:6906   */\n      tag_234\n      jump\t// in\n    tag_364:\n        /* \"#utility.yul\":6824:6906   */\n      swap3\n      pop\n      swap3\n      pop\n        /* \"#utility.yul\":6619:6916   */\n      pop\n        /* \"#utility.yul\":6106:6923   */\n      swap3\n      swap6\n      swap2\n      swap5\n      pop\n      swap3\n      pop\n      jump\t// out\n        /* \"#utility.yul\":6929:7072   */\n    tag_235:\n        /* \"#utility.yul\":6986:6991   */\n      0x00\n        /* \"#utility.yul\":7017:7023   */\n      dup2\n        /* \"#utility.yul\":7011:7024   */\n      mload\n        /* \"#utility.yul\":7002:7024   */\n      swap1\n      pop\n        /* \"#utility.yul\":7033:7066   */\n      tag_366\n        /* \"#utility.yul\":7060:7065   */\n      dup2\n        /* \"#utility.yul\":7033:7066   */\n      tag_216\n      jump\t// in\n    tag_366:\n        /* \"#utility.yul\":6929:7072   */\n      swap3\n      swap2\n      pop\n      pop\n      jump\t// out\n        /* \"#utility.yul\":7078:7429   */\n    tag_57:\n        /* \"#utility.yul\":7148:7154   */\n      0x00\n        /* \"#utility.yul\":7197:7199   */\n      0x20\n        /* \"#utility.yul\":7185:7194   */\n      dup3\n        /* \"#utility.yul\":7176:7183   */\n      dup5\n        /* \"#utility.yul\":7172:7195   */\n      sub\n        /* \"#utility.yul\":7168:7200   */\n      slt\n        /* \"#utility.yul\":7165:7284   */\n      iszero\n      tag_368\n      jumpi\n        /* \"#utility.yul\":7203:7282   */\n      tag_369\n      tag_213\n      jump\t// in\n    tag_369:\n        /* \"#utility.yul\":7165:7284   */\n    tag_368:\n        /* \"#utility.yul\":7323:7324   */\n      0x00\n        /* \"#utility.yul\":7348:7412   */\n      tag_370\n        /* \"#utility.yul\":7404:7411   */\n      dup5\n        /* \"#utility.yul\":7395:7401   */\n      dup3\n        /* \"#utility.yul\":7384:7393   */\n      dup6\n        /* \"#utility.yul\":7380:7402   */\n      add\n        /* \"#utility.yul\":7348:7412   */\n      tag_235\n      jump\t// in\n    tag_370:\n        /* \"#utility.yul\":7338:7412   */\n      swap2\n      pop\n        /* \"#utility.yul\":7294:7422   */\n      pop\n        /* \"#utility.yul\":7078:7429   */\n      swap3\n      swap2\n      pop\n      pop\n      jump\t// out\n        /* \"#utility.yul\":7435:7604   */\n    tag_236:\n        /* \"#utility.yul\":7519:7530   */\n      0x00\n        /* \"#utility.yul\":7553:7559   */\n      dup3\n        /* \"#utility.yul\":7548:7551   */\n      dup3\n        /* \"#utility.yul\":7541:7560   */\n      mstore\n        /* \"#utility.yul\":7593:7597   */\n      0x20\n        /* \"#utility.yul\":7588:7591   */\n      dup3\n        /* \"#utility.yul\":7584:7598   */\n      add\n        /* \"#utility.yul\":7569:7598   */\n      swap1\n      pop\n        /* \"#utility.yul\":7435:7604   */\n      swap3\n      swap2\n      pop\n      pop\n      jump\t// out\n        /* \"#utility.yul\":7610:7778   */\n    tag_237:\n        /* \"#utility.yul\":7750:7770   */\n      0x496e73756666696369656e742057455448390000000000000000000000000000\n        /* \"#utility.yul\":7746:7747   */\n      0x00\n        /* \"#utility.yul\":7738:7744   */\n      dup3\n        /* \"#utility.yul\":7734:7748   */\n      add\n        /* \"#utility.yul\":7727:7771   */\n      mstore\n        /* \"#utility.yul\":7610:7778   */\n      pop\n      jump\t// out\n        /* \"#utility.yul\":7784:8150   */\n    tag_238:\n        /* \"#utility.yul\":7926:7929   */\n      0x00\n        /* \"#utility.yul\":7947:8014   */\n      tag_374\n        /* \"#utility.yul\":8011:8013   */\n      0x12\n        /* \"#utility.yul\":8006:8009   */\n      dup4\n        /* \"#utility.yul\":7947:8014   */\n      tag_236\n      jump\t// in\n    tag_374:\n        /* \"#utility.yul\":7940:8014   */\n      swap2\n      pop\n        /* \"#utility.yul\":8023:8116   */\n      tag_375\n        /* \"#utility.yul\":8112:8115   */\n      dup3\n        /* \"#utility.yul\":8023:8116   */\n      tag_237\n      jump\t// in\n    tag_375:\n        /* \"#utility.yul\":8141:8143   */\n      0x20\n        /* \"#utility.yul\":8136:8139   */\n      dup3\n        /* \"#utility.yul\":8132:8144   */\n      add\n        /* \"#utility.yul\":8125:8144   */\n      swap1\n      pop\n        /* \"#utility.yul\":7784:8150   */\n      swap2\n      swap1\n      pop\n      jump\t// out\n        /* \"#utility.yul\":8156:8575   */\n    tag_60:\n        /* \"#utility.yul\":8322:8326   */\n      0x00\n        /* \"#utility.yul\":8360:8362   */\n      0x20\n        /* \"#utility.yul\":8349:8358   */\n      dup3\n        /* \"#utility.yul\":8345:8363   */\n      add\n        /* \"#utility.yul\":8337:8363   */\n      swap1\n      pop\n        /* \"#utility.yul\":8409:8418   */\n      dup2\n        /* \"#utility.yul\":8403:8407   */\n      dup2\n        /* \"#utility.yul\":8399:8419   */\n      sub\n        /* \"#utility.yul\":8395:8396   */\n      0x00\n        /* \"#utility.yul\":8384:8393   */\n      dup4\n        /* \"#utility.yul\":8380:8397   */\n      add\n        /* \"#utility.yul\":8373:8420   */\n      mstore\n        /* \"#utility.yul\":8437:8568   */\n      tag_377\n        /* \"#utility.yul\":8563:8567   */\n      dup2\n        /* \"#utility.yul\":8437:8568   */\n      tag_238\n      jump\t// in\n    tag_377:\n        /* \"#utility.yul\":8429:8568   */\n      swap1\n      pop\n        /* \"#utility.yul\":8156:8575   */\n      swap2\n      swap1\n      pop\n      jump\t// out\n        /* \"#utility.yul\":8581:8699   */\n    tag_239:\n        /* \"#utility.yul\":8668:8692   */\n      tag_379\n        /* \"#utility.yul\":8686:8691   */\n      dup2\n        /* \"#utility.yul\":8668:8692   */\n      tag_215\n      jump\t// in\n    tag_379:\n        /* \"#utility.yul\":8663:8666   */\n      dup3\n        /* \"#utility.yul\":8656:8693   */\n      mstore\n        /* \"#utility.yul\":8581:8699   */\n      pop\n      pop\n      jump\t// out\n        /* \"#utility.yul\":8705:8927   */\n    tag_63:\n        /* \"#utility.yul\":8798:8802   */\n      0x00\n        /* \"#utility.yul\":8836:8838   */\n      0x20\n        /* \"#utility.yul\":8825:8834   */\n      dup3\n        /* \"#utility.yul\":8821:8839   */\n      add\n        /* \"#utility.yul\":8813:8839   */\n      swap1\n      pop\n        /* \"#utility.yul\":8849:8920   */\n      tag_381\n        /* \"#utility.yul\":8917:8918   */\n      0x00\n        /* \"#utility.yul\":8906:8915   */\n      dup4\n        /* \"#utility.yul\":8902:8919   */\n      add\n        /* \"#utility.yul\":8893:8899   */\n      dup5\n        /* \"#utility.yul\":8849:8920   */\n      tag_239\n      jump\t// in\n    tag_381:\n        /* \"#utility.yul\":8705:8927   */\n      swap3\n      swap2\n      pop\n      pop\n      jump\t// out\n        /* \"#utility.yul\":8933:9041   */\n    tag_240:\n        /* \"#utility.yul\":9010:9034   */\n      tag_383\n        /* \"#utility.yul\":9028:9033   */\n      dup2\n        /* \"#utility.yul\":9010:9034   */\n      tag_215\n      jump\t// in\n    tag_383:\n        /* \"#utility.yul\":9005:9008   */\n      dup3\n        /* \"#utility.yul\":8998:9035   */\n      mstore\n        /* \"#utility.yul\":8933:9041   */\n      pop\n      pop\n      jump\t// out\n        /* \"#utility.yul\":9047:9155   */\n    tag_241:\n        /* \"#utility.yul\":9124:9148   */\n      tag_385\n        /* \"#utility.yul\":9142:9147   */\n      dup2\n        /* \"#utility.yul\":9124:9148   */\n      tag_219\n      jump\t// in\n    tag_385:\n        /* \"#utility.yul\":9119:9122   */\n      dup3\n        /* \"#utility.yul\":9112:9149   */\n      mstore\n        /* \"#utility.yul\":9047:9155   */\n      pop\n      pop\n      jump\t// out\n        /* \"#utility.yul\":9161:9266   */\n    tag_242:\n        /* \"#utility.yul\":9236:9259   */\n      tag_387\n        /* \"#utility.yul\":9253:9258   */\n      dup2\n        /* \"#utility.yul\":9236:9259   */\n      tag_223\n      jump\t// in\n    tag_387:\n        /* \"#utility.yul\":9231:9234   */\n      dup3\n        /* \"#utility.yul\":9224:9260   */\n      mstore\n        /* \"#utility.yul\":9161:9266   */\n      pop\n      pop\n      jump\t// out\n        /* \"#utility.yul\":9336:10008   */\n    tag_243:\n        /* \"#utility.yul\":9473:9477   */\n      0x60\n        /* \"#utility.yul\":9468:9471   */\n      dup3\n        /* \"#utility.yul\":9464:9478   */\n      add\n        /* \"#utility.yul\":9562:9566   */\n      0x00\n        /* \"#utility.yul\":9555:9560   */\n      dup3\n        /* \"#utility.yul\":9551:9567   */\n      add\n        /* \"#utility.yul\":9545:9568   */\n      mload\n        /* \"#utility.yul\":9581:9644   */\n      tag_389\n        /* \"#utility.yul\":9638:9642   */\n      0x00\n        /* \"#utility.yul\":9633:9636   */\n      dup6\n        /* \"#utility.yul\":9629:9643   */\n      add\n        /* \"#utility.yul\":9615:9627   */\n      dup3\n        /* \"#utility.yul\":9581:9644   */\n      tag_241\n      jump\t// in\n    tag_389:\n        /* \"#utility.yul\":9488:9654   */\n      pop\n        /* \"#utility.yul\":9738:9742   */\n      0x20\n        /* \"#utility.yul\":9731:9736   */\n      dup3\n        /* \"#utility.yul\":9727:9743   */\n      add\n        /* \"#utility.yul\":9721:9744   */\n      mload\n        /* \"#utility.yul\":9757:9820   */\n      tag_390\n        /* \"#utility.yul\":9814:9818   */\n      0x20\n        /* \"#utility.yul\":9809:9812   */\n      dup6\n        /* \"#utility.yul\":9805:9819   */\n      add\n        /* \"#utility.yul\":9791:9803   */\n      dup3\n        /* \"#utility.yul\":9757:9820   */\n      tag_241\n      jump\t// in\n    tag_390:\n        /* \"#utility.yul\":9664:9830   */\n      pop\n        /* \"#utility.yul\":9911:9915   */\n      0x40\n        /* \"#utility.yul\":9904:9909   */\n      dup3\n        /* \"#utility.yul\":9900:9916   */\n      add\n        /* \"#utility.yul\":9894:9917   */\n      mload\n        /* \"#utility.yul\":9930:9991   */\n      tag_391\n        /* \"#utility.yul\":9985:9989   */\n      0x40\n        /* \"#utility.yul\":9980:9983   */\n      dup6\n        /* \"#utility.yul\":9976:9990   */\n      add\n        /* \"#utility.yul\":9962:9974   */\n      dup3\n        /* \"#utility.yul\":9930:9991   */\n      tag_242\n      jump\t// in\n    tag_391:\n        /* \"#utility.yul\":9840:10001   */\n      pop\n        /* \"#utility.yul\":9442:10008   */\n      pop\n        /* \"#utility.yul\":9336:10008   */\n      pop\n      pop\n      jump\t// out\n        /* \"#utility.yul\":10094:11381   */\n    tag_244:\n        /* \"#utility.yul\":10259:10265   */\n      0x0100\n        /* \"#utility.yul\":10254:10257   */\n      dup3\n        /* \"#utility.yul\":10250:10266   */\n      add\n        /* \"#utility.yul\":10351:10355   */\n      0x00\n        /* \"#utility.yul\":10344:10349   */\n      dup3\n        /* \"#utility.yul\":10340:10356   */\n      add\n        /* \"#utility.yul\":10334:10357   */\n      mload\n        /* \"#utility.yul\":10370:10433   */\n      tag_393\n        /* \"#utility.yul\":10427:10431   */\n      0x00\n        /* \"#utility.yul\":10422:10425   */\n      dup6\n        /* \"#utility.yul\":10418:10432   */\n      add\n        /* \"#utility.yul\":10404:10416   */\n      dup3\n        /* \"#utility.yul\":10370:10433   */\n      tag_240\n      jump\t// in\n    tag_393:\n        /* \"#utility.yul\":10276:10443   */\n      pop\n        /* \"#utility.yul\":10528:10532   */\n      0x20\n        /* \"#utility.yul\":10521:10526   */\n      dup3\n        /* \"#utility.yul\":10517:10533   */\n      add\n        /* \"#utility.yul\":10511:10534   */\n      mload\n        /* \"#utility.yul\":10547:10610   */\n      tag_394\n        /* \"#utility.yul\":10604:10608   */\n      0x20\n        /* \"#utility.yul\":10599:10602   */\n      dup6\n        /* \"#utility.yul\":10595:10609   */\n      add\n        /* \"#utility.yul\":10581:10593   */\n      dup3\n        /* \"#utility.yul\":10547:10610   */\n      tag_240\n      jump\t// in\n    tag_394:\n        /* \"#utility.yul\":10453:10620   */\n      pop\n        /* \"#utility.yul\":10703:10707   */\n      0x40\n        /* \"#utility.yul\":10696:10701   */\n      dup3\n        /* \"#utility.yul\":10692:10708   */\n      add\n        /* \"#utility.yul\":10686:10709   */\n      mload\n        /* \"#utility.yul\":10722:10785   */\n      tag_395\n        /* \"#utility.yul\":10779:10783   */\n      0x40\n        /* \"#utility.yul\":10774:10777   */\n      dup6\n        /* \"#utility.yul\":10770:10784   */\n      add\n        /* \"#utility.yul\":10756:10768   */\n      dup3\n        /* \"#utility.yul\":10722:10785   */\n      tag_241\n      jump\t// in\n    tag_395:\n        /* \"#utility.yul\":10630:10795   */\n      pop\n        /* \"#utility.yul\":10880:10884   */\n      0x60\n        /* \"#utility.yul\":10873:10878   */\n      dup3\n        /* \"#utility.yul\":10869:10885   */\n      add\n        /* \"#utility.yul\":10863:10886   */\n      mload\n        /* \"#utility.yul\":10899:11012   */\n      tag_396\n        /* \"#utility.yul\":11006:11010   */\n      0x60\n        /* \"#utility.yul\":11001:11004   */\n      dup6\n        /* \"#utility.yul\":10997:11011   */\n      add\n        /* \"#utility.yul\":10983:10995   */\n      dup3\n        /* \"#utility.yul\":10899:11012   */\n      tag_243\n      jump\t// in\n    tag_396:\n        /* \"#utility.yul\":10805:11022   */\n      pop\n        /* \"#utility.yul\":11108:11112   */\n      0x80\n        /* \"#utility.yul\":11101:11106   */\n      dup3\n        /* \"#utility.yul\":11097:11113   */\n      add\n        /* \"#utility.yul\":11091:11114   */\n      mload\n        /* \"#utility.yul\":11127:11188   */\n      tag_397\n        /* \"#utility.yul\":11182:11186   */\n      0xc0\n        /* \"#utility.yul\":11177:11180   */\n      dup6\n        /* \"#utility.yul\":11173:11187   */\n      add\n        /* \"#utility.yul\":11159:11171   */\n      dup3\n        /* \"#utility.yul\":11127:11188   */\n      tag_242\n      jump\t// in\n    tag_397:\n        /* \"#utility.yul\":11032:11198   */\n      pop\n        /* \"#utility.yul\":11284:11288   */\n      0xa0\n        /* \"#utility.yul\":11277:11282   */\n      dup3\n        /* \"#utility.yul\":11273:11289   */\n      add\n        /* \"#utility.yul\":11267:11290   */\n      mload\n        /* \"#utility.yul\":11303:11364   */\n      tag_398\n        /* \"#utility.yul\":11358:11362   */\n      0xe0\n        /* \"#utility.yul\":11353:11356   */\n      dup6\n        /* \"#utility.yul\":11349:11363   */\n      add\n        /* \"#utility.yul\":11335:11347   */\n      dup3\n        /* \"#utility.yul\":11303:11364   */\n      tag_242\n      jump\t// in\n    tag_398:\n        /* \"#utility.yul\":11208:11374   */\n      pop\n        /* \"#utility.yul\":10228:11381   */\n      pop\n        /* \"#utility.yul\":10094:11381   */\n      pop\n      pop\n      jump\t// out\n        /* \"#utility.yul\":11387:11746   */\n    tag_72:\n        /* \"#utility.yul\":11548:11552   */\n      0x00\n        /* \"#utility.yul\":11586:11589   */\n      0x0100\n        /* \"#utility.yul\":11575:11584   */\n      dup3\n        /* \"#utility.yul\":11571:11590   */\n      add\n        /* \"#utility.yul\":11563:11590   */\n      swap1\n      pop\n        /* \"#utility.yul\":11600:11739   */\n      tag_400\n        /* \"#utility.yul\":11736:11737   */\n      0x00\n        /* \"#utility.yul\":11725:11734   */\n      dup4\n        /* \"#utility.yul\":11721:11738   */\n      add\n        /* \"#utility.yul\":11712:11718   */\n      dup5\n        /* \"#utility.yul\":11600:11739   */\n      tag_244\n      jump\t// in\n    tag_400:\n        /* \"#utility.yul\":11387:11746   */\n      swap3\n      swap2\n      pop\n      pop\n      jump\t// out\n        /* \"#utility.yul\":11752:11850   */\n    tag_245:\n        /* \"#utility.yul\":11803:11809   */\n      0x00\n        /* \"#utility.yul\":11837:11842   */\n      dup2\n        /* \"#utility.yul\":11831:11843   */\n      mload\n        /* \"#utility.yul\":11821:11843   */\n      swap1\n      pop\n        /* \"#utility.yul\":11752:11850   */\n      swap2\n      swap1\n      pop\n      jump\t// out\n        /* \"#utility.yul\":11856:12024   */\n    tag_246:\n        /* \"#utility.yul\":11939:11950   */\n      0x00\n        /* \"#utility.yul\":11973:11979   */\n      dup3\n        /* \"#utility.yul\":11968:11971   */\n      dup3\n        /* \"#utility.yul\":11961:11980   */\n      mstore\n        /* \"#utility.yul\":12013:12017   */\n      0x20\n        /* \"#utility.yul\":12008:12011   */\n      dup3\n        /* \"#utility.yul\":12004:12018   */\n      add\n        /* \"#utility.yul\":11989:12018   */\n      swap1\n      pop\n        /* \"#utility.yul\":11856:12024   */\n      swap3\n      swap2\n      pop\n      pop\n      jump\t// out\n        /* \"#utility.yul\":12030:12276   */\n    tag_247:\n        /* \"#utility.yul\":12111:12112   */\n      0x00\n        /* \"#utility.yul\":12121:12234   */\n    tag_404:\n        /* \"#utility.yul\":12135:12141   */\n      dup4\n        /* \"#utility.yul\":12132:12133   */\n      dup2\n        /* \"#utility.yul\":12129:12142   */\n      lt\n        /* \"#utility.yul\":12121:12234   */\n      iszero\n      tag_406\n      jumpi\n        /* \"#utility.yul\":12220:12221   */\n      dup1\n        /* \"#utility.yul\":12215:12218   */\n      dup3\n        /* \"#utility.yul\":12211:12222   */\n      add\n        /* \"#utility.yul\":12205:12223   */\n      mload\n        /* \"#utility.yul\":12201:12202   */\n      dup2\n        /* \"#utility.yul\":12196:12199   */\n      dup5\n        /* \"#utility.yul\":12192:12203   */\n      add\n        /* \"#utility.yul\":12185:12224   */\n      mstore\n        /* \"#utility.yul\":12157:12159   */\n      0x20\n        /* \"#utility.yul\":12154:12155   */\n      dup2\n        /* \"#utility.yul\":12150:12160   */\n      add\n        /* \"#utility.yul\":12145:12160   */\n      swap1\n      pop\n        /* \"#utility.yul\":12121:12234   */\n      jump(tag_404)\n    tag_406:\n        /* \"#utility.yul\":12268:12269   */\n      0x00\n        /* \"#utility.yul\":12259:12265   */\n      dup5\n        /* \"#utility.yul\":12254:12257   */\n      dup5\n        /* \"#utility.yul\":12250:12266   */\n      add\n        /* \"#utility.yul\":12243:12270   */\n      mstore\n        /* \"#utility.yul\":12092:12276   */\n      pop\n        /* \"#utility.yul\":12030:12276   */\n      pop\n      pop\n      pop\n      jump\t// out\n        /* \"#utility.yul\":12282:12384   */\n    tag_248:\n        /* \"#utility.yul\":12323:12329   */\n      0x00\n        /* \"#utility.yul\":12374:12376   */\n      0x1f\n        /* \"#utility.yul\":12370:12377   */\n      not\n        /* \"#utility.yul\":12365:12367   */\n      0x1f\n        /* \"#utility.yul\":12358:12363   */\n      dup4\n        /* \"#utility.yul\":12354:12368   */\n      add\n        /* \"#utility.yul\":12350:12378   */\n      and\n        /* \"#utility.yul\":12340:12378   */\n      swap1\n      pop\n        /* \"#utility.yul\":12282:12384   */\n      swap2\n      swap1\n      pop\n      jump\t// out\n        /* \"#utility.yul\":12390:12763   */\n    tag_249:\n        /* \"#utility.yul\":12476:12479   */\n      0x00\n        /* \"#utility.yul\":12504:12542   */\n      tag_409\n        /* \"#utility.yul\":12536:12541   */\n      dup3\n        /* \"#utility.yul\":12504:12542   */\n      tag_245\n      jump\t// in\n    tag_409:\n        /* \"#utility.yul\":12558:12628   */\n      tag_410\n        /* \"#utility.yul\":12621:12627   */\n      dup2\n        /* \"#utility.yul\":12616:12619   */\n      dup6\n        /* \"#utility.yul\":12558:12628   */\n      tag_246\n      jump\t// in\n    tag_410:\n        /* \"#utility.yul\":12551:12628   */\n      swap4\n      pop\n        /* \"#utility.yul\":12637:12702   */\n      tag_411\n        /* \"#utility.yul\":12695:12701   */\n      dup2\n        /* \"#utility.yul\":12690:12693   */\n      dup6\n        /* \"#utility.yul\":12683:12687   */\n      0x20\n        /* \"#utility.yul\":12676:12681   */\n      dup7\n        /* \"#utility.yul\":12672:12688   */\n      add\n        /* \"#utility.yul\":12637:12702   */\n      tag_247\n      jump\t// in\n    tag_411:\n        /* \"#utility.yul\":12727:12756   */\n      tag_412\n        /* \"#utility.yul\":12749:12755   */\n      dup2\n        /* \"#utility.yul\":12727:12756   */\n      tag_248\n      jump\t// in\n    tag_412:\n        /* \"#utility.yul\":12722:12725   */\n      dup5\n        /* \"#utility.yul\":12718:12757   */\n      add\n        /* \"#utility.yul\":12711:12757   */\n      swap2\n      pop\n        /* \"#utility.yul\":12480:12763   */\n      pop\n        /* \"#utility.yul\":12390:12763   */\n      swap3\n      swap2\n      pop\n      pop\n      jump\t// out\n        /* \"#utility.yul\":12769:13409   */\n    tag_74:\n        /* \"#utility.yul\":12964:12968   */\n      0x00\n        /* \"#utility.yul\":13002:13005   */\n      0x80\n        /* \"#utility.yul\":12991:13000   */\n      dup3\n        /* \"#utility.yul\":12987:13006   */\n      add\n        /* \"#utility.yul\":12979:13006   */\n      swap1\n      pop\n        /* \"#utility.yul\":13016:13087   */\n      tag_414\n        /* \"#utility.yul\":13084:13085   */\n      0x00\n        /* \"#utility.yul\":13073:13082   */\n      dup4\n        /* \"#utility.yul\":13069:13086   */\n      add\n        /* \"#utility.yul\":13060:13066   */\n      dup8\n        /* \"#utility.yul\":13016:13087   */\n      tag_222\n      jump\t// in\n    tag_414:\n        /* \"#utility.yul\":13097:13169   */\n      tag_415\n        /* \"#utility.yul\":13165:13167   */\n      0x20\n        /* \"#utility.yul\":13154:13163   */\n      dup4\n        /* \"#utility.yul\":13150:13168   */\n      add\n        /* \"#utility.yul\":13141:13147   */\n      dup7\n        /* \"#utility.yul\":13097:13169   */\n      tag_239\n      jump\t// in\n    tag_415:\n        /* \"#utility.yul\":13179:13251   */\n      tag_416\n        /* \"#utility.yul\":13247:13249   */\n      0x40\n        /* \"#utility.yul\":13236:13245   */\n      dup4\n        /* \"#utility.yul\":13232:13250   */\n      add\n        /* \"#utility.yul\":13223:13229   */\n      dup6\n        /* \"#utility.yul\":13179:13251   */\n      tag_239\n      jump\t// in\n    tag_416:\n        /* \"#utility.yul\":13298:13307   */\n      dup2\n        /* \"#utility.yul\":13292:13296   */\n      dup2\n        /* \"#utility.yul\":13288:13308   */\n      sub\n        /* \"#utility.yul\":13283:13285   */\n      0x60\n        /* \"#utility.yul\":13272:13281   */\n      dup4\n        /* \"#utility.yul\":13268:13286   */\n      add\n        /* \"#utility.yul\":13261:13309   */\n      mstore\n        /* \"#utility.yul\":13326:13402   */\n      tag_417\n        /* \"#utility.yul\":13397:13401   */\n      dup2\n        /* \"#utility.yul\":13388:13394   */\n      dup5\n        /* \"#utility.yul\":13326:13402   */\n      tag_249\n      jump\t// in\n    tag_417:\n        /* \"#utility.yul\":13318:13402   */\n      swap1\n      pop\n        /* \"#utility.yul\":12769:13409   */\n      swap6\n      swap5\n      pop\n      pop\n      pop\n      pop\n      pop\n      jump\t// out\n        /* \"#utility.yul\":13415:13583   */\n    tag_250:\n        /* \"#utility.yul\":13555:13575   */\n      0x496e73756666696369656e7420746f6b656e0000000000000000000000000000\n        /* \"#utility.yul\":13551:13552   */\n      0x00\n        /* \"#utility.yul\":13543:13549   */\n      dup3\n        /* \"#utility.yul\":13539:13553   */\n      add\n        /* \"#utility.yul\":13532:13576   */\n      mstore\n        /* \"#utility.yul\":13415:13583   */\n      pop\n      jump\t// out\n        /* \"#utility.yul\":13589:13955   */\n    tag_251:\n        /* \"#utility.yul\":13731:13734   */\n      0x00\n        /* \"#utility.yul\":13752:13819   */\n      tag_420\n        /* \"#utility.yul\":13816:13818   */\n      0x12\n        /* \"#utility.yul\":13811:13814   */\n      dup4\n        /* \"#utility.yul\":13752:13819   */\n      tag_236\n      jump\t// in\n    tag_420:\n        /* \"#utility.yul\":13745:13819   */\n      swap2\n      pop\n        /* \"#utility.yul\":13828:13921   */\n      tag_421\n        /* \"#utility.yul\":13917:13920   */\n      dup3\n        /* \"#utility.yul\":13828:13921   */\n      tag_250\n      jump\t// in\n    tag_421:\n        /* \"#utility.yul\":13946:13948   */\n      0x20\n        /* \"#utility.yul\":13941:13944   */\n      dup3\n        /* \"#utility.yul\":13937:13949   */\n      add\n        /* \"#utility.yul\":13930:13949   */\n      swap1\n      pop\n        /* \"#utility.yul\":13589:13955   */\n      swap2\n      swap1\n      pop\n      jump\t// out\n        /* \"#utility.yul\":13961:14380   */\n    tag_85:\n        /* \"#utility.yul\":14127:14131   */\n      0x00\n        /* \"#utility.yul\":14165:14167   */\n      0x20\n        /* \"#utility.yul\":14154:14163   */\n      dup3\n        /* \"#utility.yul\":14150:14168   */\n      add\n        /* \"#utility.yul\":14142:14168   */\n      swap1\n      pop\n        /* \"#utility.yul\":14214:14223   */\n      dup2\n        /* \"#utility.yul\":14208:14212   */\n      dup2\n        /* \"#utility.yul\":14204:14224   */\n      sub\n        /* \"#utility.yul\":14200:14201   */\n      0x00\n        /* \"#utility.yul\":14189:14198   */\n      dup4\n        /* \"#utility.yul\":14185:14202   */\n      add\n        /* \"#utility.yul\":14178:14225   */\n      mstore\n        /* \"#utility.yul\":14242:14373   */\n      tag_423\n        /* \"#utility.yul\":14368:14372   */\n      dup2\n        /* \"#utility.yul\":14242:14373   */\n      tag_251\n      jump\t// in\n    tag_423:\n        /* \"#utility.yul\":14234:14373   */\n      swap1\n      pop\n        /* \"#utility.yul\":13961:14380   */\n      swap2\n      swap1\n      pop\n      jump\t// out\n        /* \"#utility.yul\":14386:14503   */\n    tag_252:\n        /* \"#utility.yul\":14495:14496   */\n      0x00\n        /* \"#utility.yul\":14492:14493   */\n      dup1\n        /* \"#utility.yul\":14485:14497   */\n      revert\n        /* \"#utility.yul\":14509:14689   */\n    tag_130:\n        /* \"#utility.yul\":14557:14634   */\n      0x4e487b7100000000000000000000000000000000000000000000000000000000\n        /* \"#utility.yul\":14554:14555   */\n      0x00\n        /* \"#utility.yul\":14547:14635   */\n      mstore\n        /* \"#utility.yul\":14654:14658   */\n      0x41\n        /* \"#utility.yul\":14651:14652   */\n      0x04\n        /* \"#utility.yul\":14644:14659   */\n      mstore\n        /* \"#utility.yul\":14678:14682   */\n      0x24\n        /* \"#utility.yul\":14675:14676   */\n      0x00\n        /* \"#utility.yul\":14668:14683   */\n      revert\n        /* \"#utility.yul\":14695:14976   */\n    tag_253:\n        /* \"#utility.yul\":14778:14805   */\n      tag_427\n        /* \"#utility.yul\":14800:14804   */\n      dup3\n        /* \"#utility.yul\":14778:14805   */\n      tag_248\n      jump\t// in\n    tag_427:\n        /* \"#utility.yul\":14770:14776   */\n      dup2\n        /* \"#utility.yul\":14766:14806   */\n      add\n        /* \"#utility.yul\":14908:14914   */\n      dup2\n        /* \"#utility.yul\":14896:14906   */\n      dup2\n        /* \"#utility.yul\":14893:14915   */\n      lt\n        /* \"#utility.yul\":14872:14890   */\n      0xffffffffffffffff\n        /* \"#utility.yul\":14860:14870   */\n      dup3\n        /* \"#utility.yul\":14857:14891   */\n      gt\n        /* \"#utility.yul\":14854:14916   */\n      or\n        /* \"#utility.yul\":14851:14939   */\n      iszero\n      tag_428\n      jumpi\n        /* \"#utility.yul\":14919:14937   */\n      tag_429\n      tag_130\n      jump\t// in\n    tag_429:\n        /* \"#utility.yul\":14851:14939   */\n    tag_428:\n        /* \"#utility.yul\":14959:14969   */\n      dup1\n        /* \"#utility.yul\":14955:14957   */\n      0x40\n        /* \"#utility.yul\":14948:14970   */\n      mstore\n        /* \"#utility.yul\":14738:14976   */\n      pop\n        /* \"#utility.yul\":14695:14976   */\n      pop\n      pop\n      jump\t// out\n        /* \"#utility.yul\":14982:15111   */\n    tag_254:\n        /* \"#utility.yul\":15016:15022   */\n      0x00\n        /* \"#utility.yul\":15043:15063   */\n      tag_431\n      tag_212\n      jump\t// in\n    tag_431:\n        /* \"#utility.yul\":15033:15063   */\n      swap1\n      pop\n        /* \"#utility.yul\":15072:15105   */\n      tag_432\n        /* \"#utility.yul\":15100:15104   */\n      dup3\n        /* \"#utility.yul\":15092:15098   */\n      dup3\n        /* \"#utility.yul\":15072:15105   */\n      tag_253\n      jump\t// in\n    tag_432:\n        /* \"#utility.yul\":14982:15111   */\n      swap2\n      swap1\n      pop\n      jump\t// out\n        /* \"#utility.yul\":15274:16011   */\n    tag_256:\n        /* \"#utility.yul\":15348:15353   */\n      0x00\n        /* \"#utility.yul\":15392:15396   */\n      0x60\n        /* \"#utility.yul\":15380:15389   */\n      dup3\n        /* \"#utility.yul\":15375:15378   */\n      dup5\n        /* \"#utility.yul\":15371:15390   */\n      sub\n        /* \"#utility.yul\":15367:15397   */\n      slt\n        /* \"#utility.yul\":15364:15481   */\n      iszero\n      tag_435\n      jumpi\n        /* \"#utility.yul\":15400:15479   */\n      tag_436\n      tag_252\n      jump\t// in\n    tag_436:\n        /* \"#utility.yul\":15364:15481   */\n    tag_435:\n        /* \"#utility.yul\":15499:15520   */\n      tag_437\n        /* \"#utility.yul\":15515:15519   */\n      0x60\n        /* \"#utility.yul\":15499:15520   */\n      tag_254\n      jump\t// in\n    tag_437:\n        /* \"#utility.yul\":15490:15520   */\n      swap1\n      pop\n        /* \"#utility.yul\":15581:15582   */\n      0x00\n        /* \"#utility.yul\":15621:15670   */\n      tag_438\n        /* \"#utility.yul\":15666:15669   */\n      dup5\n        /* \"#utility.yul\":15657:15663   */\n      dup3\n        /* \"#utility.yul\":15646:15655   */\n      dup6\n        /* \"#utility.yul\":15642:15664   */\n      add\n        /* \"#utility.yul\":15621:15670   */\n      tag_221\n      jump\t// in\n    tag_438:\n        /* \"#utility.yul\":15614:15618   */\n      0x00\n        /* \"#utility.yul\":15607:15612   */\n      dup4\n        /* \"#utility.yul\":15603:15619   */\n      add\n        /* \"#utility.yul\":15596:15671   */\n      mstore\n        /* \"#utility.yul\":15530:15682   */\n      pop\n        /* \"#utility.yul\":15743:15745   */\n      0x20\n        /* \"#utility.yul\":15784:15833   */\n      tag_439\n        /* \"#utility.yul\":15829:15832   */\n      dup5\n        /* \"#utility.yul\":15820:15826   */\n      dup3\n        /* \"#utility.yul\":15809:15818   */\n      dup6\n        /* \"#utility.yul\":15805:15827   */\n      add\n        /* \"#utility.yul\":15784:15833   */\n      tag_221\n      jump\t// in\n    tag_439:\n        /* \"#utility.yul\":15777:15781   */\n      0x20\n        /* \"#utility.yul\":15770:15775   */\n      dup4\n        /* \"#utility.yul\":15766:15782   */\n      add\n        /* \"#utility.yul\":15759:15834   */\n      mstore\n        /* \"#utility.yul\":15692:15845   */\n      pop\n        /* \"#utility.yul\":15903:15905   */\n      0x40\n        /* \"#utility.yul\":15944:15992   */\n      tag_440\n        /* \"#utility.yul\":15988:15991   */\n      dup5\n        /* \"#utility.yul\":15979:15985   */\n      dup3\n        /* \"#utility.yul\":15968:15977   */\n      dup6\n        /* \"#utility.yul\":15964:15986   */\n      add\n        /* \"#utility.yul\":15944:15992   */\n      tag_225\n      jump\t// in\n    tag_440:\n        /* \"#utility.yul\":15937:15941   */\n      0x40\n        /* \"#utility.yul\":15930:15935   */\n      dup4\n        /* \"#utility.yul\":15926:15942   */\n      add\n        /* \"#utility.yul\":15919:15993   */\n      mstore\n        /* \"#utility.yul\":15855:16004   */\n      pop\n        /* \"#utility.yul\":15274:16011   */\n      swap3\n      swap2\n      pop\n      pop\n      jump\t// out\n        /* \"#utility.yul\":16059:17331   */\n    tag_257:\n        /* \"#utility.yul\":16142:16147   */\n      0x00\n        /* \"#utility.yul\":16186:16192   */\n      0x0100\n        /* \"#utility.yul\":16174:16183   */\n      dup3\n        /* \"#utility.yul\":16169:16172   */\n      dup5\n        /* \"#utility.yul\":16165:16184   */\n      sub\n        /* \"#utility.yul\":16161:16193   */\n      slt\n        /* \"#utility.yul\":16158:16277   */\n      iszero\n      tag_442\n      jumpi\n        /* \"#utility.yul\":16196:16275   */\n      tag_443\n      tag_252\n      jump\t// in\n    tag_443:\n        /* \"#utility.yul\":16158:16277   */\n    tag_442:\n        /* \"#utility.yul\":16295:16316   */\n      tag_444\n        /* \"#utility.yul\":16311:16315   */\n      0xc0\n        /* \"#utility.yul\":16295:16316   */\n      tag_254\n      jump\t// in\n    tag_444:\n        /* \"#utility.yul\":16286:16316   */\n      swap1\n      pop\n        /* \"#utility.yul\":16378:16379   */\n      0x00\n        /* \"#utility.yul\":16418:16467   */\n      tag_445\n        /* \"#utility.yul\":16463:16466   */\n      dup5\n        /* \"#utility.yul\":16454:16460   */\n      dup3\n        /* \"#utility.yul\":16443:16452   */\n      dup6\n        /* \"#utility.yul\":16439:16461   */\n      add\n        /* \"#utility.yul\":16418:16467   */\n      tag_217\n      jump\t// in\n    tag_445:\n        /* \"#utility.yul\":16411:16415   */\n      0x00\n        /* \"#utility.yul\":16404:16409   */\n      dup4\n        /* \"#utility.yul\":16400:16416   */\n      add\n        /* \"#utility.yul\":16393:16468   */\n      mstore\n        /* \"#utility.yul\":16326:16479   */\n      pop\n        /* \"#utility.yul\":16541:16543   */\n      0x20\n        /* \"#utility.yul\":16582:16631   */\n      tag_446\n        /* \"#utility.yul\":16627:16630   */\n      dup5\n        /* \"#utility.yul\":16618:16624   */\n      dup3\n        /* \"#utility.yul\":16607:16616   */\n      dup6\n        /* \"#utility.yul\":16603:16625   */\n      add\n        /* \"#utility.yul\":16582:16631   */\n      tag_217\n      jump\t// in\n    tag_446:\n        /* \"#utility.yul\":16575:16579   */\n      0x20\n        /* \"#utility.yul\":16568:16573   */\n      dup4\n        /* \"#utility.yul\":16564:16580   */\n      add\n        /* \"#utility.yul\":16557:16632   */\n      mstore\n        /* \"#utility.yul\":16489:16643   */\n      pop\n        /* \"#utility.yul\":16703:16705   */\n      0x40\n        /* \"#utility.yul\":16744:16793   */\n      tag_447\n        /* \"#utility.yul\":16789:16792   */\n      dup5\n        /* \"#utility.yul\":16780:16786   */\n      dup3\n        /* \"#utility.yul\":16769:16778   */\n      dup6\n        /* \"#utility.yul\":16765:16787   */\n      add\n        /* \"#utility.yul\":16744:16793   */\n      tag_221\n      jump\t// in\n    tag_447:\n        /* \"#utility.yul\":16737:16741   */\n      0x40\n        /* \"#utility.yul\":16730:16735   */\n      dup4\n        /* \"#utility.yul\":16726:16742   */\n      add\n        /* \"#utility.yul\":16719:16794   */\n      mstore\n        /* \"#utility.yul\":16653:16805   */\n      pop\n        /* \"#utility.yul\":16867:16869   */\n      0x60\n        /* \"#utility.yul\":16908:16982   */\n      tag_448\n        /* \"#utility.yul\":16978:16981   */\n      dup5\n        /* \"#utility.yul\":16969:16975   */\n      dup3\n        /* \"#utility.yul\":16958:16967   */\n      dup6\n        /* \"#utility.yul\":16954:16976   */\n      add\n        /* \"#utility.yul\":16908:16982   */\n      tag_256\n      jump\t// in\n    tag_448:\n        /* \"#utility.yul\":16901:16905   */\n      0x60\n        /* \"#utility.yul\":16894:16899   */\n      dup4\n        /* \"#utility.yul\":16890:16906   */\n      add\n        /* \"#utility.yul\":16883:16983   */\n      mstore\n        /* \"#utility.yul\":16815:16994   */\n      pop\n        /* \"#utility.yul\":17057:17060   */\n      0xc0\n        /* \"#utility.yul\":17099:17147   */\n      tag_449\n        /* \"#utility.yul\":17143:17146   */\n      dup5\n        /* \"#utility.yul\":17134:17140   */\n      dup3\n        /* \"#utility.yul\":17123:17132   */\n      dup6\n        /* \"#utility.yul\":17119:17141   */\n      add\n        /* \"#utility.yul\":17099:17147   */\n      tag_225\n      jump\t// in\n    tag_449:\n        /* \"#utility.yul\":17092:17096   */\n      0x80\n        /* \"#utility.yul\":17085:17090   */\n      dup4\n        /* \"#utility.yul\":17081:17097   */\n      add\n        /* \"#utility.yul\":17074:17148   */\n      mstore\n        /* \"#utility.yul\":17004:17159   */\n      pop\n        /* \"#utility.yul\":17222:17225   */\n      0xe0\n        /* \"#utility.yul\":17264:17312   */\n      tag_450\n        /* \"#utility.yul\":17308:17311   */\n      dup5\n        /* \"#utility.yul\":17299:17305   */\n      dup3\n        /* \"#utility.yul\":17288:17297   */\n      dup6\n        /* \"#utility.yul\":17284:17306   */\n      add\n        /* \"#utility.yul\":17264:17312   */\n      tag_225\n      jump\t// in\n    tag_450:\n        /* \"#utility.yul\":17257:17261   */\n      0xa0\n        /* \"#utility.yul\":17250:17255   */\n      dup4\n        /* \"#utility.yul\":17246:17262   */\n      add\n        /* \"#utility.yul\":17239:17313   */\n      mstore\n        /* \"#utility.yul\":17169:17324   */\n      pop\n        /* \"#utility.yul\":16059:17331   */\n      swap3\n      swap2\n      pop\n      pop\n      jump\t// out\n        /* \"#utility.yul\":17337:17735   */\n    tag_91:\n        /* \"#utility.yul\":17430:17436   */\n      0x00\n        /* \"#utility.yul\":17479:17482   */\n      0x0100\n        /* \"#utility.yul\":17467:17476   */\n      dup3\n        /* \"#utility.yul\":17458:17465   */\n      dup5\n        /* \"#utility.yul\":17454:17477   */\n      sub\n        /* \"#utility.yul\":17450:17483   */\n      slt\n        /* \"#utility.yul\":17447:17567   */\n      iszero\n      tag_452\n      jumpi\n        /* \"#utility.yul\":17486:17565   */\n      tag_453\n      tag_213\n      jump\t// in\n    tag_453:\n        /* \"#utility.yul\":17447:17567   */\n    tag_452:\n        /* \"#utility.yul\":17606:17607   */\n      0x00\n        /* \"#utility.yul\":17631:17718   */\n      tag_454\n        /* \"#utility.yul\":17710:17717   */\n      dup5\n        /* \"#utility.yul\":17701:17707   */\n      dup3\n        /* \"#utility.yul\":17690:17699   */\n      dup6\n        /* \"#utility.yul\":17686:17708   */\n      add\n        /* \"#utility.yul\":17631:17718   */\n      tag_257\n      jump\t// in\n    tag_454:\n        /* \"#utility.yul\":17621:17718   */\n      swap2\n      pop\n        /* \"#utility.yul\":17577:17728   */\n      pop\n        /* \"#utility.yul\":17337:17735   */\n      swap3\n      swap2\n      pop\n      pop\n      jump\t// out\n        /* \"#utility.yul\":17741:17849   */\n    tag_258:\n        /* \"#utility.yul\":17818:17842   */\n      tag_456\n        /* \"#utility.yul\":17836:17841   */\n      dup2\n        /* \"#utility.yul\":17818:17842   */\n      tag_218\n      jump\t// in\n    tag_456:\n        /* \"#utility.yul\":17813:17816   */\n      dup3\n        /* \"#utility.yul\":17806:17843   */\n      mstore\n        /* \"#utility.yul\":17741:17849   */\n      pop\n      pop\n      jump\t// out\n        /* \"#utility.yul\":17949:19574   */\n    tag_259:\n        /* \"#utility.yul\":18126:18132   */\n      0x0100\n        /* \"#utility.yul\":18121:18124   */\n      dup3\n        /* \"#utility.yul\":18117:18133   */\n      add\n        /* \"#utility.yul\":18218:18222   */\n      0x00\n        /* \"#utility.yul\":18211:18216   */\n      dup3\n        /* \"#utility.yul\":18207:18223   */\n      add\n        /* \"#utility.yul\":18201:18224   */\n      mload\n        /* \"#utility.yul\":18237:18300   */\n      tag_458\n        /* \"#utility.yul\":18294:18298   */\n      0x00\n        /* \"#utility.yul\":18289:18292   */\n      dup6\n        /* \"#utility.yul\":18285:18299   */\n      add\n        /* \"#utility.yul\":18271:18283   */\n      dup3\n        /* \"#utility.yul\":18237:18300   */\n      tag_241\n      jump\t// in\n    tag_458:\n        /* \"#utility.yul\":18143:18310   */\n      pop\n        /* \"#utility.yul\":18396:18400   */\n      0x20\n        /* \"#utility.yul\":18389:18394   */\n      dup3\n        /* \"#utility.yul\":18385:18401   */\n      add\n        /* \"#utility.yul\":18379:18402   */\n      mload\n        /* \"#utility.yul\":18415:18478   */\n      tag_459\n        /* \"#utility.yul\":18472:18476   */\n      0x20\n        /* \"#utility.yul\":18467:18470   */\n      dup6\n        /* \"#utility.yul\":18463:18477   */\n      add\n        /* \"#utility.yul\":18449:18461   */\n      dup3\n        /* \"#utility.yul\":18415:18478   */\n      tag_241\n      jump\t// in\n    tag_459:\n        /* \"#utility.yul\":18320:18488   */\n      pop\n        /* \"#utility.yul\":18569:18573   */\n      0x40\n        /* \"#utility.yul\":18562:18567   */\n      dup3\n        /* \"#utility.yul\":18558:18574   */\n      add\n        /* \"#utility.yul\":18552:18575   */\n      mload\n        /* \"#utility.yul\":18588:18649   */\n      tag_460\n        /* \"#utility.yul\":18643:18647   */\n      0x40\n        /* \"#utility.yul\":18638:18641   */\n      dup6\n        /* \"#utility.yul\":18634:18648   */\n      add\n        /* \"#utility.yul\":18620:18632   */\n      dup3\n        /* \"#utility.yul\":18588:18649   */\n      tag_242\n      jump\t// in\n    tag_460:\n        /* \"#utility.yul\":18498:18659   */\n      pop\n        /* \"#utility.yul\":18746:18750   */\n      0x60\n        /* \"#utility.yul\":18739:18744   */\n      dup3\n        /* \"#utility.yul\":18735:18751   */\n      add\n        /* \"#utility.yul\":18729:18752   */\n      mload\n        /* \"#utility.yul\":18765:18828   */\n      tag_461\n        /* \"#utility.yul\":18822:18826   */\n      0x60\n        /* \"#utility.yul\":18817:18820   */\n      dup6\n        /* \"#utility.yul\":18813:18827   */\n      add\n        /* \"#utility.yul\":18799:18811   */\n      dup3\n        /* \"#utility.yul\":18765:18828   */\n      tag_241\n      jump\t// in\n    tag_461:\n        /* \"#utility.yul\":18669:18838   */\n      pop\n        /* \"#utility.yul\":18924:18928   */\n      0x80\n        /* \"#utility.yul\":18917:18922   */\n      dup3\n        /* \"#utility.yul\":18913:18929   */\n      add\n        /* \"#utility.yul\":18907:18930   */\n      mload\n        /* \"#utility.yul\":18943:19006   */\n      tag_462\n        /* \"#utility.yul\":19000:19004   */\n      0x80\n        /* \"#utility.yul\":18995:18998   */\n      dup6\n        /* \"#utility.yul\":18991:19005   */\n      add\n        /* \"#utility.yul\":18977:18989   */\n      dup3\n        /* \"#utility.yul\":18943:19006   */\n      tag_240\n      jump\t// in\n    tag_462:\n        /* \"#utility.yul\":18848:19016   */\n      pop\n        /* \"#utility.yul\":19102:19106   */\n      0xa0\n        /* \"#utility.yul\":19095:19100   */\n      dup3\n        /* \"#utility.yul\":19091:19107   */\n      add\n        /* \"#utility.yul\":19085:19108   */\n      mload\n        /* \"#utility.yul\":19121:19184   */\n      tag_463\n        /* \"#utility.yul\":19178:19182   */\n      0xa0\n        /* \"#utility.yul\":19173:19176   */\n      dup6\n        /* \"#utility.yul\":19169:19183   */\n      add\n        /* \"#utility.yul\":19155:19167   */\n      dup3\n        /* \"#utility.yul\":19121:19184   */\n      tag_240\n      jump\t// in\n    tag_463:\n        /* \"#utility.yul\":19026:19194   */\n      pop\n        /* \"#utility.yul\":19288:19292   */\n      0xc0\n        /* \"#utility.yul\":19281:19286   */\n      dup3\n        /* \"#utility.yul\":19277:19293   */\n      add\n        /* \"#utility.yul\":19271:19294   */\n      mload\n        /* \"#utility.yul\":19307:19370   */\n      tag_464\n        /* \"#utility.yul\":19364:19368   */\n      0xc0\n        /* \"#utility.yul\":19359:19362   */\n      dup6\n        /* \"#utility.yul\":19355:19369   */\n      add\n        /* \"#utility.yul\":19341:19353   */\n      dup3\n        /* \"#utility.yul\":19307:19370   */\n      tag_240\n      jump\t// in\n    tag_464:\n        /* \"#utility.yul\":19204:19380   */\n      pop\n        /* \"#utility.yul\":19475:19479   */\n      0xe0\n        /* \"#utility.yul\":19468:19473   */\n      dup3\n        /* \"#utility.yul\":19464:19480   */\n      add\n        /* \"#utility.yul\":19458:19481   */\n      mload\n        /* \"#utility.yul\":19494:19557   */\n      tag_465\n        /* \"#utility.yul\":19551:19555   */\n      0xe0\n        /* \"#utility.yul\":19546:19549   */\n      dup6\n        /* \"#utility.yul\":19542:19556   */\n      add\n        /* \"#utility.yul\":19528:19540   */\n      dup3\n        /* \"#utility.yul\":19494:19557   */\n      tag_258\n      jump\t// in\n    tag_465:\n        /* \"#utility.yul\":19390:19567   */\n      pop\n        /* \"#utility.yul\":18095:19574   */\n      pop\n        /* \"#utility.yul\":17949:19574   */\n      pop\n      pop\n      jump\t// out\n        /* \"#utility.yul\":19580:19963   */\n    tag_101:\n        /* \"#utility.yul\":19753:19757   */\n      0x00\n        /* \"#utility.yul\":19791:19794   */\n      0x0100\n        /* \"#utility.yul\":19780:19789   */\n      dup3\n        /* \"#utility.yul\":19776:19795   */\n      add\n        /* \"#utility.yul\":19768:19795   */\n      swap1\n      pop\n        /* \"#utility.yul\":19805:19956   */\n      tag_467\n        /* \"#utility.yul\":19953:19954   */\n      0x00\n        /* \"#utility.yul\":19942:19951   */\n      dup4\n        /* \"#utility.yul\":19938:19955   */\n      add\n        /* \"#utility.yul\":19929:19935   */\n      dup5\n        /* \"#utility.yul\":19805:19956   */\n      tag_259\n      jump\t// in\n    tag_467:\n        /* \"#utility.yul\":19580:19963   */\n      swap3\n      swap2\n      pop\n      pop\n      jump\t// out\n        /* \"#utility.yul\":19969:20116   */\n    tag_260:\n        /* \"#utility.yul\":20070:20081   */\n      0x00\n        /* \"#utility.yul\":20107:20110   */\n      dup2\n        /* \"#utility.yul\":20092:20110   */\n      swap1\n      pop\n        /* \"#utility.yul\":19969:20116   */\n      swap3\n      swap2\n      pop\n      pop\n      jump\t// out\n        /* \"#utility.yul\":20122:20508   */\n    tag_261:\n        /* \"#utility.yul\":20226:20229   */\n      0x00\n        /* \"#utility.yul\":20254:20292   */\n      tag_470\n        /* \"#utility.yul\":20286:20291   */\n      dup3\n        /* \"#utility.yul\":20254:20292   */\n      tag_245\n      jump\t// in\n    tag_470:\n        /* \"#utility.yul\":20308:20396   */\n      tag_471\n        /* \"#utility.yul\":20389:20395   */\n      dup2\n        /* \"#utility.yul\":20384:20387   */\n      dup6\n        /* \"#utility.yul\":20308:20396   */\n      tag_260\n      jump\t// in\n    tag_471:\n        /* \"#utility.yul\":20301:20396   */\n      swap4\n      pop\n        /* \"#utility.yul\":20405:20470   */\n      tag_472\n        /* \"#utility.yul\":20463:20469   */\n      dup2\n        /* \"#utility.yul\":20458:20461   */\n      dup6\n        /* \"#utility.yul\":20451:20455   */\n      0x20\n        /* \"#utility.yul\":20444:20449   */\n      dup7\n        /* \"#utility.yul\":20440:20456   */\n      add\n        /* \"#utility.yul\":20405:20470   */\n      tag_247\n      jump\t// in\n    tag_472:\n        /* \"#utility.yul\":20495:20501   */\n      dup1\n        /* \"#utility.yul\":20490:20493   */\n      dup5\n        /* \"#utility.yul\":20486:20502   */\n      add\n        /* \"#utility.yul\":20479:20502   */\n      swap2\n      pop\n        /* \"#utility.yul\":20230:20508   */\n      pop\n        /* \"#utility.yul\":20122:20508   */\n      swap3\n      swap2\n      pop\n      pop\n      jump\t// out\n        /* \"#utility.yul\":20514:20785   */\n    tag_133:\n        /* \"#utility.yul\":20644:20647   */\n      0x00\n        /* \"#utility.yul\":20666:20759   */\n      tag_474\n        /* \"#utility.yul\":20755:20758   */\n      dup3\n        /* \"#utility.yul\":20746:20752   */\n      dup5\n        /* \"#utility.yul\":20666:20759   */\n      tag_261\n      jump\t// in\n    tag_474:\n        /* \"#utility.yul\":20659:20759   */\n      swap2\n      pop\n        /* \"#utility.yul\":20776:20779   */\n      dup2\n        /* \"#utility.yul\":20769:20779   */\n      swap1\n      pop\n        /* \"#utility.yul\":20514:20785   */\n      swap3\n      swap2\n      pop\n      pop\n      jump\t// out\n        /* \"#utility.yul\":20791:20944   */\n    tag_262:\n        /* \"#utility.yul\":20931:20936   */\n      0x5354450000000000000000000000000000000000000000000000000000000000\n        /* \"#utility.yul\":20927:20928   */\n      0x00\n        /* \"#utility.yul\":20919:20925   */\n      dup3\n        /* \"#utility.yul\":20915:20929   */\n      add\n        /* \"#utility.yul\":20908:20937   */\n      mstore\n        /* \"#utility.yul\":20791:20944   */\n      pop\n      jump\t// out\n        /* \"#utility.yul\":20950:21315   */\n    tag_263:\n        /* \"#utility.yul\":21092:21095   */\n      0x00\n        /* \"#utility.yul\":21113:21179   */\n      tag_477\n        /* \"#utility.yul\":21177:21178   */\n      0x03\n        /* \"#utility.yul\":21172:21175   */\n      dup4\n        /* \"#utility.yul\":21113:21179   */\n      tag_236\n      jump\t// in\n    tag_477:\n        /* \"#utility.yul\":21106:21179   */\n      swap2\n      pop\n        /* \"#utility.yul\":21188:21281   */\n      tag_478\n        /* \"#utility.yul\":21277:21280   */\n      dup3\n        /* \"#utility.yul\":21188:21281   */\n      tag_262\n      jump\t// in\n    tag_478:\n        /* \"#utility.yul\":21306:21308   */\n      0x20\n        /* \"#utility.yul\":21301:21304   */\n      dup3\n        /* \"#utility.yul\":21297:21309   */\n      add\n        /* \"#utility.yul\":21290:21309   */\n      swap1\n      pop\n        /* \"#utility.yul\":20950:21315   */\n      swap2\n      swap1\n      pop\n      jump\t// out\n        /* \"#utility.yul\":21321:21740   */\n    tag_139:\n        /* \"#utility.yul\":21487:21491   */\n      0x00\n        /* \"#utility.yul\":21525:21527   */\n      0x20\n        /* \"#utility.yul\":21514:21523   */\n      dup3\n        /* \"#utility.yul\":21510:21528   */\n      add\n        /* \"#utility.yul\":21502:21528   */\n      swap1\n      pop\n        /* \"#utility.yul\":21574:21583   */\n      dup2\n        /* \"#utility.yul\":21568:21572   */\n      dup2\n        /* \"#utility.yul\":21564:21584   */\n      sub\n        /* \"#utility.yul\":21560:21561   */\n      0x00\n        /* \"#utility.yul\":21549:21558   */\n      dup4\n        /* \"#utility.yul\":21545:21562   */\n      add\n        /* \"#utility.yul\":21538:21585   */\n      mstore\n        /* \"#utility.yul\":21602:21733   */\n      tag_480\n        /* \"#utility.yul\":21728:21732   */\n      dup2\n        /* \"#utility.yul\":21602:21733   */\n      tag_263\n      jump\t// in\n    tag_480:\n        /* \"#utility.yul\":21594:21733   */\n      swap1\n      pop\n        /* \"#utility.yul\":21321:21740   */\n      swap2\n      swap1\n      pop\n      jump\t// out\n        /* \"#utility.yul\":21746:21861   */\n    tag_264:\n        /* \"#utility.yul\":21831:21854   */\n      tag_482\n        /* \"#utility.yul\":21848:21853   */\n      dup2\n        /* \"#utility.yul\":21831:21854   */\n      tag_223\n      jump\t// in\n    tag_482:\n        /* \"#utility.yul\":21826:21829   */\n      dup3\n        /* \"#utility.yul\":21819:21855   */\n      mstore\n        /* \"#utility.yul\":21746:21861   */\n      pop\n      pop\n      jump\t// out\n        /* \"#utility.yul\":21867:22305   */\n    tag_143:\n        /* \"#utility.yul\":22014:22018   */\n      0x00\n        /* \"#utility.yul\":22052:22054   */\n      0x60\n        /* \"#utility.yul\":22041:22050   */\n      dup3\n        /* \"#utility.yul\":22037:22055   */\n      add\n        /* \"#utility.yul\":22029:22055   */\n      swap1\n      pop\n        /* \"#utility.yul\":22065:22136   */\n      tag_484\n        /* \"#utility.yul\":22133:22134   */\n      0x00\n        /* \"#utility.yul\":22122:22131   */\n      dup4\n        /* \"#utility.yul\":22118:22135   */\n      add\n        /* \"#utility.yul\":22109:22115   */\n      dup7\n        /* \"#utility.yul\":22065:22136   */\n      tag_222\n      jump\t// in\n    tag_484:\n        /* \"#utility.yul\":22146:22218   */\n      tag_485\n        /* \"#utility.yul\":22214:22216   */\n      0x20\n        /* \"#utility.yul\":22203:22212   */\n      dup4\n        /* \"#utility.yul\":22199:22217   */\n      add\n        /* \"#utility.yul\":22190:22196   */\n      dup6\n        /* \"#utility.yul\":22146:22218   */\n      tag_222\n      jump\t// in\n    tag_485:\n        /* \"#utility.yul\":22228:22298   */\n      tag_486\n        /* \"#utility.yul\":22294:22296   */\n      0x40\n        /* \"#utility.yul\":22283:22292   */\n      dup4\n        /* \"#utility.yul\":22279:22297   */\n      add\n        /* \"#utility.yul\":22270:22276   */\n      dup5\n        /* \"#utility.yul\":22228:22298   */\n      tag_264\n      jump\t// in\n    tag_486:\n        /* \"#utility.yul\":21867:22305   */\n      swap5\n      swap4\n      pop\n      pop\n      pop\n      pop\n      jump\t// out\n        /* \"#utility.yul\":22311:22459   */\n    tag_265:\n        /* \"#utility.yul\":22413:22424   */\n      0x00\n        /* \"#utility.yul\":22450:22453   */\n      dup2\n        /* \"#utility.yul\":22435:22453   */\n      swap1\n      pop\n        /* \"#utility.yul\":22311:22459   */\n      swap3\n      swap2\n      pop\n      pop\n      jump\t// out\n        /* \"#utility.yul\":22465:22679   */\n    tag_266:\n        /* \"#utility.yul\":22605:22671   */\n      0xff00000000000000000000000000000000000000000000000000000000000000\n        /* \"#utility.yul\":22601:22602   */\n      0x00\n        /* \"#utility.yul\":22593:22599   */\n      dup3\n        /* \"#utility.yul\":22589:22603   */\n      add\n        /* \"#utility.yul\":22582:22672   */\n      mstore\n        /* \"#utility.yul\":22465:22679   */\n      pop\n      jump\t// out\n        /* \"#utility.yul\":22685:23085   */\n    tag_267:\n        /* \"#utility.yul\":22845:22848   */\n      0x00\n        /* \"#utility.yul\":22866:22950   */\n      tag_490\n        /* \"#utility.yul\":22948:22949   */\n      0x01\n        /* \"#utility.yul\":22943:22946   */\n      dup4\n        /* \"#utility.yul\":22866:22950   */\n      tag_265\n      jump\t// in\n    tag_490:\n        /* \"#utility.yul\":22859:22950   */\n      swap2\n      pop\n        /* \"#utility.yul\":22959:23052   */\n      tag_491\n        /* \"#utility.yul\":23048:23051   */\n      dup3\n        /* \"#utility.yul\":22959:23052   */\n      tag_266\n      jump\t// in\n    tag_491:\n        /* \"#utility.yul\":23077:23078   */\n      0x01\n        /* \"#utility.yul\":23072:23075   */\n      dup3\n        /* \"#utility.yul\":23068:23079   */\n      add\n        /* \"#utility.yul\":23061:23079   */\n      swap1\n      pop\n        /* \"#utility.yul\":22685:23085   */\n      swap2\n      swap1\n      pop\n      jump\t// out\n        /* \"#utility.yul\":23091:23185   */\n    tag_268:\n        /* \"#utility.yul\":23124:23132   */\n      0x00\n        /* \"#utility.yul\":23172:23177   */\n      dup2\n        /* \"#utility.yul\":23168:23170   */\n      0x60\n        /* \"#utility.yul\":23164:23178   */\n      shl\n        /* \"#utility.yul\":23143:23178   */\n      swap1\n      pop\n        /* \"#utility.yul\":23091:23185   */\n      swap2\n      swap1\n      pop\n      jump\t// out\n        /* \"#utility.yul\":23191:23285   */\n    tag_269:\n        /* \"#utility.yul\":23230:23237   */\n      0x00\n        /* \"#utility.yul\":23259:23279   */\n      tag_494\n        /* \"#utility.yul\":23273:23278   */\n      dup3\n        /* \"#utility.yul\":23259:23279   */\n      tag_268\n      jump\t// in\n    tag_494:\n        /* \"#utility.yul\":23248:23279   */\n      swap1\n      pop\n        /* \"#utility.yul\":23191:23285   */\n      swap2\n      swap1\n      pop\n      jump\t// out\n        /* \"#utility.yul\":23291:23391   */\n    tag_270:\n        /* \"#utility.yul\":23330:23337   */\n      0x00\n        /* \"#utility.yul\":23359:23385   */\n      tag_496\n        /* \"#utility.yul\":23379:23384   */\n      dup3\n        /* \"#utility.yul\":23359:23385   */\n      tag_269\n      jump\t// in\n    tag_496:\n        /* \"#utility.yul\":23348:23385   */\n      swap1\n      pop\n        /* \"#utility.yul\":23291:23391   */\n      swap2\n      swap1\n      pop\n      jump\t// out\n        /* \"#utility.yul\":23397:23554   */\n    tag_271:\n        /* \"#utility.yul\":23502:23547   */\n      tag_498\n        /* \"#utility.yul\":23522:23546   */\n      tag_499\n        /* \"#utility.yul\":23540:23545   */\n      dup3\n        /* \"#utility.yul\":23522:23546   */\n      tag_219\n      jump\t// in\n    tag_499:\n        /* \"#utility.yul\":23502:23547   */\n      tag_270\n      jump\t// in\n    tag_498:\n        /* \"#utility.yul\":23497:23500   */\n      dup3\n        /* \"#utility.yul\":23490:23548   */\n      mstore\n        /* \"#utility.yul\":23397:23554   */\n      pop\n      pop\n      jump\t// out\n        /* \"#utility.yul\":23560:23637   */\n    tag_272:\n        /* \"#utility.yul\":23597:23604   */\n      0x00\n        /* \"#utility.yul\":23626:23631   */\n      dup2\n        /* \"#utility.yul\":23615:23631   */\n      swap1\n      pop\n        /* \"#utility.yul\":23560:23637   */\n      swap2\n      swap1\n      pop\n      jump\t// out\n        /* \"#utility.yul\":23643:23722   */\n    tag_273:\n        /* \"#utility.yul\":23682:23689   */\n      0x00\n        /* \"#utility.yul\":23711:23716   */\n      dup2\n        /* \"#utility.yul\":23700:23716   */\n      swap1\n      pop\n        /* \"#utility.yul\":23643:23722   */\n      swap2\n      swap1\n      pop\n      jump\t// out\n        /* \"#utility.yul\":23728:23885   */\n    tag_274:\n        /* \"#utility.yul\":23833:23878   */\n      tag_503\n        /* \"#utility.yul\":23853:23877   */\n      tag_504\n        /* \"#utility.yul\":23871:23876   */\n      dup3\n        /* \"#utility.yul\":23853:23877   */\n      tag_272\n      jump\t// in\n    tag_504:\n        /* \"#utility.yul\":23833:23878   */\n      tag_273\n      jump\t// in\n    tag_503:\n        /* \"#utility.yul\":23828:23831   */\n      dup3\n        /* \"#utility.yul\":23821:23879   */\n      mstore\n        /* \"#utility.yul\":23728:23885   */\n      pop\n      pop\n      jump\t// out\n        /* \"#utility.yul\":23891:24695   */\n    tag_145:\n        /* \"#utility.yul\":24160:24163   */\n      0x00\n        /* \"#utility.yul\":24182:24330   */\n      tag_506\n        /* \"#utility.yul\":24326:24329   */\n      dup3\n        /* \"#utility.yul\":24182:24330   */\n      tag_267\n      jump\t// in\n    tag_506:\n        /* \"#utility.yul\":24175:24330   */\n      swap2\n      pop\n        /* \"#utility.yul\":24340:24415   */\n      tag_507\n        /* \"#utility.yul\":24411:24414   */\n      dup3\n        /* \"#utility.yul\":24402:24408   */\n      dup7\n        /* \"#utility.yul\":24340:24415   */\n      tag_271\n      jump\t// in\n    tag_507:\n        /* \"#utility.yul\":24440:24442   */\n      0x14\n        /* \"#utility.yul\":24435:24438   */\n      dup3\n        /* \"#utility.yul\":24431:24443   */\n      add\n        /* \"#utility.yul\":24424:24443   */\n      swap2\n      pop\n        /* \"#utility.yul\":24453:24528   */\n      tag_508\n        /* \"#utility.yul\":24524:24527   */\n      dup3\n        /* \"#utility.yul\":24515:24521   */\n      dup6\n        /* \"#utility.yul\":24453:24528   */\n      tag_274\n      jump\t// in\n    tag_508:\n        /* \"#utility.yul\":24553:24555   */\n      0x20\n        /* \"#utility.yul\":24548:24551   */\n      dup3\n        /* \"#utility.yul\":24544:24556   */\n      add\n        /* \"#utility.yul\":24537:24556   */\n      swap2\n      pop\n        /* \"#utility.yul\":24566:24641   */\n      tag_509\n        /* \"#utility.yul\":24637:24640   */\n      dup3\n        /* \"#utility.yul\":24628:24634   */\n      dup5\n        /* \"#utility.yul\":24566:24641   */\n      tag_274\n      jump\t// in\n    tag_509:\n        /* \"#utility.yul\":24666:24668   */\n      0x20\n        /* \"#utility.yul\":24661:24664   */\n      dup3\n        /* \"#utility.yul\":24657:24669   */\n      add\n        /* \"#utility.yul\":24650:24669   */\n      swap2\n      pop\n        /* \"#utility.yul\":24686:24689   */\n      dup2\n        /* \"#utility.yul\":24679:24689   */\n      swap1\n      pop\n        /* \"#utility.yul\":23891:24695   */\n      swap5\n      swap4\n      pop\n      pop\n      pop\n      pop\n      jump\t// out\n        /* \"#utility.yul\":24701:25033   */\n    tag_148:\n        /* \"#utility.yul\":24822:24826   */\n      0x00\n        /* \"#utility.yul\":24860:24862   */\n      0x40\n        /* \"#utility.yul\":24849:24858   */\n      dup3\n        /* \"#utility.yul\":24845:24863   */\n      add\n        /* \"#utility.yul\":24837:24863   */\n      swap1\n      pop\n        /* \"#utility.yul\":24873:24944   */\n      tag_511\n        /* \"#utility.yul\":24941:24942   */\n      0x00\n        /* \"#utility.yul\":24930:24939   */\n      dup4\n        /* \"#utility.yul\":24926:24943   */\n      add\n        /* \"#utility.yul\":24917:24923   */\n      dup6\n        /* \"#utility.yul\":24873:24944   */\n      tag_222\n      jump\t// in\n    tag_511:\n        /* \"#utility.yul\":24954:25026   */\n      tag_512\n        /* \"#utility.yul\":25022:25024   */\n      0x20\n        /* \"#utility.yul\":25011:25020   */\n      dup4\n        /* \"#utility.yul\":25007:25025   */\n      add\n        /* \"#utility.yul\":24998:25004   */\n      dup5\n        /* \"#utility.yul\":24954:25026   */\n      tag_239\n      jump\t// in\n    tag_512:\n        /* \"#utility.yul\":24701:25033   */\n      swap4\n      swap3\n      pop\n      pop\n      pop\n      jump\t// out\n        /* \"#utility.yul\":25039:25129   */\n    tag_275:\n        /* \"#utility.yul\":25073:25080   */\n      0x00\n        /* \"#utility.yul\":25116:25121   */\n      dup2\n        /* \"#utility.yul\":25109:25122   */\n      iszero\n        /* \"#utility.yul\":25102:25123   */\n      iszero\n        /* \"#utility.yul\":25091:25123   */\n      swap1\n      pop\n        /* \"#utility.yul\":25039:25129   */\n      swap2\n      swap1\n      pop\n      jump\t// out\n        /* \"#utility.yul\":25135:25251   */\n    tag_276:\n        /* \"#utility.yul\":25205:25226   */\n      tag_515\n        /* \"#utility.yul\":25220:25225   */\n      dup2\n        /* \"#utility.yul\":25205:25226   */\n      tag_275\n      jump\t// in\n    tag_515:\n        /* \"#utility.yul\":25198:25203   */\n      dup2\n        /* \"#utility.yul\":25195:25227   */\n      eq\n        /* \"#utility.yul\":25185:25245   */\n      tag_516\n      jumpi\n        /* \"#utility.yul\":25241:25242   */\n      0x00\n        /* \"#utility.yul\":25238:25239   */\n      dup1\n        /* \"#utility.yul\":25231:25243   */\n      revert\n        /* \"#utility.yul\":25185:25245   */\n    tag_516:\n        /* \"#utility.yul\":25135:25251   */\n      pop\n      jump\t// out\n        /* \"#utility.yul\":25257:25394   */\n    tag_277:\n        /* \"#utility.yul\":25311:25316   */\n      0x00\n        /* \"#utility.yul\":25342:25348   */\n      dup2\n        /* \"#utility.yul\":25336:25349   */\n      mload\n        /* \"#utility.yul\":25327:25349   */\n      swap1\n      pop\n        /* \"#utility.yul\":25358:25388   */\n      tag_518\n        /* \"#utility.yul\":25382:25387   */\n      dup2\n        /* \"#utility.yul\":25358:25388   */\n      tag_276\n      jump\t// in\n    tag_518:\n        /* \"#utility.yul\":25257:25394   */\n      swap3\n      swap2\n      pop\n      pop\n      jump\t// out\n        /* \"#utility.yul\":25400:25745   */\n    tag_156:\n        /* \"#utility.yul\":25467:25473   */\n      0x00\n        /* \"#utility.yul\":25516:25518   */\n      0x20\n        /* \"#utility.yul\":25504:25513   */\n      dup3\n        /* \"#utility.yul\":25495:25502   */\n      dup5\n        /* \"#utility.yul\":25491:25514   */\n      sub\n        /* \"#utility.yul\":25487:25519   */\n      slt\n        /* \"#utility.yul\":25484:25603   */\n      iszero\n      tag_520\n      jumpi\n        /* \"#utility.yul\":25522:25601   */\n      tag_521\n      tag_213\n      jump\t// in\n    tag_521:\n        /* \"#utility.yul\":25484:25603   */\n    tag_520:\n        /* \"#utility.yul\":25642:25643   */\n      0x00\n        /* \"#utility.yul\":25667:25728   */\n      tag_522\n        /* \"#utility.yul\":25720:25727   */\n      dup5\n        /* \"#utility.yul\":25711:25717   */\n      dup3\n        /* \"#utility.yul\":25700:25709   */\n      dup6\n        /* \"#utility.yul\":25696:25718   */\n      add\n        /* \"#utility.yul\":25667:25728   */\n      tag_277\n      jump\t// in\n    tag_522:\n        /* \"#utility.yul\":25657:25728   */\n      swap2\n      pop\n        /* \"#utility.yul\":25613:25738   */\n      pop\n        /* \"#utility.yul\":25400:25745   */\n      swap3\n      swap2\n      pop\n      pop\n      jump\t// out\n        /* \"#utility.yul\":25751:25903   */\n    tag_278:\n        /* \"#utility.yul\":25891:25895   */\n      0x5354000000000000000000000000000000000000000000000000000000000000\n        /* \"#utility.yul\":25887:25888   */\n      0x00\n        /* \"#utility.yul\":25879:25885   */\n      dup3\n        /* \"#utility.yul\":25875:25889   */\n      add\n        /* \"#utility.yul\":25868:25896   */\n      mstore\n        /* \"#utility.yul\":25751:25903   */\n      pop\n      jump\t// out\n        /* \"#utility.yul\":25909:26274   */\n    tag_279:\n        /* \"#utility.yul\":26051:26054   */\n      0x00\n        /* \"#utility.yul\":26072:26138   */\n      tag_525\n        /* \"#utility.yul\":26136:26137   */\n      0x02\n        /* \"#utility.yul\":26131:26134   */\n      dup4\n        /* \"#utility.yul\":26072:26138   */\n      tag_236\n      jump\t// in\n    tag_525:\n        /* \"#utility.yul\":26065:26138   */\n      swap2\n      pop\n        /* \"#utility.yul\":26147:26240   */\n      tag_526\n        /* \"#utility.yul\":26236:26239   */\n      dup3\n        /* \"#utility.yul\":26147:26240   */\n      tag_278\n      jump\t// in\n    tag_526:\n        /* \"#utility.yul\":26265:26267   */\n      0x20\n        /* \"#utility.yul\":26260:26263   */\n      dup3\n        /* \"#utility.yul\":26256:26268   */\n      add\n        /* \"#utility.yul\":26249:26268   */\n      swap1\n      pop\n        /* \"#utility.yul\":25909:26274   */\n      swap2\n      swap1\n      pop\n      jump\t// out\n        /* \"#utility.yul\":26280:26699   */\n    tag_159:\n        /* \"#utility.yul\":26446:26450   */\n      0x00\n        /* \"#utility.yul\":26484:26486   */\n      0x20\n        /* \"#utility.yul\":26473:26482   */\n      dup3\n        /* \"#utility.yul\":26469:26487   */\n      add\n        /* \"#utility.yul\":26461:26487   */\n      swap1\n      pop\n        /* \"#utility.yul\":26533:26542   */\n      dup2\n        /* \"#utility.yul\":26527:26531   */\n      dup2\n        /* \"#utility.yul\":26523:26543   */\n      sub\n        /* \"#utility.yul\":26519:26520   */\n      0x00\n        /* \"#utility.yul\":26508:26517   */\n      dup4\n        /* \"#utility.yul\":26504:26521   */\n      add\n        /* \"#utility.yul\":26497:26544   */\n      mstore\n        /* \"#utility.yul\":26561:26692   */\n      tag_528\n        /* \"#utility.yul\":26687:26691   */\n      dup2\n        /* \"#utility.yul\":26561:26692   */\n      tag_279\n      jump\t// in\n    tag_528:\n        /* \"#utility.yul\":26553:26692   */\n      swap1\n      pop\n        /* \"#utility.yul\":26280:26699   */\n      swap2\n      swap1\n      pop\n      jump\t// out\n        /* \"#utility.yul\":26705:26857   */\n    tag_280:\n        /* \"#utility.yul\":26845:26849   */\n      0x5341000000000000000000000000000000000000000000000000000000000000\n        /* \"#utility.yul\":26841:26842   */\n      0x00\n        /* \"#utility.yul\":26833:26839   */\n      dup3\n        /* \"#utility.yul\":26829:26843   */\n      add\n        /* \"#utility.yul\":26822:26850   */\n      mstore\n        /* \"#utility.yul\":26705:26857   */\n      pop\n      jump\t// out\n        /* \"#utility.yul\":26863:27228   */\n    tag_281:\n        /* \"#utility.yul\":27005:27008   */\n      0x00\n        /* \"#utility.yul\":27026:27092   */\n      tag_531\n        /* \"#utility.yul\":27090:27091   */\n      0x02\n        /* \"#utility.yul\":27085:27088   */\n      dup4\n        /* \"#utility.yul\":27026:27092   */\n      tag_236\n      jump\t// in\n    tag_531:\n        /* \"#utility.yul\":27019:27092   */\n      swap2\n      pop\n        /* \"#utility.yul\":27101:27194   */\n      tag_532\n        /* \"#utility.yul\":27190:27193   */\n      dup3\n        /* \"#utility.yul\":27101:27194   */\n      tag_280\n      jump\t// in\n    tag_532:\n        /* \"#utility.yul\":27219:27221   */\n      0x20\n        /* \"#utility.yul\":27214:27217   */\n      dup3\n        /* \"#utility.yul\":27210:27222   */\n      add\n        /* \"#utility.yul\":27203:27222   */\n      swap1\n      pop\n        /* \"#utility.yul\":26863:27228   */\n      swap2\n      swap1\n      pop\n      jump\t// out\n        /* \"#utility.yul\":27234:27653   */\n    tag_174:\n        /* \"#utility.yul\":27400:27404   */\n      0x00\n        /* \"#utility.yul\":27438:27440   */\n      0x20\n        /* \"#utility.yul\":27427:27436   */\n      dup3\n        /* \"#utility.yul\":27423:27441   */\n      add\n        /* \"#utility.yul\":27415:27441   */\n      swap1\n      pop\n        /* \"#utility.yul\":27487:27496   */\n      dup2\n        /* \"#utility.yul\":27481:27485   */\n      dup2\n        /* \"#utility.yul\":27477:27497   */\n      sub\n        /* \"#utility.yul\":27473:27474   */\n      0x00\n        /* \"#utility.yul\":27462:27471   */\n      dup4\n        /* \"#utility.yul\":27458:27475   */\n      add\n        /* \"#utility.yul\":27451:27498   */\n      mstore\n        /* \"#utility.yul\":27515:27646   */\n      tag_534\n        /* \"#utility.yul\":27641:27645   */\n      dup2\n        /* \"#utility.yul\":27515:27646   */\n      tag_281\n      jump\t// in\n    tag_534:\n        /* \"#utility.yul\":27507:27646   */\n      swap1\n      pop\n        /* \"#utility.yul\":27234:27653   */\n      swap2\n      swap1\n      pop\n      jump\t// out\n        /* \"#utility.yul\":27659:27839   */\n    tag_282:\n        /* \"#utility.yul\":27707:27784   */\n      0x4e487b7100000000000000000000000000000000000000000000000000000000\n        /* \"#utility.yul\":27704:27705   */\n      0x00\n        /* \"#utility.yul\":27697:27785   */\n      mstore\n        /* \"#utility.yul\":27804:27808   */\n      0x11\n        /* \"#utility.yul\":27801:27802   */\n      0x04\n        /* \"#utility.yul\":27794:27809   */\n      mstore\n        /* \"#utility.yul\":27828:27832   */\n      0x24\n        /* \"#utility.yul\":27825:27826   */\n      0x00\n        /* \"#utility.yul\":27818:27833   */\n      revert\n        /* \"#utility.yul\":27845:28036   */\n    tag_177:\n        /* \"#utility.yul\":27885:27888   */\n      0x00\n        /* \"#utility.yul\":27904:27924   */\n      tag_537\n        /* \"#utility.yul\":27922:27923   */\n      dup3\n        /* \"#utility.yul\":27904:27924   */\n      tag_215\n      jump\t// in\n    tag_537:\n        /* \"#utility.yul\":27899:27924   */\n      swap2\n      pop\n        /* \"#utility.yul\":27938:27958   */\n      tag_538\n        /* \"#utility.yul\":27956:27957   */\n      dup4\n        /* \"#utility.yul\":27938:27958   */\n      tag_215\n      jump\t// in\n    tag_538:\n        /* \"#utility.yul\":27933:27958   */\n      swap3\n      pop\n        /* \"#utility.yul\":27981:27982   */\n      dup3\n        /* \"#utility.yul\":27978:27979   */\n      dup3\n        /* \"#utility.yul\":27974:27983   */\n      add\n        /* \"#utility.yul\":27967:27983   */\n      swap1\n      pop\n        /* \"#utility.yul\":28002:28005   */\n      dup1\n        /* \"#utility.yul\":27999:28000   */\n      dup3\n        /* \"#utility.yul\":27996:28006   */\n      gt\n        /* \"#utility.yul\":27993:28029   */\n      iszero\n      tag_539\n      jumpi\n        /* \"#utility.yul\":28009:28027   */\n      tag_540\n      tag_282\n      jump\t// in\n    tag_540:\n        /* \"#utility.yul\":27993:28029   */\n    tag_539:\n        /* \"#utility.yul\":27845:28036   */\n      swap3\n      swap2\n      pop\n      pop\n      jump\t// out\n        /* \"#utility.yul\":28042:28236   */\n    tag_197:\n        /* \"#utility.yul\":28082:28086   */\n      0x00\n        /* \"#utility.yul\":28102:28122   */\n      tag_542\n        /* \"#utility.yul\":28120:28121   */\n      dup3\n        /* \"#utility.yul\":28102:28122   */\n      tag_215\n      jump\t// in\n    tag_542:\n        /* \"#utility.yul\":28097:28122   */\n      swap2\n      pop\n        /* \"#utility.yul\":28136:28156   */\n      tag_543\n        /* \"#utility.yul\":28154:28155   */\n      dup4\n        /* \"#utility.yul\":28136:28156   */\n      tag_215\n      jump\t// in\n    tag_543:\n        /* \"#utility.yul\":28131:28156   */\n      swap3\n      pop\n        /* \"#utility.yul\":28180:28181   */\n      dup3\n        /* \"#utility.yul\":28177:28178   */\n      dup3\n        /* \"#utility.yul\":28173:28182   */\n      sub\n        /* \"#utility.yul\":28165:28182   */\n      swap1\n      pop\n        /* \"#utility.yul\":28204:28205   */\n      dup2\n        /* \"#utility.yul\":28198:28202   */\n      dup2\n        /* \"#utility.yul\":28195:28206   */\n      gt\n        /* \"#utility.yul\":28192:28229   */\n      iszero\n      tag_544\n      jumpi\n        /* \"#utility.yul\":28209:28227   */\n      tag_545\n      tag_282\n      jump\t// in\n    tag_545:\n        /* \"#utility.yul\":28192:28229   */\n    tag_544:\n        /* \"#utility.yul\":28042:28236   */\n      swap3\n      swap2\n      pop\n      pop\n      jump\t// out\n        /* \"#utility.yul\":28242:28684   */\n    tag_201:\n        /* \"#utility.yul\":28391:28395   */\n      0x00\n        /* \"#utility.yul\":28429:28431   */\n      0x60\n        /* \"#utility.yul\":28418:28427   */\n      dup3\n        /* \"#utility.yul\":28414:28432   */\n      add\n        /* \"#utility.yul\":28406:28432   */\n      swap1\n      pop\n        /* \"#utility.yul\":28442:28513   */\n      tag_547\n        /* \"#utility.yul\":28510:28511   */\n      0x00\n        /* \"#utility.yul\":28499:28508   */\n      dup4\n        /* \"#utility.yul\":28495:28512   */\n      add\n        /* \"#utility.yul\":28486:28492   */\n      dup7\n        /* \"#utility.yul\":28442:28513   */\n      tag_222\n      jump\t// in\n    tag_547:\n        /* \"#utility.yul\":28523:28595   */\n      tag_548\n        /* \"#utility.yul\":28591:28593   */\n      0x20\n        /* \"#utility.yul\":28580:28589   */\n      dup4\n        /* \"#utility.yul\":28576:28594   */\n      add\n        /* \"#utility.yul\":28567:28573   */\n      dup6\n        /* \"#utility.yul\":28523:28595   */\n      tag_222\n      jump\t// in\n    tag_548:\n        /* \"#utility.yul\":28605:28677   */\n      tag_549\n        /* \"#utility.yul\":28673:28675   */\n      0x40\n        /* \"#utility.yul\":28662:28671   */\n      dup4\n        /* \"#utility.yul\":28658:28676   */\n      add\n        /* \"#utility.yul\":28649:28655   */\n      dup5\n        /* \"#utility.yul\":28605:28677   */\n      tag_239\n      jump\t// in\n    tag_549:\n        /* \"#utility.yul\":28242:28684   */\n      swap5\n      swap4\n      pop\n      pop\n      pop\n      pop\n      jump\t// out\n        /* \"#utility.yul\":28690:28843   */\n    tag_283:\n        /* \"#utility.yul\":28830:28835   */\n      0x5354460000000000000000000000000000000000000000000000000000000000\n        /* \"#utility.yul\":28826:28827   */\n      0x00\n        /* \"#utility.yul\":28818:28824   */\n      dup3\n        /* \"#utility.yul\":28814:28828   */\n      add\n        /* \"#utility.yul\":28807:28836   */\n      mstore\n        /* \"#utility.yul\":28690:28843   */\n      pop\n      jump\t// out\n        /* \"#utility.yul\":28849:29214   */\n    tag_284:\n        /* \"#utility.yul\":28991:28994   */\n      0x00\n        /* \"#utility.yul\":29012:29078   */\n      tag_552\n        /* \"#utility.yul\":29076:29077   */\n      0x03\n        /* \"#utility.yul\":29071:29074   */\n      dup4\n        /* \"#utility.yul\":29012:29078   */\n      tag_236\n      jump\t// in\n    tag_552:\n        /* \"#utility.yul\":29005:29078   */\n      swap2\n      pop\n        /* \"#utility.yul\":29087:29180   */\n      tag_553\n        /* \"#utility.yul\":29176:29179   */\n      dup3\n        /* \"#utility.yul\":29087:29180   */\n      tag_283\n      jump\t// in\n    tag_553:\n        /* \"#utility.yul\":29205:29207   */\n      0x20\n        /* \"#utility.yul\":29200:29203   */\n      dup3\n        /* \"#utility.yul\":29196:29208   */\n      add\n        /* \"#utility.yul\":29189:29208   */\n      swap1\n      pop\n        /* \"#utility.yul\":28849:29214   */\n      swap2\n      swap1\n      pop\n      jump\t// out\n        /* \"#utility.yul\":29220:29639   */\n    tag_211:\n        /* \"#utility.yul\":29386:29390   */\n      0x00\n        /* \"#utility.yul\":29424:29426   */\n      0x20\n        /* \"#utility.yul\":29413:29422   */\n      dup3\n        /* \"#utility.yul\":29409:29427   */\n      add\n        /* \"#utility.yul\":29401:29427   */\n      swap1\n      pop\n        /* \"#utility.yul\":29473:29482   */\n      dup2\n        /* \"#utility.yul\":29467:29471   */\n      dup2\n        /* \"#utility.yul\":29463:29483   */\n      sub\n        /* \"#utility.yul\":29459:29460   */\n      0x00\n        /* \"#utility.yul\":29448:29457   */\n      dup4\n        /* \"#utility.yul\":29444:29461   */\n      add\n        /* \"#utility.yul\":29437:29484   */\n      mstore\n        /* \"#utility.yul\":29501:29632   */\n      tag_555\n        /* \"#utility.yul\":29627:29631   */\n      dup2\n        /* \"#utility.yul\":29501:29632   */\n      tag_284\n      jump\t// in\n    tag_555:\n        /* \"#utility.yul\":29493:29632   */\n      swap1\n      pop\n        /* \"#utility.yul\":29220:29639   */\n      swap2\n      swap1\n      pop\n      jump\t// out\n\n    auxdata: 0xa2646970667358221220ce9940ad7e435bb3f7c55704562e4f9e098f32ce51f9934c3101b295a633a4a664736f6c63430008140033\n}\n",
				"bytecode": {
					"linkReferences": {},
					"object": "60e060405234801562000010575f80fd5b506040516200221938038062002219833981810160405281019062000036919062000186565b81818173ffffffffffffffffffffffffffffffffffffffff1660808173ffffffffffffffffffffffffffffffffffffffff16815250508073ffffffffffffffffffffffffffffffffffffffff1660a08173ffffffffffffffffffffffffffffffffffffffff168152505050508273ffffffffffffffffffffffffffffffffffffffff1660c08173ffffffffffffffffffffffffffffffffffffffff1681525050505050620001df565b5f80fd5b5f73ffffffffffffffffffffffffffffffffffffffff82169050919050565b5f6200010e82620000e3565b9050919050565b5f620001218262000102565b9050919050565b620001338162000115565b81146200013e575f80fd5b50565b5f81519050620001518162000128565b92915050565b620001628162000102565b81146200016d575f80fd5b50565b5f81519050620001808162000157565b92915050565b5f805f60608486031215620001a0576200019f620000df565b5b5f620001af8682870162000141565b9350506020620001c28682870162000170565b9250506040620001d58682870162000170565b9150509250925092565b60805160a05160c051611fc2620002575f395f81816104ae0152818161062a01528181610658015281816106a501526107df01525f81816101b1015281816102960152818161032c01528181610ebf01528181610f1f0152610f9c01525f81816103a3015281816104d201526105e30152611fc25ff3fe60806040526004361061007e575f3560e01c8063c31c9c071161004d578063c31c9c0714610101578063c45a01551461012b578063df2ab5bb14610155578063e9cbafb01461017157610085565b806312210e8a1461008957806349404b7c146100935780634aa4a4fc146100af578063833263e6146100d957610085565b3661008557005b5f80fd5b610091610199565b005b6100ad60048036038101906100a891906112a3565b6101ae565b005b3480156100ba575f80fd5b506100c361032a565b6040516100d091906112f0565b60405180910390f35b3480156100e4575f80fd5b506100ff60048036038101906100fa9190611341565b61034e565b005b34801561010c575f80fd5b506101156104ac565b6040516101229190611439565b60405180910390f35b348015610136575f80fd5b5061013f6104d0565b60405161014c91906112f0565b60405180910390f35b61016f600480360381019061016a9190611452565b6104f4565b005b34801561017c575f80fd5b5061019760048036038101906101929190611503565b6105cc565b005b5f4711156101ac576101ab33476109e9565b5b565b5f7f000000000000000000000000000000000000000000000000000000000000000073ffffffffffffffffffffffffffffffffffffffff166370a08231306040518263ffffffff1660e01b815260040161020891906112f0565b602060405180830381865afa158015610223573d5f803e3d5ffd5b505050506040513d601f19601f820116820180604052508101906102479190611588565b90508281101561028c576040517f08c379a00000000000000000000000000000000000000000000000000000000081526004016102839061160d565b60405180910390fd5b5f811115610325577f000000000000000000000000000000000000000000000000000000000000000073ffffffffffffffffffffffffffffffffffffffff16632e1a7d4d826040518263ffffffff1660e01b81526004016102ed919061163a565b5f604051808303815f87803b158015610304575f80fd5b505af1158015610316573d5f803e3d5ffd5b5050505061032482826109e9565b5b505050565b7f000000000000000000000000000000000000000000000000000000000000000081565b5f60405180606001604052808973ffffffffffffffffffffffffffffffffffffffff1681526020018873ffffffffffffffffffffffffffffffffffffffff1681526020018762ffffff1681525090505f6103c87f000000000000000000000000000000000000000000000000000000000000000083610ae4565b90508073ffffffffffffffffffffffffffffffffffffffff1663490e6cbc3088886040518060c001604052808c81526020018b81526020013373ffffffffffffffffffffffffffffffffffffffff1681526020018881526020018a62ffffff1681526020018962ffffff16815250604051602001610446919061173a565b6040516020818303038152906040526040518563ffffffff1660e01b815260040161047494939291906117de565b5f604051808303815f87803b15801561048b575f80fd5b505af115801561049d573d5f803e3d5ffd5b50505050505050505050505050565b7f000000000000000000000000000000000000000000000000000000000000000081565b7f000000000000000000000000000000000000000000000000000000000000000081565b5f8373ffffffffffffffffffffffffffffffffffffffff166370a08231306040518263ffffffff1660e01b815260040161052e91906112f0565b602060405180830381865afa158015610549573d5f803e3d5ffd5b505050506040513d601f19601f8201168201806040525081019061056d9190611588565b9050828110156105b2576040517f08c379a00000000000000000000000000000000000000000000000000000000081526004016105a990611872565b60405180910390fd5b5f8111156105c6576105c5848383610bb4565b5b50505050565b5f82828101906105dc9190611a0b565b905061060c7f00000000000000000000000000000000000000000000000000000000000000008260600151610d03565b505f81606001515f015190505f8260600151602001519050610652827f0000000000000000000000000000000000000000000000000000000000000000855f0151610d4d565b610681817f00000000000000000000000000000000000000000000000000000000000000008560200151610d4d565b5f610690846020015188610e9c565b90505f6106a0855f01518a610e9c565b90505f7f000000000000000000000000000000000000000000000000000000000000000073ffffffffffffffffffffffffffffffffffffffff1663414bf3896040518061010001604052808773ffffffffffffffffffffffffffffffffffffffff1681526020018873ffffffffffffffffffffffffffffffffffffffff168152602001896080015162ffffff1681526020013073ffffffffffffffffffffffffffffffffffffffff168152602001428152602001896020015181526020018581526020015f73ffffffffffffffffffffffffffffffffffffffff168152506040518263ffffffff1660e01b815260040161079a9190611ae6565b6020604051808303815f875af11580156107b6573d5f803e3d5ffd5b505050506040513d601f19601f820116820180604052508101906107da9190611588565b90505f7f000000000000000000000000000000000000000000000000000000000000000073ffffffffffffffffffffffffffffffffffffffff1663414bf3896040518061010001604052808973ffffffffffffffffffffffffffffffffffffffff1681526020018873ffffffffffffffffffffffffffffffffffffffff1681526020018a60a0015162ffffff1681526020013073ffffffffffffffffffffffffffffffffffffffff1681526020014281526020018a5f015181526020018781526020015f73ffffffffffffffffffffffffffffffffffffffff168152506040518263ffffffff1660e01b81526004016108d39190611ae6565b6020604051808303815f875af11580156108ef573d5f803e3d5ffd5b505050506040513d601f19601f820116820180604052508101906109139190611588565b90505f610923885f01518d610e9c565b90505f61093489602001518d610e9c565b9050610941883084610d4d565b61094c873083610d4d565b5f8211156109615761096088303385610ebd565b5b5f8111156109765761097587303384610ebd565b5b818411156109a8575f6109898584611092565b9050610996893083610d4d565b6109a689308c6040015184610ebd565b505b808311156109da575f6109bb8483611092565b90506109c8893083610d4d565b6109d888308c6040015184610ebd565b505b50505050505050505050505050565b5f8273ffffffffffffffffffffffffffffffffffffffff16825f67ffffffffffffffff811115610a1c57610a1b611894565b5b6040519080825280601f01601f191660200182016040528015610a4e5781602001600182028036833780820191505090505b50604051610a5c9190611b3a565b5f6040518083038185875af1925050503d805f8114610a96576040519150601f19603f3d011682016040523d82523d5f602084013e610a9b565b606091505b5050905080610adf576040517f08c379a0000000000000000000000000000000000000000000000000000000008152600401610ad690611b9a565b60405180910390fd5b505050565b5f816020015173ffffffffffffffffffffffffffffffffffffffff16825f015173ffffffffffffffffffffffffffffffffffffffff1610610b23575f80fd5b5f83835f015184602001518560400151604051602001610b4593929190611bc7565b604051602081830303815290604052805190602001207fe34f199b19b2b4f47f68442619d555527d244f78a3297ea89325f843f87b8b545f1b604051602001610b9093929190611cbe565b604051602081830303815290604052805190602001209050805f1c91505092915050565b5f808473ffffffffffffffffffffffffffffffffffffffff1663a9059cbb60e01b8585604051602401610be8929190611d05565b604051602081830303815290604052907bffffffffffffffffffffffffffffffffffffffffffffffffffffffff19166020820180517bffffffffffffffffffffffffffffffffffffffffffffffffffffffff8381831617835250505050604051610c529190611b3a565b5f604051808303815f865af19150503d805f8114610c8b576040519150601f19603f3d011682016040523d82523d5f602084013e610c90565b606091505b5091509150818015610cbd57505f81511480610cbc575080806020019051810190610cbb9190611d61565b5b5b610cfc576040517f08c379a0000000000000000000000000000000000000000000000000000000008152600401610cf390611dd6565b60405180910390fd5b5050505050565b5f610d0e8383610ae4565b90508073ffffffffffffffffffffffffffffffffffffffff163373ffffffffffffffffffffffffffffffffffffffff1614610d47575f80fd5b92915050565b5f808473ffffffffffffffffffffffffffffffffffffffff1663095ea7b360e01b8585604051602401610d81929190611d05565b604051602081830303815290604052907bffffffffffffffffffffffffffffffffffffffffffffffffffffffff19166020820180517bffffffffffffffffffffffffffffffffffffffffffffffffffffffff8381831617835250505050604051610deb9190611b3a565b5f604051808303815f865af19150503d805f8114610e24576040519150601f19603f3d011682016040523d82523d5f602084013e610e29565b606091505b5091509150818015610e5657505f81511480610e55575080806020019051810190610e549190611d61565b5b5b610e95576040517f08c379a0000000000000000000000000000000000000000000000000000000008152600401610e8c90611e3e565b60405180910390fd5b5050505050565b5f828284610eaa9190611e89565b9150811015610eb7575f80fd5b92915050565b7f000000000000000000000000000000000000000000000000000000000000000073ffffffffffffffffffffffffffffffffffffffff168473ffffffffffffffffffffffffffffffffffffffff16148015610f185750804710155b1561103b577f000000000000000000000000000000000000000000000000000000000000000073ffffffffffffffffffffffffffffffffffffffff1663d0e30db0826040518263ffffffff1660e01b81526004015f604051808303818588803b158015610f83575f80fd5b505af1158015610f95573d5f803e3d5ffd5b50505050507f000000000000000000000000000000000000000000000000000000000000000073ffffffffffffffffffffffffffffffffffffffff1663a9059cbb83836040518363ffffffff1660e01b8152600401610ff5929190611d05565b6020604051808303815f875af1158015611011573d5f803e3d5ffd5b505050506040513d601f19601f820116820180604052508101906110359190611d61565b5061108c565b3073ffffffffffffffffffffffffffffffffffffffff168373ffffffffffffffffffffffffffffffffffffffff160361107e57611079848383610bb4565b61108b565b61108a848484846110b3565b5b5b50505050565b5f8282846110a09190611ebc565b91508111156110ad575f80fd5b92915050565b5f808573ffffffffffffffffffffffffffffffffffffffff166323b872dd60e01b8686866040516024016110e993929190611eef565b604051602081830303815290604052907bffffffffffffffffffffffffffffffffffffffffffffffffffffffff19166020820180517bffffffffffffffffffffffffffffffffffffffffffffffffffffffff83818316178352505050506040516111539190611b3a565b5f604051808303815f865af19150503d805f811461118c576040519150601f19603f3d011682016040523d82523d5f602084013e611191565b606091505b50915091508180156111be57505f815114806111bd5750808060200190518101906111bc9190611d61565b5b5b6111fd576040517f08c379a00000000000000000000000000000000000000000000000000000000081526004016111f490611f6e565b60405180910390fd5b505050505050565b5f604051905090565b5f80fd5b5f80fd5b5f819050919050565b61122881611216565b8114611232575f80fd5b50565b5f813590506112438161121f565b92915050565b5f73ffffffffffffffffffffffffffffffffffffffff82169050919050565b5f61127282611249565b9050919050565b61128281611268565b811461128c575f80fd5b50565b5f8135905061129d81611279565b92915050565b5f80604083850312156112b9576112b861120e565b5b5f6112c685828601611235565b92505060206112d78582860161128f565b9150509250929050565b6112ea81611268565b82525050565b5f6020820190506113035f8301846112e1565b92915050565b5f62ffffff82169050919050565b61132081611309565b811461132a575f80fd5b50565b5f8135905061133b81611317565b92915050565b5f805f805f805f60e0888a03121561135c5761135b61120e565b5b5f6113698a828b0161128f565b975050602061137a8a828b0161128f565b965050604061138b8a828b0161132d565b955050606061139c8a828b01611235565b94505060806113ad8a828b01611235565b93505060a06113be8a828b0161132d565b92505060c06113cf8a828b0161132d565b91505092959891949750929550565b5f819050919050565b5f6114016113fc6113f784611249565b6113de565b611249565b9050919050565b5f611412826113e7565b9050919050565b5f61142382611408565b9050919050565b61143381611419565b82525050565b5f60208201905061144c5f83018461142a565b92915050565b5f805f606084860312156114695761146861120e565b5b5f6114768682870161128f565b935050602061148786828701611235565b92505060406114988682870161128f565b9150509250925092565b5f80fd5b5f80fd5b5f80fd5b5f8083601f8401126114c3576114c26114a2565b5b8235905067ffffffffffffffff8111156114e0576114df6114a6565b5b6020830191508360018202830111156114fc576114fb6114aa565b5b9250929050565b5f805f806060858703121561151b5761151a61120e565b5b5f61152887828801611235565b945050602061153987828801611235565b935050604085013567ffffffffffffffff81111561155a57611559611212565b5b611566878288016114ae565b925092505092959194509250565b5f815190506115828161121f565b92915050565b5f6020828403121561159d5761159c61120e565b5b5f6115aa84828501611574565b91505092915050565b5f82825260208201905092915050565b7f496e73756666696369656e7420574554483900000000000000000000000000005f82015250565b5f6115f76012836115b3565b9150611602826115c3565b602082019050919050565b5f6020820190508181035f830152611624816115eb565b9050919050565b61163481611216565b82525050565b5f60208201905061164d5f83018461162b565b92915050565b61165c81611216565b82525050565b61166b81611268565b82525050565b61167a81611309565b82525050565b606082015f8201516116945f850182611662565b5060208201516116a76020850182611662565b5060408201516116ba6040850182611671565b50505050565b61010082015f8201516116d55f850182611653565b5060208201516116e86020850182611653565b5060408201516116fb6040850182611662565b50606082015161170e6060850182611680565b50608082015161172160c0850182611671565b5060a082015161173460e0850182611671565b50505050565b5f6101008201905061174e5f8301846116c0565b92915050565b5f81519050919050565b5f82825260208201905092915050565b5f5b8381101561178b578082015181840152602081019050611770565b5f8484015250505050565b5f601f19601f8301169050919050565b5f6117b082611754565b6117ba818561175e565b93506117ca81856020860161176e565b6117d381611796565b840191505092915050565b5f6080820190506117f15f8301876112e1565b6117fe602083018661162b565b61180b604083018561162b565b818103606083015261181d81846117a6565b905095945050505050565b7f496e73756666696369656e7420746f6b656e00000000000000000000000000005f82015250565b5f61185c6012836115b3565b915061186782611828565b602082019050919050565b5f6020820190508181035f83015261188981611850565b9050919050565b5f80fd5b7f4e487b71000000000000000000000000000000000000000000000000000000005f52604160045260245ffd5b6118ca82611796565b810181811067ffffffffffffffff821117156118e9576118e8611894565b5b80604052505050565b5f6118fb611205565b905061190782826118c1565b919050565b5f6060828403121561192157611920611890565b5b61192b60606118f2565b90505f61193a8482850161128f565b5f83015250602061194d8482850161128f565b60208301525060406119618482850161132d565b60408301525092915050565b5f610100828403121561198357611982611890565b5b61198d60c06118f2565b90505f61199c84828501611235565b5f8301525060206119af84828501611235565b60208301525060406119c38482850161128f565b60408301525060606119d78482850161190c565b60608301525060c06119eb8482850161132d565b60808301525060e06119ff8482850161132d565b60a08301525092915050565b5f6101008284031215611a2157611a2061120e565b5b5f611a2e8482850161196d565b91505092915050565b611a4081611249565b82525050565b61010082015f820151611a5b5f850182611662565b506020820151611a6e6020850182611662565b506040820151611a816040850182611671565b506060820151611a946060850182611662565b506080820151611aa76080850182611653565b5060a0820151611aba60a0850182611653565b5060c0820151611acd60c0850182611653565b5060e0820151611ae060e0850182611a37565b50505050565b5f61010082019050611afa5f830184611a46565b92915050565b5f81905092915050565b5f611b1482611754565b611b1e8185611b00565b9350611b2e81856020860161176e565b80840191505092915050565b5f611b458284611b0a565b915081905092915050565b7f53544500000000000000000000000000000000000000000000000000000000005f82015250565b5f611b846003836115b3565b9150611b8f82611b50565b602082019050919050565b5f6020820190508181035f830152611bb181611b78565b9050919050565b611bc181611309565b82525050565b5f606082019050611bda5f8301866112e1565b611be760208301856112e1565b611bf46040830184611bb8565b949350505050565b5f81905092915050565b7fff000000000000000000000000000000000000000000000000000000000000005f82015250565b5f611c3a600183611bfc565b9150611c4582611c06565b600182019050919050565b5f8160601b9050919050565b5f611c6682611c50565b9050919050565b5f611c7782611c5c565b9050919050565b611c8f611c8a82611268565b611c6d565b82525050565b5f819050919050565b5f819050919050565b611cb8611cb382611c95565b611c9e565b82525050565b5f611cc882611c2e565b9150611cd48286611c7e565b601482019150611ce48285611ca7565b602082019150611cf48284611ca7565b602082019150819050949350505050565b5f604082019050611d185f8301856112e1565b611d25602083018461162b565b9392505050565b5f8115159050919050565b611d4081611d2c565b8114611d4a575f80fd5b50565b5f81519050611d5b81611d37565b92915050565b5f60208284031215611d7657611d7561120e565b5b5f611d8384828501611d4d565b91505092915050565b7f53540000000000000000000000000000000000000000000000000000000000005f82015250565b5f611dc06002836115b3565b9150611dcb82611d8c565b602082019050919050565b5f6020820190508181035f830152611ded81611db4565b9050919050565b7f53410000000000000000000000000000000000000000000000000000000000005f82015250565b5f611e286002836115b3565b9150611e3382611df4565b602082019050919050565b5f6020820190508181035f830152611e5581611e1c565b9050919050565b7f4e487b71000000000000000000000000000000000000000000000000000000005f52601160045260245ffd5b5f611e9382611216565b9150611e9e83611216565b9250828201905080821115611eb657611eb5611e5c565b5b92915050565b5f611ec682611216565b9150611ed183611216565b9250828203905081811115611ee957611ee8611e5c565b5b92915050565b5f606082019050611f025f8301866112e1565b611f0f60208301856112e1565b611f1c604083018461162b565b949350505050565b7f53544600000000000000000000000000000000000000000000000000000000005f82015250565b5f611f586003836115b3565b9150611f6382611f24565b602082019050919050565b5f6020820190508181035f830152611f8581611f4c565b905091905056fea2646970667358221220ce9940ad7e435bb3f7c55704562e4f9e098f32ce51f9934c3101b295a633a4a664736f6c63430008140033",
					"opcodes": "PUSH1 0xE0 PUSH1 0x40 MSTORE CALLVALUE DUP1 ISZERO PUSH3 0x10 JUMPI PUSH0 DUP1 REVERT JUMPDEST POP PUSH1 0x40 MLOAD PUSH3 0x2219 CODESIZE SUB DUP1 PUSH3 0x2219 DUP4 CODECOPY DUP2 DUP2 ADD PUSH1 0x40 MSTORE DUP2 ADD SWAP1 PUSH3 0x36 SWAP2 SWAP1 PUSH3 0x186 JUMP JUMPDEST DUP2 DUP2 DUP2 PUSH20 0xFFFFFFFFFFFFFFFFFFFFFFFFFFFFFFFFFFFFFFFF AND PUSH1 0x80 DUP2 PUSH20 0xFFFFFFFFFFFFFFFFFFFFFFFFFFFFFFFFFFFFFFFF AND DUP2 MSTORE POP POP DUP1 PUSH20 0xFFFFFFFFFFFFFFFFFFFFFFFFFFFFFFFFFFFFFFFF AND PUSH1 0xA0 DUP2 PUSH20 0xFFFFFFFFFFFFFFFFFFFFFFFFFFFFFFFFFFFFFFFF AND DUP2 MSTORE POP POP POP POP DUP3 PUSH20 0xFFFFFFFFFFFFFFFFFFFFFFFFFFFFFFFFFFFFFFFF AND PUSH1 0xC0 DUP2 PUSH20 0xFFFFFFFFFFFFFFFFFFFFFFFFFFFFFFFFFFFFFFFF AND DUP2 MSTORE POP POP POP POP POP PUSH3 0x1DF JUMP JUMPDEST PUSH0 DUP1 REVERT JUMPDEST PUSH0 PUSH20 0xFFFFFFFFFFFFFFFFFFFFFFFFFFFFFFFFFFFFFFFF DUP3 AND SWAP1 POP SWAP2 SWAP1 POP JUMP JUMPDEST PUSH0 PUSH3 0x10E DUP3 PUSH3 0xE3 JUMP JUMPDEST SWAP1 POP SWAP2 SWAP1 POP JUMP JUMPDEST PUSH0 PUSH3 0x121 DUP3 PUSH3 0x102 JUMP JUMPDEST SWAP1 POP SWAP2 SWAP1 POP JUMP JUMPDEST PUSH3 0x133 DUP2 PUSH3 0x115 JUMP JUMPDEST DUP2 EQ PUSH3 0x13E JUMPI PUSH0 DUP1 REVERT JUMPDEST POP JUMP JUMPDEST PUSH0 DUP2 MLOAD SWAP1 POP PUSH3 0x151 DUP2 PUSH3 0x128 JUMP JUMPDEST SWAP3 SWAP2 POP POP JUMP JUMPDEST PUSH3 0x162 DUP2 PUSH3 0x102 JUMP JUMPDEST DUP2 EQ PUSH3 0x16D JUMPI PUSH0 DUP1 REVERT JUMPDEST POP JUMP JUMPDEST PUSH0 DUP2 MLOAD SWAP1 POP PUSH3 0x180 DUP2 PUSH3 0x157 JUMP JUMPDEST SWAP3 SWAP2 POP POP JUMP JUMPDEST PUSH0 DUP1 PUSH0 PUSH1 0x60 DUP5 DUP7 SUB SLT ISZERO PUSH3 0x1A0 JUMPI PUSH3 0x19F PUSH3 0xDF JUMP JUMPDEST JUMPDEST PUSH0 PUSH3 0x1AF DUP7 DUP3 DUP8 ADD PUSH3 0x141 JUMP JUMPDEST SWAP4 POP POP PUSH1 0x20 PUSH3 0x1C2 DUP7 DUP3 DUP8 ADD PUSH3 0x170 JUMP JUMPDEST SWAP3 POP POP PUSH1 0x40 PUSH3 0x1D5 DUP7 DUP3 DUP8 ADD PUSH3 0x170 JUMP JUMPDEST SWAP2 POP POP SWAP3 POP SWAP3 POP SWAP3 JUMP JUMPDEST PUSH1 0x80 MLOAD PUSH1 0xA0 MLOAD PUSH1 0xC0 MLOAD PUSH2 0x1FC2 PUSH3 0x257 PUSH0 CODECOPY PUSH0 DUP2 DUP2 PUSH2 0x4AE ADD MSTORE DUP2 DUP2 PUSH2 0x62A ADD MSTORE DUP2 DUP2 PUSH2 0x658 ADD MSTORE DUP2 DUP2 PUSH2 0x6A5 ADD MSTORE PUSH2 0x7DF ADD MSTORE PUSH0 DUP2 DUP2 PUSH2 0x1B1 ADD MSTORE DUP2 DUP2 PUSH2 0x296 ADD MSTORE DUP2 DUP2 PUSH2 0x32C ADD MSTORE DUP2 DUP2 PUSH2 0xEBF ADD MSTORE DUP2 DUP2 PUSH2 0xF1F ADD MSTORE PUSH2 0xF9C ADD MSTORE PUSH0 DUP2 DUP2 PUSH2 0x3A3 ADD MSTORE DUP2 DUP2 PUSH2 0x4D2 ADD MSTORE PUSH2 0x5E3 ADD MSTORE PUSH2 0x1FC2 PUSH0 RETURN INVALID PUSH1 0x80 PUSH1 0x40 MSTORE PUSH1 0x4 CALLDATASIZE LT PUSH2 0x7E JUMPI PUSH0 CALLDATALOAD PUSH1 0xE0 SHR DUP1 PUSH4 0xC31C9C07 GT PUSH2 0x4D JUMPI DUP1 PUSH4 0xC31C9C07 EQ PUSH2 0x101 JUMPI DUP1 PUSH4 0xC45A0155 EQ PUSH2 0x12B JUMPI DUP1 PUSH4 0xDF2AB5BB EQ PUSH2 0x155 JUMPI DUP1 PUSH4 0xE9CBAFB0 EQ PUSH2 0x171 JUMPI PUSH2 0x85 JUMP JUMPDEST DUP1 PUSH4 0x12210E8A EQ PUSH2 0x89 JUMPI DUP1 PUSH4 0x49404B7C EQ PUSH2 0x93 JUMPI DUP1 PUSH4 0x4AA4A4FC EQ PUSH2 0xAF JUMPI DUP1 PUSH4 0x833263E6 EQ PUSH2 0xD9 JUMPI PUSH2 0x85 JUMP JUMPDEST CALLDATASIZE PUSH2 0x85 JUMPI STOP JUMPDEST PUSH0 DUP1 REVERT JUMPDEST PUSH2 0x91 PUSH2 0x199 JUMP JUMPDEST STOP JUMPDEST PUSH2 0xAD PUSH1 0x4 DUP1 CALLDATASIZE SUB DUP2 ADD SWAP1 PUSH2 0xA8 SWAP2 SWAP1 PUSH2 0x12A3 JUMP JUMPDEST PUSH2 0x1AE JUMP JUMPDEST STOP JUMPDEST CALLVALUE DUP1 ISZERO PUSH2 0xBA JUMPI PUSH0 DUP1 REVERT JUMPDEST POP PUSH2 0xC3 PUSH2 0x32A JUMP JUMPDEST PUSH1 0x40 MLOAD PUSH2 0xD0 SWAP2 SWAP1 PUSH2 0x12F0 JUMP JUMPDEST PUSH1 0x40 MLOAD DUP1 SWAP2 SUB SWAP1 RETURN JUMPDEST CALLVALUE DUP1 ISZERO PUSH2 0xE4 JUMPI PUSH0 DUP1 REVERT JUMPDEST POP PUSH2 0xFF PUSH1 0x4 DUP1 CALLDATASIZE SUB DUP2 ADD SWAP1 PUSH2 0xFA SWAP2 SWAP1 PUSH2 0x1341 JUMP JUMPDEST PUSH2 0x34E JUMP JUMPDEST STOP JUMPDEST CALLVALUE DUP1 ISZERO PUSH2 0x10C JUMPI PUSH0 DUP1 REVERT JUMPDEST POP PUSH2 0x115 PUSH2 0x4AC JUMP JUMPDEST PUSH1 0x40 MLOAD PUSH2 0x122 SWAP2 SWAP1 PUSH2 0x1439 JUMP JUMPDEST PUSH1 0x40 MLOAD DUP1 SWAP2 SUB SWAP1 RETURN JUMPDEST CALLVALUE DUP1 ISZERO PUSH2 0x136 JUMPI PUSH0 DUP1 REVERT JUMPDEST POP PUSH2 0x13F PUSH2 0x4D0 JUMP JUMPDEST PUSH1 0x40 MLOAD PUSH2 0x14C SWAP2 SWAP1 PUSH2 0x12F0 JUMP JUMPDEST PUSH1 0x40 MLOAD DUP1 SWAP2 SUB SWAP1 RETURN JUMPDEST PUSH2 0x16F PUSH1 0x4 DUP1 CALLDATASIZE SUB DUP2 ADD SWAP1 PUSH2 0x16A SWAP2 SWAP1 PUSH2 0x1452 JUMP JUMPDEST PUSH2 0x4F4 JUMP JUMPDEST STOP JUMPDEST CALLVALUE DUP1 ISZERO PUSH2 0x17C JUMPI PUSH0 DUP1 REVERT JUMPDEST POP PUSH2 0x197 PUSH1 0x4 DUP1 CALLDATASIZE SUB DUP2 ADD SWAP1 PUSH2 0x192 SWAP2 SWAP1 PUSH2 0x1503 JUMP JUMPDEST PUSH2 0x5CC JUMP JUMPDEST STOP JUMPDEST PUSH0 SELFBALANCE GT ISZERO PUSH2 0x1AC JUMPI PUSH2 0x1AB CALLER SELFBALANCE PUSH2 0x9E9 JUMP JUMPDEST JUMPDEST JUMP JUMPDEST PUSH0 PUSH32 0x0 PUSH20 0xFFFFFFFFFFFFFFFFFFFFFFFFFFFFFFFFFFFFFFFF AND PUSH4 0x70A08231 ADDRESS PUSH1 0x40 MLOAD DUP3 PUSH4 0xFFFFFFFF AND PUSH1 0xE0 SHL DUP2 MSTORE PUSH1 0x4 ADD PUSH2 0x208 SWAP2 SWAP1 PUSH2 0x12F0 JUMP JUMPDEST PUSH1 0x20 PUSH1 0x40 MLOAD DUP1 DUP4 SUB DUP2 DUP7 GAS STATICCALL ISZERO DUP1 ISZERO PUSH2 0x223 JUMPI RETURNDATASIZE PUSH0 DUP1 RETURNDATACOPY RETURNDATASIZE PUSH0 REVERT JUMPDEST POP POP POP POP PUSH1 0x40 MLOAD RETURNDATASIZE PUSH1 0x1F NOT PUSH1 0x1F DUP3 ADD AND DUP3 ADD DUP1 PUSH1 0x40 MSTORE POP DUP2 ADD SWAP1 PUSH2 0x247 SWAP2 SWAP1 PUSH2 0x1588 JUMP JUMPDEST SWAP1 POP DUP3 DUP2 LT ISZERO PUSH2 0x28C JUMPI PUSH1 0x40 MLOAD PUSH32 0x8C379A000000000000000000000000000000000000000000000000000000000 DUP2 MSTORE PUSH1 0x4 ADD PUSH2 0x283 SWAP1 PUSH2 0x160D JUMP JUMPDEST PUSH1 0x40 MLOAD DUP1 SWAP2 SUB SWAP1 REVERT JUMPDEST PUSH0 DUP2 GT ISZERO PUSH2 0x325 JUMPI PUSH32 0x0 PUSH20 0xFFFFFFFFFFFFFFFFFFFFFFFFFFFFFFFFFFFFFFFF AND PUSH4 0x2E1A7D4D DUP3 PUSH1 0x40 MLOAD DUP3 PUSH4 0xFFFFFFFF AND PUSH1 0xE0 SHL DUP2 MSTORE PUSH1 0x4 ADD PUSH2 0x2ED SWAP2 SWAP1 PUSH2 0x163A JUMP JUMPDEST PUSH0 PUSH1 0x40 MLOAD DUP1 DUP4 SUB DUP2 PUSH0 DUP8 DUP1 EXTCODESIZE ISZERO DUP1 ISZERO PUSH2 0x304 JUMPI PUSH0 DUP1 REVERT JUMPDEST POP GAS CALL ISZERO DUP1 ISZERO PUSH2 0x316 JUMPI RETURNDATASIZE PUSH0 DUP1 RETURNDATACOPY RETURNDATASIZE PUSH0 REVERT JUMPDEST POP POP POP POP PUSH2 0x324 DUP3 DUP3 PUSH2 0x9E9 JUMP JUMPDEST JUMPDEST POP POP POP JUMP JUMPDEST PUSH32 0x0 DUP2 JUMP JUMPDEST PUSH0 PUSH1 0x40 MLOAD DUP1 PUSH1 0x60 ADD PUSH1 0x40 MSTORE DUP1 DUP10 PUSH20 0xFFFFFFFFFFFFFFFFFFFFFFFFFFFFFFFFFFFFFFFF AND DUP2 MSTORE PUSH1 0x20 ADD DUP9 PUSH20 0xFFFFFFFFFFFFFFFFFFFFFFFFFFFFFFFFFFFFFFFF AND DUP2 MSTORE PUSH1 0x20 ADD DUP8 PUSH3 0xFFFFFF AND DUP2 MSTORE POP SWAP1 POP PUSH0 PUSH2 0x3C8 PUSH32 0x0 DUP4 PUSH2 0xAE4 JUMP JUMPDEST SWAP1 POP DUP1 PUSH20 0xFFFFFFFFFFFFFFFFFFFFFFFFFFFFFFFFFFFFFFFF AND PUSH4 0x490E6CBC ADDRESS DUP9 DUP9 PUSH1 0x40 MLOAD DUP1 PUSH1 0xC0 ADD PUSH1 0x40 MSTORE DUP1 DUP13 DUP2 MSTORE PUSH1 0x20 ADD DUP12 DUP2 MSTORE PUSH1 0x20 ADD CALLER PUSH20 0xFFFFFFFFFFFFFFFFFFFFFFFFFFFFFFFFFFFFFFFF AND DUP2 MSTORE PUSH1 0x20 ADD DUP9 DUP2 MSTORE PUSH1 0x20 ADD DUP11 PUSH3 0xFFFFFF AND DUP2 MSTORE PUSH1 0x20 ADD DUP10 PUSH3 0xFFFFFF AND DUP2 MSTORE POP PUSH1 0x40 MLOAD PUSH1 0x20 ADD PUSH2 0x446 SWAP2 SWAP1 PUSH2 0x173A JUMP JUMPDEST PUSH1 0x40 MLOAD PUSH1 0x20 DUP2 DUP4 SUB SUB DUP2 MSTORE SWAP1 PUSH1 0x40 MSTORE PUSH1 0x40 MLOAD DUP6 PUSH4 0xFFFFFFFF AND PUSH1 0xE0 SHL DUP2 MSTORE PUSH1 0x4 ADD PUSH2 0x474 SWAP5 SWAP4 SWAP3 SWAP2 SWAP1 PUSH2 0x17DE JUMP JUMPDEST PUSH0 PUSH1 0x40 MLOAD DUP1 DUP4 SUB DUP2 PUSH0 DUP8 DUP1 EXTCODESIZE ISZERO DUP1 ISZERO PUSH2 0x48B JUMPI PUSH0 DUP1 REVERT JUMPDEST POP GAS CALL ISZERO DUP1 ISZERO PUSH2 0x49D JUMPI RETURNDATASIZE PUSH0 DUP1 RETURNDATACOPY RETURNDATASIZE PUSH0 REVERT JUMPDEST POP POP POP POP POP POP POP POP POP POP POP POP POP JUMP JUMPDEST PUSH32 0x0 DUP2 JUMP JUMPDEST PUSH32 0x0 DUP2 JUMP JUMPDEST PUSH0 DUP4 PUSH20 0xFFFFFFFFFFFFFFFFFFFFFFFFFFFFFFFFFFFFFFFF AND PUSH4 0x70A08231 ADDRESS PUSH1 0x40 MLOAD DUP3 PUSH4 0xFFFFFFFF AND PUSH1 0xE0 SHL DUP2 MSTORE PUSH1 0x4 ADD PUSH2 0x52E SWAP2 SWAP1 PUSH2 0x12F0 JUMP JUMPDEST PUSH1 0x20 PUSH1 0x40 MLOAD DUP1 DUP4 SUB DUP2 DUP7 GAS STATICCALL ISZERO DUP1 ISZERO PUSH2 0x549 JUMPI RETURNDATASIZE PUSH0 DUP1 RETURNDATACOPY RETURNDATASIZE PUSH0 REVERT JUMPDEST POP POP POP POP PUSH1 0x40 MLOAD RETURNDATASIZE PUSH1 0x1F NOT PUSH1 0x1F DUP3 ADD AND DUP3 ADD DUP1 PUSH1 0x40 MSTORE POP DUP2 ADD SWAP1 PUSH2 0x56D SWAP2 SWAP1 PUSH2 0x1588 JUMP JUMPDEST SWAP1 POP DUP3 DUP2 LT ISZERO PUSH2 0x5B2 JUMPI PUSH1 0x40 MLOAD PUSH32 0x8C379A000000000000000000000000000000000000000000000000000000000 DUP2 MSTORE PUSH1 0x4 ADD PUSH2 0x5A9 SWAP1 PUSH2 0x1872 JUMP JUMPDEST PUSH1 0x40 MLOAD DUP1 SWAP2 SUB SWAP1 REVERT JUMPDEST PUSH0 DUP2 GT ISZERO PUSH2 0x5C6 JUMPI PUSH2 0x5C5 DUP5 DUP4 DUP4 PUSH2 0xBB4 JUMP JUMPDEST JUMPDEST POP POP POP POP JUMP JUMPDEST PUSH0 DUP3 DUP3 DUP2 ADD SWAP1 PUSH2 0x5DC SWAP2 SWAP1 PUSH2 0x1A0B JUMP JUMPDEST SWAP1 POP PUSH2 0x60C PUSH32 0x0 DUP3 PUSH1 0x60 ADD MLOAD PUSH2 0xD03 JUMP JUMPDEST POP PUSH0 DUP2 PUSH1 0x60 ADD MLOAD PUSH0 ADD MLOAD SWAP1 POP PUSH0 DUP3 PUSH1 0x60 ADD MLOAD PUSH1 0x20 ADD MLOAD SWAP1 POP PUSH2 0x652 DUP3 PUSH32 0x0 DUP6 PUSH0 ADD MLOAD PUSH2 0xD4D JUMP JUMPDEST PUSH2 0x681 DUP2 PUSH32 0x0 DUP6 PUSH1 0x20 ADD MLOAD PUSH2 0xD4D JUMP JUMPDEST PUSH0 PUSH2 0x690 DUP5 PUSH1 0x20 ADD MLOAD DUP9 PUSH2 0xE9C JUMP JUMPDEST SWAP1 POP PUSH0 PUSH2 0x6A0 DUP6 PUSH0 ADD MLOAD DUP11 PUSH2 0xE9C JUMP JUMPDEST SWAP1 POP PUSH0 PUSH32 0x0 PUSH20 0xFFFFFFFFFFFFFFFFFFFFFFFFFFFFFFFFFFFFFFFF AND PUSH4 0x414BF389 PUSH1 0x40 MLOAD DUP1 PUSH2 0x100 ADD PUSH1 0x40 MSTORE DUP1 DUP8 PUSH20 0xFFFFFFFFFFFFFFFFFFFFFFFFFFFFFFFFFFFFFFFF AND DUP2 MSTORE PUSH1 0x20 ADD DUP9 PUSH20 0xFFFFFFFFFFFFFFFFFFFFFFFFFFFFFFFFFFFFFFFF AND DUP2 MSTORE PUSH1 0x20 ADD DUP10 PUSH1 0x80 ADD MLOAD PUSH3 0xFFFFFF AND DUP2 MSTORE PUSH1 0x20 ADD ADDRESS PUSH20 0xFFFFFFFFFFFFFFFFFFFFFFFFFFFFFFFFFFFFFFFF AND DUP2 MSTORE PUSH1 0x20 ADD TIMESTAMP DUP2 MSTORE PUSH1 0x20 ADD DUP10 PUSH1 0x20 ADD MLOAD DUP2 MSTORE PUSH1 0x20 ADD DUP6 DUP2 MSTORE PUSH1 0x20 ADD PUSH0 PUSH20 0xFFFFFFFFFFFFFFFFFFFFFFFFFFFFFFFFFFFFFFFF AND DUP2 MSTORE POP PUSH1 0x40 MLOAD DUP3 PUSH4 0xFFFFFFFF AND PUSH1 0xE0 SHL DUP2 MSTORE PUSH1 0x4 ADD PUSH2 0x79A SWAP2 SWAP1 PUSH2 0x1AE6 JUMP JUMPDEST PUSH1 0x20 PUSH1 0x40 MLOAD DUP1 DUP4 SUB DUP2 PUSH0 DUP8 GAS CALL ISZERO DUP1 ISZERO PUSH2 0x7B6 JUMPI RETURNDATASIZE PUSH0 DUP1 RETURNDATACOPY RETURNDATASIZE PUSH0 REVERT JUMPDEST POP POP POP POP PUSH1 0x40 MLOAD RETURNDATASIZE PUSH1 0x1F NOT PUSH1 0x1F DUP3 ADD AND DUP3 ADD DUP1 PUSH1 0x40 MSTORE POP DUP2 ADD SWAP1 PUSH2 0x7DA SWAP2 SWAP1 PUSH2 0x1588 JUMP JUMPDEST SWAP1 POP PUSH0 PUSH32 0x0 PUSH20 0xFFFFFFFFFFFFFFFFFFFFFFFFFFFFFFFFFFFFFFFF AND PUSH4 0x414BF389 PUSH1 0x40 MLOAD DUP1 PUSH2 0x100 ADD PUSH1 0x40 MSTORE DUP1 DUP10 PUSH20 0xFFFFFFFFFFFFFFFFFFFFFFFFFFFFFFFFFFFFFFFF AND DUP2 MSTORE PUSH1 0x20 ADD DUP9 PUSH20 0xFFFFFFFFFFFFFFFFFFFFFFFFFFFFFFFFFFFFFFFF AND DUP2 MSTORE PUSH1 0x20 ADD DUP11 PUSH1 0xA0 ADD MLOAD PUSH3 0xFFFFFF AND DUP2 MSTORE PUSH1 0x20 ADD ADDRESS PUSH20 0xFFFFFFFFFFFFFFFFFFFFFFFFFFFFFFFFFFFFFFFF AND DUP2 MSTORE PUSH1 0x20 ADD TIMESTAMP DUP2 MSTORE PUSH1 0x20 ADD DUP11 PUSH0 ADD MLOAD DUP2 MSTORE PUSH1 0x20 ADD DUP8 DUP2 MSTORE PUSH1 0x20 ADD PUSH0 PUSH20 0xFFFFFFFFFFFFFFFFFFFFFFFFFFFFFFFFFFFFFFFF AND DUP2 MSTORE POP PUSH1 0x40 MLOAD DUP3 PUSH4 0xFFFFFFFF AND PUSH1 0xE0 SHL DUP2 MSTORE PUSH1 0x4 ADD PUSH2 0x8D3 SWAP2 SWAP1 PUSH2 0x1AE6 JUMP JUMPDEST PUSH1 0x20 PUSH1 0x40 MLOAD DUP1 DUP4 SUB DUP2 PUSH0 DUP8 GAS CALL ISZERO DUP1 ISZERO PUSH2 0x8EF JUMPI RETURNDATASIZE PUSH0 DUP1 RETURNDATACOPY RETURNDATASIZE PUSH0 REVERT JUMPDEST POP POP POP POP PUSH1 0x40 MLOAD RETURNDATASIZE PUSH1 0x1F NOT PUSH1 0x1F DUP3 ADD AND DUP3 ADD DUP1 PUSH1 0x40 MSTORE POP DUP2 ADD SWAP1 PUSH2 0x913 SWAP2 SWAP1 PUSH2 0x1588 JUMP JUMPDEST SWAP1 POP PUSH0 PUSH2 0x923 DUP9 PUSH0 ADD MLOAD DUP14 PUSH2 0xE9C JUMP JUMPDEST SWAP1 POP PUSH0 PUSH2 0x934 DUP10 PUSH1 0x20 ADD MLOAD DUP14 PUSH2 0xE9C JUMP JUMPDEST SWAP1 POP PUSH2 0x941 DUP9 ADDRESS DUP5 PUSH2 0xD4D JUMP JUMPDEST PUSH2 0x94C DUP8 ADDRESS DUP4 PUSH2 0xD4D JUMP JUMPDEST PUSH0 DUP3 GT ISZERO PUSH2 0x961 JUMPI PUSH2 0x960 DUP9 ADDRESS CALLER DUP6 PUSH2 0xEBD JUMP JUMPDEST JUMPDEST PUSH0 DUP2 GT ISZERO PUSH2 0x976 JUMPI PUSH2 0x975 DUP8 ADDRESS CALLER DUP5 PUSH2 0xEBD JUMP JUMPDEST JUMPDEST DUP2 DUP5 GT ISZERO PUSH2 0x9A8 JUMPI PUSH0 PUSH2 0x989 DUP6 DUP5 PUSH2 0x1092 JUMP JUMPDEST SWAP1 POP PUSH2 0x996 DUP10 ADDRESS DUP4 PUSH2 0xD4D JUMP JUMPDEST PUSH2 0x9A6 DUP10 ADDRESS DUP13 PUSH1 0x40 ADD MLOAD DUP5 PUSH2 0xEBD JUMP JUMPDEST POP JUMPDEST DUP1 DUP4 GT ISZERO PUSH2 0x9DA JUMPI PUSH0 PUSH2 0x9BB DUP5 DUP4 PUSH2 0x1092 JUMP JUMPDEST SWAP1 POP PUSH2 0x9C8 DUP10 ADDRESS DUP4 PUSH2 0xD4D JUMP JUMPDEST PUSH2 0x9D8 DUP9 ADDRESS DUP13 PUSH1 0x40 ADD MLOAD DUP5 PUSH2 0xEBD JUMP JUMPDEST POP JUMPDEST POP POP POP POP POP POP POP POP POP POP POP POP POP JUMP JUMPDEST PUSH0 DUP3 PUSH20 0xFFFFFFFFFFFFFFFFFFFFFFFFFFFFFFFFFFFFFFFF AND DUP3 PUSH0 PUSH8 0xFFFFFFFFFFFFFFFF DUP2 GT ISZERO PUSH2 0xA1C JUMPI PUSH2 0xA1B PUSH2 0x1894 JUMP JUMPDEST JUMPDEST PUSH1 0x40 MLOAD SWAP1 DUP1 DUP3 MSTORE DUP1 PUSH1 0x1F ADD PUSH1 0x1F NOT AND PUSH1 0x20 ADD DUP3 ADD PUSH1 0x40 MSTORE DUP1 ISZERO PUSH2 0xA4E JUMPI DUP2 PUSH1 0x20 ADD PUSH1 0x1 DUP3 MUL DUP1 CALLDATASIZE DUP4 CALLDATACOPY DUP1 DUP3 ADD SWAP2 POP POP SWAP1 POP JUMPDEST POP PUSH1 0x40 MLOAD PUSH2 0xA5C SWAP2 SWAP1 PUSH2 0x1B3A JUMP JUMPDEST PUSH0 PUSH1 0x40 MLOAD DUP1 DUP4 SUB DUP2 DUP6 DUP8 GAS CALL SWAP3 POP POP POP RETURNDATASIZE DUP1 PUSH0 DUP2 EQ PUSH2 0xA96 JUMPI PUSH1 0x40 MLOAD SWAP2 POP PUSH1 0x1F NOT PUSH1 0x3F RETURNDATASIZE ADD AND DUP3 ADD PUSH1 0x40 MSTORE RETURNDATASIZE DUP3 MSTORE RETURNDATASIZE PUSH0 PUSH1 0x20 DUP5 ADD RETURNDATACOPY PUSH2 0xA9B JUMP JUMPDEST PUSH1 0x60 SWAP2 POP JUMPDEST POP POP SWAP1 POP DUP1 PUSH2 0xADF JUMPI PUSH1 0x40 MLOAD PUSH32 0x8C379A000000000000000000000000000000000000000000000000000000000 DUP2 MSTORE PUSH1 0x4 ADD PUSH2 0xAD6 SWAP1 PUSH2 0x1B9A JUMP JUMPDEST PUSH1 0x40 MLOAD DUP1 SWAP2 SUB SWAP1 REVERT JUMPDEST POP POP POP JUMP JUMPDEST PUSH0 DUP2 PUSH1 0x20 ADD MLOAD PUSH20 0xFFFFFFFFFFFFFFFFFFFFFFFFFFFFFFFFFFFFFFFF AND DUP3 PUSH0 ADD MLOAD PUSH20 0xFFFFFFFFFFFFFFFFFFFFFFFFFFFFFFFFFFFFFFFF AND LT PUSH2 0xB23 JUMPI PUSH0 DUP1 REVERT JUMPDEST PUSH0 DUP4 DUP4 PUSH0 ADD MLOAD DUP5 PUSH1 0x20 ADD MLOAD DUP6 PUSH1 0x40 ADD MLOAD PUSH1 0x40 MLOAD PUSH1 0x20 ADD PUSH2 0xB45 SWAP4 SWAP3 SWAP2 SWAP1 PUSH2 0x1BC7 JUMP JUMPDEST PUSH1 0x40 MLOAD PUSH1 0x20 DUP2 DUP4 SUB SUB DUP2 MSTORE SWAP1 PUSH1 0x40 MSTORE DUP1 MLOAD SWAP1 PUSH1 0x20 ADD KECCAK256 PUSH32 0xE34F199B19B2B4F47F68442619D555527D244F78A3297EA89325F843F87B8B54 PUSH0 SHL PUSH1 0x40 MLOAD PUSH1 0x20 ADD PUSH2 0xB90 SWAP4 SWAP3 SWAP2 SWAP1 PUSH2 0x1CBE JUMP JUMPDEST PUSH1 0x40 MLOAD PUSH1 0x20 DUP2 DUP4 SUB SUB DUP2 MSTORE SWAP1 PUSH1 0x40 MSTORE DUP1 MLOAD SWAP1 PUSH1 0x20 ADD KECCAK256 SWAP1 POP DUP1 PUSH0 SHR SWAP2 POP POP SWAP3 SWAP2 POP POP JUMP JUMPDEST PUSH0 DUP1 DUP5 PUSH20 0xFFFFFFFFFFFFFFFFFFFFFFFFFFFFFFFFFFFFFFFF AND PUSH4 0xA9059CBB PUSH1 0xE0 SHL DUP6 DUP6 PUSH1 0x40 MLOAD PUSH1 0x24 ADD PUSH2 0xBE8 SWAP3 SWAP2 SWAP1 PUSH2 0x1D05 JUMP JUMPDEST PUSH1 0x40 MLOAD PUSH1 0x20 DUP2 DUP4 SUB SUB DUP2 MSTORE SWAP1 PUSH1 0x40 MSTORE SWAP1 PUSH28 0xFFFFFFFFFFFFFFFFFFFFFFFFFFFFFFFFFFFFFFFFFFFFFFFFFFFFFFFF NOT AND PUSH1 0x20 DUP3 ADD DUP1 MLOAD PUSH28 0xFFFFFFFFFFFFFFFFFFFFFFFFFFFFFFFFFFFFFFFFFFFFFFFFFFFFFFFF DUP4 DUP2 DUP4 AND OR DUP4 MSTORE POP POP POP POP PUSH1 0x40 MLOAD PUSH2 0xC52 SWAP2 SWAP1 PUSH2 0x1B3A JUMP JUMPDEST PUSH0 PUSH1 0x40 MLOAD DUP1 DUP4 SUB DUP2 PUSH0 DUP7 GAS CALL SWAP2 POP POP RETURNDATASIZE DUP1 PUSH0 DUP2 EQ PUSH2 0xC8B JUMPI PUSH1 0x40 MLOAD SWAP2 POP PUSH1 0x1F NOT PUSH1 0x3F RETURNDATASIZE ADD AND DUP3 ADD PUSH1 0x40 MSTORE RETURNDATASIZE DUP3 MSTORE RETURNDATASIZE PUSH0 PUSH1 0x20 DUP5 ADD RETURNDATACOPY PUSH2 0xC90 JUMP JUMPDEST PUSH1 0x60 SWAP2 POP JUMPDEST POP SWAP2 POP SWAP2 POP DUP2 DUP1 ISZERO PUSH2 0xCBD JUMPI POP PUSH0 DUP2 MLOAD EQ DUP1 PUSH2 0xCBC JUMPI POP DUP1 DUP1 PUSH1 0x20 ADD SWAP1 MLOAD DUP2 ADD SWAP1 PUSH2 0xCBB SWAP2 SWAP1 PUSH2 0x1D61 JUMP JUMPDEST JUMPDEST JUMPDEST PUSH2 0xCFC JUMPI PUSH1 0x40 MLOAD PUSH32 0x8C379A000000000000000000000000000000000000000000000000000000000 DUP2 MSTORE PUSH1 0x4 ADD PUSH2 0xCF3 SWAP1 PUSH2 0x1DD6 JUMP JUMPDEST PUSH1 0x40 MLOAD DUP1 SWAP2 SUB SWAP1 REVERT JUMPDEST POP POP POP POP POP JUMP JUMPDEST PUSH0 PUSH2 0xD0E DUP4 DUP4 PUSH2 0xAE4 JUMP JUMPDEST SWAP1 POP DUP1 PUSH20 0xFFFFFFFFFFFFFFFFFFFFFFFFFFFFFFFFFFFFFFFF AND CALLER PUSH20 0xFFFFFFFFFFFFFFFFFFFFFFFFFFFFFFFFFFFFFFFF AND EQ PUSH2 0xD47 JUMPI PUSH0 DUP1 REVERT JUMPDEST SWAP3 SWAP2 POP POP JUMP JUMPDEST PUSH0 DUP1 DUP5 PUSH20 0xFFFFFFFFFFFFFFFFFFFFFFFFFFFFFFFFFFFFFFFF AND PUSH4 0x95EA7B3 PUSH1 0xE0 SHL DUP6 DUP6 PUSH1 0x40 MLOAD PUSH1 0x24 ADD PUSH2 0xD81 SWAP3 SWAP2 SWAP1 PUSH2 0x1D05 JUMP JUMPDEST PUSH1 0x40 MLOAD PUSH1 0x20 DUP2 DUP4 SUB SUB DUP2 MSTORE SWAP1 PUSH1 0x40 MSTORE SWAP1 PUSH28 0xFFFFFFFFFFFFFFFFFFFFFFFFFFFFFFFFFFFFFFFFFFFFFFFFFFFFFFFF NOT AND PUSH1 0x20 DUP3 ADD DUP1 MLOAD PUSH28 0xFFFFFFFFFFFFFFFFFFFFFFFFFFFFFFFFFFFFFFFFFFFFFFFFFFFFFFFF DUP4 DUP2 DUP4 AND OR DUP4 MSTORE POP POP POP POP PUSH1 0x40 MLOAD PUSH2 0xDEB SWAP2 SWAP1 PUSH2 0x1B3A JUMP JUMPDEST PUSH0 PUSH1 0x40 MLOAD DUP1 DUP4 SUB DUP2 PUSH0 DUP7 GAS CALL SWAP2 POP POP RETURNDATASIZE DUP1 PUSH0 DUP2 EQ PUSH2 0xE24 JUMPI PUSH1 0x40 MLOAD SWAP2 POP PUSH1 0x1F NOT PUSH1 0x3F RETURNDATASIZE ADD AND DUP3 ADD PUSH1 0x40 MSTORE RETURNDATASIZE DUP3 MSTORE RETURNDATASIZE PUSH0 PUSH1 0x20 DUP5 ADD RETURNDATACOPY PUSH2 0xE29 JUMP JUMPDEST PUSH1 0x60 SWAP2 POP JUMPDEST POP SWAP2 POP SWAP2 POP DUP2 DUP1 ISZERO PUSH2 0xE56 JUMPI POP PUSH0 DUP2 MLOAD EQ DUP1 PUSH2 0xE55 JUMPI POP DUP1 DUP1 PUSH1 0x20 ADD SWAP1 MLOAD DUP2 ADD SWAP1 PUSH2 0xE54 SWAP2 SWAP1 PUSH2 0x1D61 JUMP JUMPDEST JUMPDEST JUMPDEST PUSH2 0xE95 JUMPI PUSH1 0x40 MLOAD PUSH32 0x8C379A000000000000000000000000000000000000000000000000000000000 DUP2 MSTORE PUSH1 0x4 ADD PUSH2 0xE8C SWAP1 PUSH2 0x1E3E JUMP JUMPDEST PUSH1 0x40 MLOAD DUP1 SWAP2 SUB SWAP1 REVERT JUMPDEST POP POP POP POP POP JUMP JUMPDEST PUSH0 DUP3 DUP3 DUP5 PUSH2 0xEAA SWAP2 SWAP1 PUSH2 0x1E89 JUMP JUMPDEST SWAP2 POP DUP2 LT ISZERO PUSH2 0xEB7 JUMPI PUSH0 DUP1 REVERT JUMPDEST SWAP3 SWAP2 POP POP JUMP JUMPDEST PUSH32 0x0 PUSH20 0xFFFFFFFFFFFFFFFFFFFFFFFFFFFFFFFFFFFFFFFF AND DUP5 PUSH20 0xFFFFFFFFFFFFFFFFFFFFFFFFFFFFFFFFFFFFFFFF AND EQ DUP1 ISZERO PUSH2 0xF18 JUMPI POP DUP1 SELFBALANCE LT ISZERO JUMPDEST ISZERO PUSH2 0x103B JUMPI PUSH32 0x0 PUSH20 0xFFFFFFFFFFFFFFFFFFFFFFFFFFFFFFFFFFFFFFFF AND PUSH4 0xD0E30DB0 DUP3 PUSH1 0x40 MLOAD DUP3 PUSH4 0xFFFFFFFF AND PUSH1 0xE0 SHL DUP2 MSTORE PUSH1 0x4 ADD PUSH0 PUSH1 0x40 MLOAD DUP1 DUP4 SUB DUP2 DUP6 DUP9 DUP1 EXTCODESIZE ISZERO DUP1 ISZERO PUSH2 0xF83 JUMPI PUSH0 DUP1 REVERT JUMPDEST POP GAS CALL ISZERO DUP1 ISZERO PUSH2 0xF95 JUMPI RETURNDATASIZE PUSH0 DUP1 RETURNDATACOPY RETURNDATASIZE PUSH0 REVERT JUMPDEST POP POP POP POP POP PUSH32 0x0 PUSH20 0xFFFFFFFFFFFFFFFFFFFFFFFFFFFFFFFFFFFFFFFF AND PUSH4 0xA9059CBB DUP4 DUP4 PUSH1 0x40 MLOAD DUP4 PUSH4 0xFFFFFFFF AND PUSH1 0xE0 SHL DUP2 MSTORE PUSH1 0x4 ADD PUSH2 0xFF5 SWAP3 SWAP2 SWAP1 PUSH2 0x1D05 JUMP JUMPDEST PUSH1 0x20 PUSH1 0x40 MLOAD DUP1 DUP4 SUB DUP2 PUSH0 DUP8 GAS CALL ISZERO DUP1 ISZERO PUSH2 0x1011 JUMPI RETURNDATASIZE PUSH0 DUP1 RETURNDATACOPY RETURNDATASIZE PUSH0 REVERT JUMPDEST POP POP POP POP PUSH1 0x40 MLOAD RETURNDATASIZE PUSH1 0x1F NOT PUSH1 0x1F DUP3 ADD AND DUP3 ADD DUP1 PUSH1 0x40 MSTORE POP DUP2 ADD SWAP1 PUSH2 0x1035 SWAP2 SWAP1 PUSH2 0x1D61 JUMP JUMPDEST POP PUSH2 0x108C JUMP JUMPDEST ADDRESS PUSH20 0xFFFFFFFFFFFFFFFFFFFFFFFFFFFFFFFFFFFFFFFF AND DUP4 PUSH20 0xFFFFFFFFFFFFFFFFFFFFFFFFFFFFFFFFFFFFFFFF AND SUB PUSH2 0x107E JUMPI PUSH2 0x1079 DUP5 DUP4 DUP4 PUSH2 0xBB4 JUMP JUMPDEST PUSH2 0x108B JUMP JUMPDEST PUSH2 0x108A DUP5 DUP5 DUP5 DUP5 PUSH2 0x10B3 JUMP JUMPDEST JUMPDEST JUMPDEST POP POP POP POP JUMP JUMPDEST PUSH0 DUP3 DUP3 DUP5 PUSH2 0x10A0 SWAP2 SWAP1 PUSH2 0x1EBC JUMP JUMPDEST SWAP2 POP DUP2 GT ISZERO PUSH2 0x10AD JUMPI PUSH0 DUP1 REVERT JUMPDEST SWAP3 SWAP2 POP POP JUMP JUMPDEST PUSH0 DUP1 DUP6 PUSH20 0xFFFFFFFFFFFFFFFFFFFFFFFFFFFFFFFFFFFFFFFF AND PUSH4 0x23B872DD PUSH1 0xE0 SHL DUP7 DUP7 DUP7 PUSH1 0x40 MLOAD PUSH1 0x24 ADD PUSH2 0x10E9 SWAP4 SWAP3 SWAP2 SWAP1 PUSH2 0x1EEF JUMP JUMPDEST PUSH1 0x40 MLOAD PUSH1 0x20 DUP2 DUP4 SUB SUB DUP2 MSTORE SWAP1 PUSH1 0x40 MSTORE SWAP1 PUSH28 0xFFFFFFFFFFFFFFFFFFFFFFFFFFFFFFFFFFFFFFFFFFFFFFFFFFFFFFFF NOT AND PUSH1 0x20 DUP3 ADD DUP1 MLOAD PUSH28 0xFFFFFFFFFFFFFFFFFFFFFFFFFFFFFFFFFFFFFFFFFFFFFFFFFFFFFFFF DUP4 DUP2 DUP4 AND OR DUP4 MSTORE POP POP POP POP PUSH1 0x40 MLOAD PUSH2 0x1153 SWAP2 SWAP1 PUSH2 0x1B3A JUMP JUMPDEST PUSH0 PUSH1 0x40 MLOAD DUP1 DUP4 SUB DUP2 PUSH0 DUP7 GAS CALL SWAP2 POP POP RETURNDATASIZE DUP1 PUSH0 DUP2 EQ PUSH2 0x118C JUMPI PUSH1 0x40 MLOAD SWAP2 POP PUSH1 0x1F NOT PUSH1 0x3F RETURNDATASIZE ADD AND DUP3 ADD PUSH1 0x40 MSTORE RETURNDATASIZE DUP3 MSTORE RETURNDATASIZE PUSH0 PUSH1 0x20 DUP5 ADD RETURNDATACOPY PUSH2 0x1191 JUMP JUMPDEST PUSH1 0x60 SWAP2 POP JUMPDEST POP SWAP2 POP SWAP2 POP DUP2 DUP1 ISZERO PUSH2 0x11BE JUMPI POP PUSH0 DUP2 MLOAD EQ DUP1 PUSH2 0x11BD JUMPI POP DUP1 DUP1 PUSH1 0x20 ADD SWAP1 MLOAD DUP2 ADD SWAP1 PUSH2 0x11BC SWAP2 SWAP1 PUSH2 0x1D61 JUMP JUMPDEST JUMPDEST JUMPDEST PUSH2 0x11FD JUMPI PUSH1 0x40 MLOAD PUSH32 0x8C379A000000000000000000000000000000000000000000000000000000000 DUP2 MSTORE PUSH1 0x4 ADD PUSH2 0x11F4 SWAP1 PUSH2 0x1F6E JUMP JUMPDEST PUSH1 0x40 MLOAD DUP1 SWAP2 SUB SWAP1 REVERT JUMPDEST POP POP POP POP POP POP JUMP JUMPDEST PUSH0 PUSH1 0x40 MLOAD SWAP1 POP SWAP1 JUMP JUMPDEST PUSH0 DUP1 REVERT JUMPDEST PUSH0 DUP1 REVERT JUMPDEST PUSH0 DUP2 SWAP1 POP SWAP2 SWAP1 POP JUMP JUMPDEST PUSH2 0x1228 DUP2 PUSH2 0x1216 JUMP JUMPDEST DUP2 EQ PUSH2 0x1232 JUMPI PUSH0 DUP1 REVERT JUMPDEST POP JUMP JUMPDEST PUSH0 DUP2 CALLDATALOAD SWAP1 POP PUSH2 0x1243 DUP2 PUSH2 0x121F JUMP JUMPDEST SWAP3 SWAP2 POP POP JUMP JUMPDEST PUSH0 PUSH20 0xFFFFFFFFFFFFFFFFFFFFFFFFFFFFFFFFFFFFFFFF DUP3 AND SWAP1 POP SWAP2 SWAP1 POP JUMP JUMPDEST PUSH0 PUSH2 0x1272 DUP3 PUSH2 0x1249 JUMP JUMPDEST SWAP1 POP SWAP2 SWAP1 POP JUMP JUMPDEST PUSH2 0x1282 DUP2 PUSH2 0x1268 JUMP JUMPDEST DUP2 EQ PUSH2 0x128C JUMPI PUSH0 DUP1 REVERT JUMPDEST POP JUMP JUMPDEST PUSH0 DUP2 CALLDATALOAD SWAP1 POP PUSH2 0x129D DUP2 PUSH2 0x1279 JUMP JUMPDEST SWAP3 SWAP2 POP POP JUMP JUMPDEST PUSH0 DUP1 PUSH1 0x40 DUP4 DUP6 SUB SLT ISZERO PUSH2 0x12B9 JUMPI PUSH2 0x12B8 PUSH2 0x120E JUMP JUMPDEST JUMPDEST PUSH0 PUSH2 0x12C6 DUP6 DUP3 DUP7 ADD PUSH2 0x1235 JUMP JUMPDEST SWAP3 POP POP PUSH1 0x20 PUSH2 0x12D7 DUP6 DUP3 DUP7 ADD PUSH2 0x128F JUMP JUMPDEST SWAP2 POP POP SWAP3 POP SWAP3 SWAP1 POP JUMP JUMPDEST PUSH2 0x12EA DUP2 PUSH2 0x1268 JUMP JUMPDEST DUP3 MSTORE POP POP JUMP JUMPDEST PUSH0 PUSH1 0x20 DUP3 ADD SWAP1 POP PUSH2 0x1303 PUSH0 DUP4 ADD DUP5 PUSH2 0x12E1 JUMP JUMPDEST SWAP3 SWAP2 POP POP JUMP JUMPDEST PUSH0 PUSH3 0xFFFFFF DUP3 AND SWAP1 POP SWAP2 SWAP1 POP JUMP JUMPDEST PUSH2 0x1320 DUP2 PUSH2 0x1309 JUMP JUMPDEST DUP2 EQ PUSH2 0x132A JUMPI PUSH0 DUP1 REVERT JUMPDEST POP JUMP JUMPDEST PUSH0 DUP2 CALLDATALOAD SWAP1 POP PUSH2 0x133B DUP2 PUSH2 0x1317 JUMP JUMPDEST SWAP3 SWAP2 POP POP JUMP JUMPDEST PUSH0 DUP1 PUSH0 DUP1 PUSH0 DUP1 PUSH0 PUSH1 0xE0 DUP9 DUP11 SUB SLT ISZERO PUSH2 0x135C JUMPI PUSH2 0x135B PUSH2 0x120E JUMP JUMPDEST JUMPDEST PUSH0 PUSH2 0x1369 DUP11 DUP3 DUP12 ADD PUSH2 0x128F JUMP JUMPDEST SWAP8 POP POP PUSH1 0x20 PUSH2 0x137A DUP11 DUP3 DUP12 ADD PUSH2 0x128F JUMP JUMPDEST SWAP7 POP POP PUSH1 0x40 PUSH2 0x138B DUP11 DUP3 DUP12 ADD PUSH2 0x132D JUMP JUMPDEST SWAP6 POP POP PUSH1 0x60 PUSH2 0x139C DUP11 DUP3 DUP12 ADD PUSH2 0x1235 JUMP JUMPDEST SWAP5 POP POP PUSH1 0x80 PUSH2 0x13AD DUP11 DUP3 DUP12 ADD PUSH2 0x1235 JUMP JUMPDEST SWAP4 POP POP PUSH1 0xA0 PUSH2 0x13BE DUP11 DUP3 DUP12 ADD PUSH2 0x132D JUMP JUMPDEST SWAP3 POP POP PUSH1 0xC0 PUSH2 0x13CF DUP11 DUP3 DUP12 ADD PUSH2 0x132D JUMP JUMPDEST SWAP2 POP POP SWAP3 SWAP6 SWAP9 SWAP2 SWAP5 SWAP8 POP SWAP3 SWAP6 POP JUMP JUMPDEST PUSH0 DUP2 SWAP1 POP SWAP2 SWAP1 POP JUMP JUMPDEST PUSH0 PUSH2 0x1401 PUSH2 0x13FC PUSH2 0x13F7 DUP5 PUSH2 0x1249 JUMP JUMPDEST PUSH2 0x13DE JUMP JUMPDEST PUSH2 0x1249 JUMP JUMPDEST SWAP1 POP SWAP2 SWAP1 POP JUMP JUMPDEST PUSH0 PUSH2 0x1412 DUP3 PUSH2 0x13E7 JUMP JUMPDEST SWAP1 POP SWAP2 SWAP1 POP JUMP JUMPDEST PUSH0 PUSH2 0x1423 DUP3 PUSH2 0x1408 JUMP JUMPDEST SWAP1 POP SWAP2 SWAP1 POP JUMP JUMPDEST PUSH2 0x1433 DUP2 PUSH2 0x1419 JUMP JUMPDEST DUP3 MSTORE POP POP JUMP JUMPDEST PUSH0 PUSH1 0x20 DUP3 ADD SWAP1 POP PUSH2 0x144C PUSH0 DUP4 ADD DUP5 PUSH2 0x142A JUMP JUMPDEST SWAP3 SWAP2 POP POP JUMP JUMPDEST PUSH0 DUP1 PUSH0 PUSH1 0x60 DUP5 DUP7 SUB SLT ISZERO PUSH2 0x1469 JUMPI PUSH2 0x1468 PUSH2 0x120E JUMP JUMPDEST JUMPDEST PUSH0 PUSH2 0x1476 DUP7 DUP3 DUP8 ADD PUSH2 0x128F JUMP JUMPDEST SWAP4 POP POP PUSH1 0x20 PUSH2 0x1487 DUP7 DUP3 DUP8 ADD PUSH2 0x1235 JUMP JUMPDEST SWAP3 POP POP PUSH1 0x40 PUSH2 0x1498 DUP7 DUP3 DUP8 ADD PUSH2 0x128F JUMP JUMPDEST SWAP2 POP POP SWAP3 POP SWAP3 POP SWAP3 JUMP JUMPDEST PUSH0 DUP1 REVERT JUMPDEST PUSH0 DUP1 REVERT JUMPDEST PUSH0 DUP1 REVERT JUMPDEST PUSH0 DUP1 DUP4 PUSH1 0x1F DUP5 ADD SLT PUSH2 0x14C3 JUMPI PUSH2 0x14C2 PUSH2 0x14A2 JUMP JUMPDEST JUMPDEST DUP3 CALLDATALOAD SWAP1 POP PUSH8 0xFFFFFFFFFFFFFFFF DUP2 GT ISZERO PUSH2 0x14E0 JUMPI PUSH2 0x14DF PUSH2 0x14A6 JUMP JUMPDEST JUMPDEST PUSH1 0x20 DUP4 ADD SWAP2 POP DUP4 PUSH1 0x1 DUP3 MUL DUP4 ADD GT ISZERO PUSH2 0x14FC JUMPI PUSH2 0x14FB PUSH2 0x14AA JUMP JUMPDEST JUMPDEST SWAP3 POP SWAP3 SWAP1 POP JUMP JUMPDEST PUSH0 DUP1 PUSH0 DUP1 PUSH1 0x60 DUP6 DUP8 SUB SLT ISZERO PUSH2 0x151B JUMPI PUSH2 0x151A PUSH2 0x120E JUMP JUMPDEST JUMPDEST PUSH0 PUSH2 0x1528 DUP8 DUP3 DUP9 ADD PUSH2 0x1235 JUMP JUMPDEST SWAP5 POP POP PUSH1 0x20 PUSH2 0x1539 DUP8 DUP3 DUP9 ADD PUSH2 0x1235 JUMP JUMPDEST SWAP4 POP POP PUSH1 0x40 DUP6 ADD CALLDATALOAD PUSH8 0xFFFFFFFFFFFFFFFF DUP2 GT ISZERO PUSH2 0x155A JUMPI PUSH2 0x1559 PUSH2 0x1212 JUMP JUMPDEST JUMPDEST PUSH2 0x1566 DUP8 DUP3 DUP9 ADD PUSH2 0x14AE JUMP JUMPDEST SWAP3 POP SWAP3 POP POP SWAP3 SWAP6 SWAP2 SWAP5 POP SWAP3 POP JUMP JUMPDEST PUSH0 DUP2 MLOAD SWAP1 POP PUSH2 0x1582 DUP2 PUSH2 0x121F JUMP JUMPDEST SWAP3 SWAP2 POP POP JUMP JUMPDEST PUSH0 PUSH1 0x20 DUP3 DUP5 SUB SLT ISZERO PUSH2 0x159D JUMPI PUSH2 0x159C PUSH2 0x120E JUMP JUMPDEST JUMPDEST PUSH0 PUSH2 0x15AA DUP5 DUP3 DUP6 ADD PUSH2 0x1574 JUMP JUMPDEST SWAP2 POP POP SWAP3 SWAP2 POP POP JUMP JUMPDEST PUSH0 DUP3 DUP3 MSTORE PUSH1 0x20 DUP3 ADD SWAP1 POP SWAP3 SWAP2 POP POP JUMP JUMPDEST PUSH32 0x496E73756666696369656E742057455448390000000000000000000000000000 PUSH0 DUP3 ADD MSTORE POP JUMP JUMPDEST PUSH0 PUSH2 0x15F7 PUSH1 0x12 DUP4 PUSH2 0x15B3 JUMP JUMPDEST SWAP2 POP PUSH2 0x1602 DUP3 PUSH2 0x15C3 JUMP JUMPDEST PUSH1 0x20 DUP3 ADD SWAP1 POP SWAP2 SWAP1 POP JUMP JUMPDEST PUSH0 PUSH1 0x20 DUP3 ADD SWAP1 POP DUP2 DUP2 SUB PUSH0 DUP4 ADD MSTORE PUSH2 0x1624 DUP2 PUSH2 0x15EB JUMP JUMPDEST SWAP1 POP SWAP2 SWAP1 POP JUMP JUMPDEST PUSH2 0x1634 DUP2 PUSH2 0x1216 JUMP JUMPDEST DUP3 MSTORE POP POP JUMP JUMPDEST PUSH0 PUSH1 0x20 DUP3 ADD SWAP1 POP PUSH2 0x164D PUSH0 DUP4 ADD DUP5 PUSH2 0x162B JUMP JUMPDEST SWAP3 SWAP2 POP POP JUMP JUMPDEST PUSH2 0x165C DUP2 PUSH2 0x1216 JUMP JUMPDEST DUP3 MSTORE POP POP JUMP JUMPDEST PUSH2 0x166B DUP2 PUSH2 0x1268 JUMP JUMPDEST DUP3 MSTORE POP POP JUMP JUMPDEST PUSH2 0x167A DUP2 PUSH2 0x1309 JUMP JUMPDEST DUP3 MSTORE POP POP JUMP JUMPDEST PUSH1 0x60 DUP3 ADD PUSH0 DUP3 ADD MLOAD PUSH2 0x1694 PUSH0 DUP6 ADD DUP3 PUSH2 0x1662 JUMP JUMPDEST POP PUSH1 0x20 DUP3 ADD MLOAD PUSH2 0x16A7 PUSH1 0x20 DUP6 ADD DUP3 PUSH2 0x1662 JUMP JUMPDEST POP PUSH1 0x40 DUP3 ADD MLOAD PUSH2 0x16BA PUSH1 0x40 DUP6 ADD DUP3 PUSH2 0x1671 JUMP JUMPDEST POP POP POP POP JUMP JUMPDEST PUSH2 0x100 DUP3 ADD PUSH0 DUP3 ADD MLOAD PUSH2 0x16D5 PUSH0 DUP6 ADD DUP3 PUSH2 0x1653 JUMP JUMPDEST POP PUSH1 0x20 DUP3 ADD MLOAD PUSH2 0x16E8 PUSH1 0x20 DUP6 ADD DUP3 PUSH2 0x1653 JUMP JUMPDEST POP PUSH1 0x40 DUP3 ADD MLOAD PUSH2 0x16FB PUSH1 0x40 DUP6 ADD DUP3 PUSH2 0x1662 JUMP JUMPDEST POP PUSH1 0x60 DUP3 ADD MLOAD PUSH2 0x170E PUSH1 0x60 DUP6 ADD DUP3 PUSH2 0x1680 JUMP JUMPDEST POP PUSH1 0x80 DUP3 ADD MLOAD PUSH2 0x1721 PUSH1 0xC0 DUP6 ADD DUP3 PUSH2 0x1671 JUMP JUMPDEST POP PUSH1 0xA0 DUP3 ADD MLOAD PUSH2 0x1734 PUSH1 0xE0 DUP6 ADD DUP3 PUSH2 0x1671 JUMP JUMPDEST POP POP POP POP JUMP JUMPDEST PUSH0 PUSH2 0x100 DUP3 ADD SWAP1 POP PUSH2 0x174E PUSH0 DUP4 ADD DUP5 PUSH2 0x16C0 JUMP JUMPDEST SWAP3 SWAP2 POP POP JUMP JUMPDEST PUSH0 DUP2 MLOAD SWAP1 POP SWAP2 SWAP1 POP JUMP JUMPDEST PUSH0 DUP3 DUP3 MSTORE PUSH1 0x20 DUP3 ADD SWAP1 POP SWAP3 SWAP2 POP POP JUMP JUMPDEST PUSH0 JUMPDEST DUP4 DUP2 LT ISZERO PUSH2 0x178B JUMPI DUP1 DUP3 ADD MLOAD DUP2 DUP5 ADD MSTORE PUSH1 0x20 DUP2 ADD SWAP1 POP PUSH2 0x1770 JUMP JUMPDEST PUSH0 DUP5 DUP5 ADD MSTORE POP POP POP POP JUMP JUMPDEST PUSH0 PUSH1 0x1F NOT PUSH1 0x1F DUP4 ADD AND SWAP1 POP SWAP2 SWAP1 POP JUMP JUMPDEST PUSH0 PUSH2 0x17B0 DUP3 PUSH2 0x1754 JUMP JUMPDEST PUSH2 0x17BA DUP2 DUP6 PUSH2 0x175E JUMP JUMPDEST SWAP4 POP PUSH2 0x17CA DUP2 DUP6 PUSH1 0x20 DUP7 ADD PUSH2 0x176E JUMP JUMPDEST PUSH2 0x17D3 DUP2 PUSH2 0x1796 JUMP JUMPDEST DUP5 ADD SWAP2 POP POP SWAP3 SWAP2 POP POP JUMP JUMPDEST PUSH0 PUSH1 0x80 DUP3 ADD SWAP1 POP PUSH2 0x17F1 PUSH0 DUP4 ADD DUP8 PUSH2 0x12E1 JUMP JUMPDEST PUSH2 0x17FE PUSH1 0x20 DUP4 ADD DUP7 PUSH2 0x162B JUMP JUMPDEST PUSH2 0x180B PUSH1 0x40 DUP4 ADD DUP6 PUSH2 0x162B JUMP JUMPDEST DUP2 DUP2 SUB PUSH1 0x60 DUP4 ADD MSTORE PUSH2 0x181D DUP2 DUP5 PUSH2 0x17A6 JUMP JUMPDEST SWAP1 POP SWAP6 SWAP5 POP POP POP POP POP JUMP JUMPDEST PUSH32 0x496E73756666696369656E7420746F6B656E0000000000000000000000000000 PUSH0 DUP3 ADD MSTORE POP JUMP JUMPDEST PUSH0 PUSH2 0x185C PUSH1 0x12 DUP4 PUSH2 0x15B3 JUMP JUMPDEST SWAP2 POP PUSH2 0x1867 DUP3 PUSH2 0x1828 JUMP JUMPDEST PUSH1 0x20 DUP3 ADD SWAP1 POP SWAP2 SWAP1 POP JUMP JUMPDEST PUSH0 PUSH1 0x20 DUP3 ADD SWAP1 POP DUP2 DUP2 SUB PUSH0 DUP4 ADD MSTORE PUSH2 0x1889 DUP2 PUSH2 0x1850 JUMP JUMPDEST SWAP1 POP SWAP2 SWAP1 POP JUMP JUMPDEST PUSH0 DUP1 REVERT JUMPDEST PUSH32 0x4E487B7100000000000000000000000000000000000000000000000000000000 PUSH0 MSTORE PUSH1 0x41 PUSH1 0x4 MSTORE PUSH1 0x24 PUSH0 REVERT JUMPDEST PUSH2 0x18CA DUP3 PUSH2 0x1796 JUMP JUMPDEST DUP2 ADD DUP2 DUP2 LT PUSH8 0xFFFFFFFFFFFFFFFF DUP3 GT OR ISZERO PUSH2 0x18E9 JUMPI PUSH2 0x18E8 PUSH2 0x1894 JUMP JUMPDEST JUMPDEST DUP1 PUSH1 0x40 MSTORE POP POP POP JUMP JUMPDEST PUSH0 PUSH2 0x18FB PUSH2 0x1205 JUMP JUMPDEST SWAP1 POP PUSH2 0x1907 DUP3 DUP3 PUSH2 0x18C1 JUMP JUMPDEST SWAP2 SWAP1 POP JUMP JUMPDEST PUSH0 PUSH1 0x60 DUP3 DUP5 SUB SLT ISZERO PUSH2 0x1921 JUMPI PUSH2 0x1920 PUSH2 0x1890 JUMP JUMPDEST JUMPDEST PUSH2 0x192B PUSH1 0x60 PUSH2 0x18F2 JUMP JUMPDEST SWAP1 POP PUSH0 PUSH2 0x193A DUP5 DUP3 DUP6 ADD PUSH2 0x128F JUMP JUMPDEST PUSH0 DUP4 ADD MSTORE POP PUSH1 0x20 PUSH2 0x194D DUP5 DUP3 DUP6 ADD PUSH2 0x128F JUMP JUMPDEST PUSH1 0x20 DUP4 ADD MSTORE POP PUSH1 0x40 PUSH2 0x1961 DUP5 DUP3 DUP6 ADD PUSH2 0x132D JUMP JUMPDEST PUSH1 0x40 DUP4 ADD MSTORE POP SWAP3 SWAP2 POP POP JUMP JUMPDEST PUSH0 PUSH2 0x100 DUP3 DUP5 SUB SLT ISZERO PUSH2 0x1983 JUMPI PUSH2 0x1982 PUSH2 0x1890 JUMP JUMPDEST JUMPDEST PUSH2 0x198D PUSH1 0xC0 PUSH2 0x18F2 JUMP JUMPDEST SWAP1 POP PUSH0 PUSH2 0x199C DUP5 DUP3 DUP6 ADD PUSH2 0x1235 JUMP JUMPDEST PUSH0 DUP4 ADD MSTORE POP PUSH1 0x20 PUSH2 0x19AF DUP5 DUP3 DUP6 ADD PUSH2 0x1235 JUMP JUMPDEST PUSH1 0x20 DUP4 ADD MSTORE POP PUSH1 0x40 PUSH2 0x19C3 DUP5 DUP3 DUP6 ADD PUSH2 0x128F JUMP JUMPDEST PUSH1 0x40 DUP4 ADD MSTORE POP PUSH1 0x60 PUSH2 0x19D7 DUP5 DUP3 DUP6 ADD PUSH2 0x190C JUMP JUMPDEST PUSH1 0x60 DUP4 ADD MSTORE POP PUSH1 0xC0 PUSH2 0x19EB DUP5 DUP3 DUP6 ADD PUSH2 0x132D JUMP JUMPDEST PUSH1 0x80 DUP4 ADD MSTORE POP PUSH1 0xE0 PUSH2 0x19FF DUP5 DUP3 DUP6 ADD PUSH2 0x132D JUMP JUMPDEST PUSH1 0xA0 DUP4 ADD MSTORE POP SWAP3 SWAP2 POP POP JUMP JUMPDEST PUSH0 PUSH2 0x100 DUP3 DUP5 SUB SLT ISZERO PUSH2 0x1A21 JUMPI PUSH2 0x1A20 PUSH2 0x120E JUMP JUMPDEST JUMPDEST PUSH0 PUSH2 0x1A2E DUP5 DUP3 DUP6 ADD PUSH2 0x196D JUMP JUMPDEST SWAP2 POP POP SWAP3 SWAP2 POP POP JUMP JUMPDEST PUSH2 0x1A40 DUP2 PUSH2 0x1249 JUMP JUMPDEST DUP3 MSTORE POP POP JUMP JUMPDEST PUSH2 0x100 DUP3 ADD PUSH0 DUP3 ADD MLOAD PUSH2 0x1A5B PUSH0 DUP6 ADD DUP3 PUSH2 0x1662 JUMP JUMPDEST POP PUSH1 0x20 DUP3 ADD MLOAD PUSH2 0x1A6E PUSH1 0x20 DUP6 ADD DUP3 PUSH2 0x1662 JUMP JUMPDEST POP PUSH1 0x40 DUP3 ADD MLOAD PUSH2 0x1A81 PUSH1 0x40 DUP6 ADD DUP3 PUSH2 0x1671 JUMP JUMPDEST POP PUSH1 0x60 DUP3 ADD MLOAD PUSH2 0x1A94 PUSH1 0x60 DUP6 ADD DUP3 PUSH2 0x1662 JUMP JUMPDEST POP PUSH1 0x80 DUP3 ADD MLOAD PUSH2 0x1AA7 PUSH1 0x80 DUP6 ADD DUP3 PUSH2 0x1653 JUMP JUMPDEST POP PUSH1 0xA0 DUP3 ADD MLOAD PUSH2 0x1ABA PUSH1 0xA0 DUP6 ADD DUP3 PUSH2 0x1653 JUMP JUMPDEST POP PUSH1 0xC0 DUP3 ADD MLOAD PUSH2 0x1ACD PUSH1 0xC0 DUP6 ADD DUP3 PUSH2 0x1653 JUMP JUMPDEST POP PUSH1 0xE0 DUP3 ADD MLOAD PUSH2 0x1AE0 PUSH1 0xE0 DUP6 ADD DUP3 PUSH2 0x1A37 JUMP JUMPDEST POP POP POP POP JUMP JUMPDEST PUSH0 PUSH2 0x100 DUP3 ADD SWAP1 POP PUSH2 0x1AFA PUSH0 DUP4 ADD DUP5 PUSH2 0x1A46 JUMP JUMPDEST SWAP3 SWAP2 POP POP JUMP JUMPDEST PUSH0 DUP2 SWAP1 POP SWAP3 SWAP2 POP POP JUMP JUMPDEST PUSH0 PUSH2 0x1B14 DUP3 PUSH2 0x1754 JUMP JUMPDEST PUSH2 0x1B1E DUP2 DUP6 PUSH2 0x1B00 JUMP JUMPDEST SWAP4 POP PUSH2 0x1B2E DUP2 DUP6 PUSH1 0x20 DUP7 ADD PUSH2 0x176E JUMP JUMPDEST DUP1 DUP5 ADD SWAP2 POP POP SWAP3 SWAP2 POP POP JUMP JUMPDEST PUSH0 PUSH2 0x1B45 DUP3 DUP5 PUSH2 0x1B0A JUMP JUMPDEST SWAP2 POP DUP2 SWAP1 POP SWAP3 SWAP2 POP POP JUMP JUMPDEST PUSH32 0x5354450000000000000000000000000000000000000000000000000000000000 PUSH0 DUP3 ADD MSTORE POP JUMP JUMPDEST PUSH0 PUSH2 0x1B84 PUSH1 0x3 DUP4 PUSH2 0x15B3 JUMP JUMPDEST SWAP2 POP PUSH2 0x1B8F DUP3 PUSH2 0x1B50 JUMP JUMPDEST PUSH1 0x20 DUP3 ADD SWAP1 POP SWAP2 SWAP1 POP JUMP JUMPDEST PUSH0 PUSH1 0x20 DUP3 ADD SWAP1 POP DUP2 DUP2 SUB PUSH0 DUP4 ADD MSTORE PUSH2 0x1BB1 DUP2 PUSH2 0x1B78 JUMP JUMPDEST SWAP1 POP SWAP2 SWAP1 POP JUMP JUMPDEST PUSH2 0x1BC1 DUP2 PUSH2 0x1309 JUMP JUMPDEST DUP3 MSTORE POP POP JUMP JUMPDEST PUSH0 PUSH1 0x60 DUP3 ADD SWAP1 POP PUSH2 0x1BDA PUSH0 DUP4 ADD DUP7 PUSH2 0x12E1 JUMP JUMPDEST PUSH2 0x1BE7 PUSH1 0x20 DUP4 ADD DUP6 PUSH2 0x12E1 JUMP JUMPDEST PUSH2 0x1BF4 PUSH1 0x40 DUP4 ADD DUP5 PUSH2 0x1BB8 JUMP JUMPDEST SWAP5 SWAP4 POP POP POP POP JUMP JUMPDEST PUSH0 DUP2 SWAP1 POP SWAP3 SWAP2 POP POP JUMP JUMPDEST PUSH32 0xFF00000000000000000000000000000000000000000000000000000000000000 PUSH0 DUP3 ADD MSTORE POP JUMP JUMPDEST PUSH0 PUSH2 0x1C3A PUSH1 0x1 DUP4 PUSH2 0x1BFC JUMP JUMPDEST SWAP2 POP PUSH2 0x1C45 DUP3 PUSH2 0x1C06 JUMP JUMPDEST PUSH1 0x1 DUP3 ADD SWAP1 POP SWAP2 SWAP1 POP JUMP JUMPDEST PUSH0 DUP2 PUSH1 0x60 SHL SWAP1 POP SWAP2 SWAP1 POP JUMP JUMPDEST PUSH0 PUSH2 0x1C66 DUP3 PUSH2 0x1C50 JUMP JUMPDEST SWAP1 POP SWAP2 SWAP1 POP JUMP JUMPDEST PUSH0 PUSH2 0x1C77 DUP3 PUSH2 0x1C5C JUMP JUMPDEST SWAP1 POP SWAP2 SWAP1 POP JUMP JUMPDEST PUSH2 0x1C8F PUSH2 0x1C8A DUP3 PUSH2 0x1268 JUMP JUMPDEST PUSH2 0x1C6D JUMP JUMPDEST DUP3 MSTORE POP POP JUMP JUMPDEST PUSH0 DUP2 SWAP1 POP SWAP2 SWAP1 POP JUMP JUMPDEST PUSH0 DUP2 SWAP1 POP SWAP2 SWAP1 POP JUMP JUMPDEST PUSH2 0x1CB8 PUSH2 0x1CB3 DUP3 PUSH2 0x1C95 JUMP JUMPDEST PUSH2 0x1C9E JUMP JUMPDEST DUP3 MSTORE POP POP JUMP JUMPDEST PUSH0 PUSH2 0x1CC8 DUP3 PUSH2 0x1C2E JUMP JUMPDEST SWAP2 POP PUSH2 0x1CD4 DUP3 DUP7 PUSH2 0x1C7E JUMP JUMPDEST PUSH1 0x14 DUP3 ADD SWAP2 POP PUSH2 0x1CE4 DUP3 DUP6 PUSH2 0x1CA7 JUMP JUMPDEST PUSH1 0x20 DUP3 ADD SWAP2 POP PUSH2 0x1CF4 DUP3 DUP5 PUSH2 0x1CA7 JUMP JUMPDEST PUSH1 0x20 DUP3 ADD SWAP2 POP DUP2 SWAP1 POP SWAP5 SWAP4 POP POP POP POP JUMP JUMPDEST PUSH0 PUSH1 0x40 DUP3 ADD SWAP1 POP PUSH2 0x1D18 PUSH0 DUP4 ADD DUP6 PUSH2 0x12E1 JUMP JUMPDEST PUSH2 0x1D25 PUSH1 0x20 DUP4 ADD DUP5 PUSH2 0x162B JUMP JUMPDEST SWAP4 SWAP3 POP POP POP JUMP JUMPDEST PUSH0 DUP2 ISZERO ISZERO SWAP1 POP SWAP2 SWAP1 POP JUMP JUMPDEST PUSH2 0x1D40 DUP2 PUSH2 0x1D2C JUMP JUMPDEST DUP2 EQ PUSH2 0x1D4A JUMPI PUSH0 DUP1 REVERT JUMPDEST POP JUMP JUMPDEST PUSH0 DUP2 MLOAD SWAP1 POP PUSH2 0x1D5B DUP2 PUSH2 0x1D37 JUMP JUMPDEST SWAP3 SWAP2 POP POP JUMP JUMPDEST PUSH0 PUSH1 0x20 DUP3 DUP5 SUB SLT ISZERO PUSH2 0x1D76 JUMPI PUSH2 0x1D75 PUSH2 0x120E JUMP JUMPDEST JUMPDEST PUSH0 PUSH2 0x1D83 DUP5 DUP3 DUP6 ADD PUSH2 0x1D4D JUMP JUMPDEST SWAP2 POP POP SWAP3 SWAP2 POP POP JUMP JUMPDEST PUSH32 0x5354000000000000000000000000000000000000000000000000000000000000 PUSH0 DUP3 ADD MSTORE POP JUMP JUMPDEST PUSH0 PUSH2 0x1DC0 PUSH1 0x2 DUP4 PUSH2 0x15B3 JUMP JUMPDEST SWAP2 POP PUSH2 0x1DCB DUP3 PUSH2 0x1D8C JUMP JUMPDEST PUSH1 0x20 DUP3 ADD SWAP1 POP SWAP2 SWAP1 POP JUMP JUMPDEST PUSH0 PUSH1 0x20 DUP3 ADD SWAP1 POP DUP2 DUP2 SUB PUSH0 DUP4 ADD MSTORE PUSH2 0x1DED DUP2 PUSH2 0x1DB4 JUMP JUMPDEST SWAP1 POP SWAP2 SWAP1 POP JUMP JUMPDEST PUSH32 0x5341000000000000000000000000000000000000000000000000000000000000 PUSH0 DUP3 ADD MSTORE POP JUMP JUMPDEST PUSH0 PUSH2 0x1E28 PUSH1 0x2 DUP4 PUSH2 0x15B3 JUMP JUMPDEST SWAP2 POP PUSH2 0x1E33 DUP3 PUSH2 0x1DF4 JUMP JUMPDEST PUSH1 0x20 DUP3 ADD SWAP1 POP SWAP2 SWAP1 POP JUMP JUMPDEST PUSH0 PUSH1 0x20 DUP3 ADD SWAP1 POP DUP2 DUP2 SUB PUSH0 DUP4 ADD MSTORE PUSH2 0x1E55 DUP2 PUSH2 0x1E1C JUMP JUMPDEST SWAP1 POP SWAP2 SWAP1 POP JUMP JUMPDEST PUSH32 0x4E487B7100000000000000000000000000000000000000000000000000000000 PUSH0 MSTORE PUSH1 0x11 PUSH1 0x4 MSTORE PUSH1 0x24 PUSH0 REVERT JUMPDEST PUSH0 PUSH2 0x1E93 DUP3 PUSH2 0x1216 JUMP JUMPDEST SWAP2 POP PUSH2 0x1E9E DUP4 PUSH2 0x1216 JUMP JUMPDEST SWAP3 POP DUP3 DUP3 ADD SWAP1 POP DUP1 DUP3 GT ISZERO PUSH2 0x1EB6 JUMPI PUSH2 0x1EB5 PUSH2 0x1E5C JUMP JUMPDEST JUMPDEST SWAP3 SWAP2 POP POP JUMP JUMPDEST PUSH0 PUSH2 0x1EC6 DUP3 PUSH2 0x1216 JUMP JUMPDEST SWAP2 POP PUSH2 0x1ED1 DUP4 PUSH2 0x1216 JUMP JUMPDEST SWAP3 POP DUP3 DUP3 SUB SWAP1 POP DUP2 DUP2 GT ISZERO PUSH2 0x1EE9 JUMPI PUSH2 0x1EE8 PUSH2 0x1E5C JUMP JUMPDEST JUMPDEST SWAP3 SWAP2 POP POP JUMP JUMPDEST PUSH0 PUSH1 0x60 DUP3 ADD SWAP1 POP PUSH2 0x1F02 PUSH0 DUP4 ADD DUP7 PUSH2 0x12E1 JUMP JUMPDEST PUSH2 0x1F0F PUSH1 0x20 DUP4 ADD DUP6 PUSH2 0x12E1 JUMP JUMPDEST PUSH2 0x1F1C PUSH1 0x40 DUP4 ADD DUP5 PUSH2 0x162B JUMP JUMPDEST SWAP5 SWAP4 POP POP POP POP JUMP JUMPDEST PUSH32 0x5354460000000000000000000000000000000000000000000000000000000000 PUSH0 DUP3 ADD MSTORE POP JUMP JUMPDEST PUSH0 PUSH2 0x1F58 PUSH1 0x3 DUP4 PUSH2 0x15B3 JUMP JUMPDEST SWAP2 POP PUSH2 0x1F63 DUP3 PUSH2 0x1F24 JUMP JUMPDEST PUSH1 0x20 DUP3 ADD SWAP1 POP SWAP2 SWAP1 POP JUMP JUMPDEST PUSH0 PUSH1 0x20 DUP3 ADD SWAP1 POP DUP2 DUP2 SUB PUSH0 DUP4 ADD MSTORE PUSH2 0x1F85 DUP2 PUSH2 0x1F4C JUMP JUMPDEST SWAP1 POP SWAP2 SWAP1 POP JUMP INVALID LOG2 PUSH5 0x6970667358 0x22 SLT KECCAK256 0xCE SWAP10 BLOCKHASH 0xAD PUSH31 0x435BB3F7C55704562E4F9E098F32CE51F9934C3101B295A633A4A664736F6C PUSH4 0x43000814 STOP CALLER "
				},
				"gasEstimates": {
					"creation": {
						"codeDepositCost": "1626000",
						"executionCost": "infinite",
						"totalCost": "infinite"
					},
					"external": {
						"WETH9()": "infinite",
						"factory()": "infinite",
						"initFlash(address,address,uint24,uint256,uint256,uint24,uint24)": "infinite",
						"refundETH()": "infinite",
						"swapRouter()": "infinite",
						"sweepToken(address,uint256,address)": "infinite",
						"uniswapV3FlashCallback(uint256,uint256,bytes)": "infinite",
						"unwrapWETH9(uint256,address)": "infinite"
					}
				},
				"methodIdentifiers": {
					"WETH9()": "4aa4a4fc",
					"factory()": "c45a0155",
					"initFlash(address,address,uint24,uint256,uint256,uint24,uint24)": "833263e6",
					"refundETH()": "12210e8a",
					"swapRouter()": "c31c9c07",
					"sweepToken(address,uint256,address)": "df2ab5bb",
					"uniswapV3FlashCallback(uint256,uint256,bytes)": "e9cbafb0",
					"unwrapWETH9(uint256,address)": "49404b7c"
				}
			},
			"storageLayout": {
				"storage": [],
				"types": null
			},
			"userdoc": {
				"kind": "user",
				"methods": {
					"refundETH()": {
						"notice": "Refunds any ETH balance held by this contract to the `msg.sender`"
					},
					"sweepToken(address,uint256,address)": {
						"notice": "Transfers the full amount of a token held by this contract to recipient"
					},
					"uniswapV3FlashCallback(uint256,uint256,bytes)": {
						"notice": "implements the callback called from flash"
					},
					"unwrapWETH9(uint256,address)": {
						"notice": "Unwraps the contract's WETH9 balance and sends it to recipient as ETH."
					}
				},
				"notice": "An example contract using the Uniswap V3 flash function",
				"version": 1
			}
		}
	}
}